:100000000C9406010C9433010C9433010C943301CD
:100010000C9433010C9433010C9433010C94330190
:100020000C9433010C9433010C9433010C94330180
:100030000C9433010C9433010C9433010C94330170
:100040000C9433010C9433010C9433010C94330160
:100050000C9433010C9433010C9433010C94A218CA
:100060000C9433010C9465120C94B1130C9433016D
:100070000C9433010C9433010C9433010C94330130
:100080000C9433010C9433010C9433010C94330120
:100090000C94A5120C94F0130C9433010C943301BE
:1000A0000C9433010C9433010C9433010C94330100
:1000B0000C9433010C9433010C9433010C943301F0
:1000C0000C9433010C9433010C9433010C94E5121D
:1000D0000C942F140C9433010C9425130C946E146F
:1000E0000C94330100002100240027002A002D0079
:1000F0003000330001010000040107010A01000083
:100100002200250028002B002E00310034000201BF
:100110000000050108010B0100002000230026005B
:1001200029002C002F00320000010000030106010D
:10013000090105050505070508080808020202026D
:100140000A0A080804040404010101010101010173
:100150000303030303030303040707070C0C0C0C3E
:100160000C0C0C0C02020202060606060606060627
:100170000B0B0B0B0B0B0B0B0102102020080810B4
:100180002040102040800201020108040201010207
:1001900004081020408080402010080402018004E0
:1001A000020180402010080402010804020101023B
:1001B0000408102040800102040810204080000044
:1001C000090A02080B0C0D070603040100000000D9
:1001D000000000000000000000000000000000001F
:1001E0000000000000000000000011100F000000DF
:1001F00000000000000000000000000000000000FF
:1002000000000000A7035B05E615A00311241FBE34
:10021000CFEFD1E2DEBFCDBF00E00CBF12E0A0E027
:10022000B2E0E0E7F9E300E00BBF02C007900D92F7
:10023000A238B107D9F71BBE17E0A2E8B2E001C0AF
:100240001D92AE3BB107E1F712E0CAE0D2E004C074
:100250002297FE010E94A71CC430D107C9F70E9453
:100260001C170C94AB1C0C940000CF93DF93BC01C3
:100270008230910510F462E070E0A091BC07B0916B
:10028000BD07ED01E0E0F0E040E050E021C08881F2
:1002900099818617970769F48A819B81309719F0B5
:1002A0009383828304C09093BD078093BC07FE01B3
:1002B00034C06817790738F44115510519F08417CF
:1002C000950708F4AC01FE018A819B819C01E9013C
:1002D0002097E9F641155105A9F1CA01861B970B34
:1002E000049708F4BA01E0E0F0E02AC08D919C91F7
:1002F000119784179507F9F46417750781F412961E
:100300008D919C911397309719F09383828304C049
:100310009093BD078093BC07FD0132964CC0CA0183
:10032000861B970BFD01E80FF91F619371930297EC
:100330008D939C9340C0FD01828193819C01D901E2
:100340001097A1F68091BA079091BB07892B41F4D1
:1003500080913B0290913C029093BB078093BA0737
:1003600040913D0250913E024115510541F44DB777
:100370005EB78091390290913A02481B590B209147
:10038000BA073091BB07CA01821B930B86179707E8
:1003900080F0AB014E5F5F4F8417950750F0420F1E
:1003A000531F5093BB074093BA07F90161937193B0
:1003B00002C0E0E0F0E0CF01DF91CF910895CF934C
:1003C000DF93009709F450C0EC0122971B821A8238
:1003D000A091BC07B091BD07109709F140E050E033
:1003E000AC17BD0708F1BB83AA83FE0121913191AF
:1003F000E20FF31FAE17BF0779F48D919C9111970F
:10040000280F391F2E5F3F4F3983288312968D9115
:100410009C9113979B838A834115510571F4D09366
:10042000BD07C093BC0720C012968D919C91139775
:10043000AD01009711F0DC01D3CFFA01D383C28361
:1004400021913191E20FF31FCE17DF0769F4888104
:100450009981280F391F2E5F3F4FFA013183208386
:100460008A819B8193838283DF91CF910895FC01E0
:1004700087E492E09183808308950F931F938C010A
:10048000FC01828160E00E944D1BF801848161E0E3
:100490000E944D1B1F910F910895FC01662329F4C2
:1004A000848561E00E944D1B0895848560E00E9470
:1004B0004D1B08950F931F938C01FC01868160E012
:1004C0000E944D1BF801808561E00E944D1BF801E0
:1004D000828560E020E432E44FE050E00E94BB1BE4
:1004E000F801628B738BCB011F910F9108950F93CD
:1004F0001F938C01FC01868161E00E944D1BF80175
:10050000808561E00E944D1BF801828560E020E457
:1005100032E44FE050E00E94BB1BF801608B718B0E
:10052000CB011F910F9108950F931F938C01FC0134
:10053000868160E00E944D1BF801808560E00E948A
:100540004D1BF801828560E020E432E44FE050E08A
:100550000E94BB1BF80166877787CB011F910F9123
:100560000895FC01862F6287738760E00E948B1AD2
:100570000895FC01862F6087718761E00E948B1AC5
:100580000895FC01862F6683778361E00E948B1AB1
:100590000895FC01862F6483758361E00E948B1AA5
:1005A0000895FC01862F6283738361E00E948B1A99
:1005B0000895FC01862F6487758761E00E948B1A7D
:1005C00008954F925F926F927F928F929F92AF9217
:1005D000BF92CF92DF92EF92FF920F931F934C0145
:1005E0003A01290187E492E0F40191838083C401F8
:1005F0000E94D902C401B3010E94D102C401B20118
:100600000E94C902C401B8010E94C102C401B7011D
:100610000E94B902C401B6010E94B102C401B50131
:100620000E943D021F910F91FF90EF90DF90CF90BD
:10063000BF90AF909F908F907F906F905F904F9002
:100640000895FC0187E492E091838083CF010E94AA
:1006500030170895FC018FE492E091838083089520
:10066000FC018FE492E091838083CF010E943017D8
:100670000895FC01828160E00E944D1B0895FC01F9
:100680006481758182810E94AC190895FC01862FD6
:100690006283738361E00E948B1A0895FC018FE4EA
:1006A00092E091838083CF010E9446030895AF9228
:1006B000BF92CF92DF92EF92FF920F931F93813000
:1006C000910571F0892B19F46F5F7F4F61F11F91D4
:1006D0000F91FF90EF90DF90CF90BF90AF90089573
:1006E0006F5F7F4FA1F782E892E00E9480048DE95E
:1006F00092E061E370E042E350E023E330E004E3A2
:1007000010E0A5E3EA2EF12CF0E3CF2ED12CE2E0AD
:10071000AE2EB12C0E94E10281EB92E06CE270E01F
:100720000E944E03D4CF81EB92E00E942A038DE910
:1007300092E00E94370282E892E00E949304C7CFC1
:1007400080E090E06FEF7FEF0E945703089581E013
:1007500090E06FEF7FEF0E945703089589E297E0E2
:1007600040E855E260E070E026E00E94AD148DE9BB
:1007700092E061E00E944D028DE992E062E070E05B
:100780000E943D0281EB92E00E9439038FEF90E0DE
:100790009093B6028093B50283E060E00E948B1ACA
:1007A00087EB92E064E00E947E05882339F489E2B9
:1007B00097E069E172E00E947C18089589E297E071
:1007C00060E072E00E947C1808956F927F928F9291
:1007D0009F92AF92BF92CF92DF92EF92FF920F93D0
:1007E0001F93CF93DF9381EB92E00E9439038DE951
:1007F00092E00E949402EC018DE992E00E9477025F
:100800004C018DE992E00E945A023C0162E370E0E3
:1008100080E090E00E941F190E94EA185B016C01C1
:1008200004C081EB92E00E943F0383E00E94831B9F
:100830000197B9F30E94EA187B018C0189E297E0E5
:1008400063E372E00E945D1889E297E0BE014AE02E
:1008500050E00E944A1889E297E065E372E00E9446
:100860005D1889E297E0B4014AE050E00E944A181E
:1008700089E297E065E372E00E945D1889E297E003
:10088000B3014AE050E00E944A1889E297E065E32C
:1008900072E00E945D18EA18FB0889E297E0B70150
:1008A0004AE050E00E944A1889E297E067E372E06C
:1008B0000E945D18DF91CF911F910F91FF90EF90F3
:1008C000DF90CF90BF90AF909F908F907F906F9070
:1008D000089504C081EB92E00E943F0383E00E94F0
:1008E000831B892BB9F380E00E94831B892B09F4B9
:1008F00008950E94E503089580E090E0089508952A
:10090000FC011382128288EE93E0A0E0B0E08483C1
:100910009583A683B78387E592E091838083128EC7
:10092000118E14860895FC0187E592E091838083FF
:100930000895DF93CF930F92CDB7DEB7FC016983A3
:10094000A081B18112962D913C911397BE016F5FEA
:100950007F4F41E050E0F90119950F90CF91DF9161
:100960000895DC015996ED91FC915A973097E1F08A
:10097000238934894589568982859385A485B585DF
:10098000281B390B4A0B5B0B2030B0E83B07B0E06B
:100990004B07B0E05B0710F4C90108952FEF3FE764
:1009A00040E050E0C901089520E030E0C901089519
:1009B000FC01818D928D009711F00E94A30908958A
:1009C000DF93CF930F92CDB7DEB7FC01818D928D6F
:1009D000009749F0BE016F5F7F4F41E050E00E94F9
:1009E000F209019739F02FEF3FEFC9010F90CF9136
:1009F000DF9108958981282F30E0C9010F90CF91B0
:100A0000DF910895EF92FF920F931F93DF93CF939F
:100A10000F92CDB7DEB77C01DC0159968D919C9188
:100A20005A970097A1F0BE016F5F7F4F41E050E001
:100A30000E94F209019771F00FEF1FEFC8010F90AC
:100A4000CF91DF911F910F91FF90EF90089500E0FB
:100A500010E0F4CF8981082F10E0D7015996ED916D
:100A6000FC915A9742855385648575854150504065
:100A700060407040CF010E94DA08E0CFCF93DF934F
:100A8000EC01E98DFA8D309761F013821282CF016B
:100A90000E94D60B9C01E98DFA8D82819381892B6E
:100AA00031F081E090E09B838A8320E030E0C9014F
:100AB000DF91CF9108951092BC021092BD02109266
:100AC000C0021092C20282E090E0A0E0B0E0809309
:100AD000C3029093C402A093C502B093C6021092C1
:100AE000DA021092E4021092E30289E692E0909317
:100AF000E2028093E1021092E60208950F931F93A1
:100B0000CF93DF93EC01462F61E00E940808882311
:100B100031F480E0DF91CF911F910F9108958E0104
:100B2000045F1F4FC801BE0141E00E943C0E8823B4
:100B300049F0CE018A96B8010E944E0B882351F3EA
:100B400081E0E8CFC801BE0140E00E943C0E88234E
:100B500001F3EFCFFC01673020F5262F30E060FF76
:100B600013C08DB58E7F8DBD8CB58C7F8CBD4CB583
:100B700022FD15C090E036952795822F8170842B39
:100B8000892B8CBD81E00895663059F38DB5816065
:100B90008DBD8CB58C7F8CBD4CB522FFEBCF92E028
:100BA000EACF86E1858380E00895FF920F931F933B
:100BB000CF93DF938B010E94EA18EB01FF24FA9494
:100BC000FEBC0DB407FEFDCF8EB58F3F71F00E94C5
:100BD000EA186C1B7D0B6017710790F380E0DF91C2
:100BE000CF911F910F91FF90089581E0DF91CF91F8
:100BF0001F910F91FF900895FC01848160E00E9495
:100C00004D1B0895FC01848161E00E944D1B0895F5
:100C1000DC016EBDFA0120E030E00DB407FEFDCF2F
:100C200080818EBD0DB407FEFDCF81818EBD2E5F0C
:100C30003F4F329682E02030380779F70DB407FE37
:100C4000FDCF8FEF8EBD0DB407FEFDCF8FEF8EBDB4
:100C50000DB407FEFDCF8FEF8EBD0DB407FEFDCFA7
:100C60008EB51A968C931A978F71853049F081E171
:100C700015968C931597CD010E94020680E0089589
:100C800081E00895FF920F931F93CF93DF93EC01C0
:100C90000E94EA188B01FF24FA94FEBC0DB407FEF3
:100CA000FDCF8EB58A878F3F99F40E94EA18601BAA
:100CB000710B6D52714088F38FE08D83CE010E94DD
:100CC000020680E0DF91CF911F910F91FF90089570
:100CD0008E3F19F08DE08D83F1CF81E0F3CFCF937C
:100CE000DF93EC018E81882309F18FEF8EBD8F8118
:100CF00098859C012F5F3F4F38872F83815092400A
:100D000070F44FEF0DB407FEFDCF4EBD2F5F3F4F88
:100D1000C901019781509240A8F338872F830DB401
:100D200007FEFDCFCE010E9402061E82DF91CF9109
:100D30000895DF92EF92FF920F931F93CF93DF936B
:100D4000EC01D62E79018A010E946F06CE010E9425
:100D5000FC05CE016CE271E00E94D5058D2D80640A
:100D60008EBD0DB407FEFDCF28E130E0D801C701EC
:100D7000022E04C0B695A795979587950A94D2F749
:100D80008EBD0DB407FEFDCF285030408FEF283FB9
:100D9000380761F7DD20D1F485E98EBD0DB407FE7B
:100DA000FDCF90E02FEF2EBD0DB407FEFDCF8EB529
:100DB00087FD09C08A87DF91CF911F910F91FF9026
:100DC000EF90DF900895915071F7F4CF88E0D81636
:100DD00011F487E8E2CF8FEFE0CFCF92DF92EF926E
:100DE000FF920F931F93CF93DF93EC017A018B0156
:100DF0006901411551056105710579F482E18D8321
:100E0000CE010E94020680E0DF91CF911F910F91E9
:100E1000FF90EF90DF90CF9008958B85833039F06D
:100E200029E0EE0CFF1C001F111F2A95D1F7CE01FF
:100E300068E1A80197010E949906882319F084E0CF
:100E40008D83DECFCE016EEFA6010E9408068823B7
:100E5000B9F2CE0168E572E00E94D505882319F445
:100E600085E18D83CDCFCE016DE020E030E040E024
:100E700050E00E949906882319F084E18D83C0CF49
:100E80008FEF8EBD0DB407FEFDCF8EB58823A9F779
:100E9000CE010E94020681E0B7CF8F929F92AF925F
:100EA000BF92CF92DF92EF92FF920F931F93CF9357
:100EB000DF93EC015A016B0149010115110509F499
:100EC0007FC0C801820F931F81509240E0F48E8151
:100ED000882309F077C0A882B982CA82DB828B8519
:100EE000833039F069E0AA0CBB1CCC1CDD1C6A9570
:100EF000D1F7CE0161E1A60195010E9499068823F0
:100F000099F083E08D83CE010E94020680E0DF919C
:100F1000CF911F910F91FF90EF90DF90CF90BF90F6
:100F2000AF909F908F900895CE010E944206882333
:100F300051F318861F8281E08E8320E030E08FEF2E
:100F40008EBD28153905A8F4C9014FEF0DB407FE71
:100F5000FDCF4EBD019688159905C0F30894811CFC
:100F6000911C820E931E20953095280D391D3887CF
:100F70002F83D801119789F020E030E09FEF0DB466
:100F800007FEFDCF8EB5F701E20FF31F80839EBDF4
:100F90002F5F3F4F2A173B0790F30DB407FEFDCF9D
:100FA0008EB5AE0DBF1D8C932F813885200F311F5C
:100FB00038872F8389858823B1F02050324098F4F8
:100FC00081E0A5CF88819981AA81BB81841795078B
:100FD000A607B70709F07FCF2F81388582169306C1
:100FE00008F0ADCF78CFCE010E946F0681E08FCFA1
:100FF000EF92FF920F931F93790120E030E000E021
:1010000012E00E944D071F910F91FF90EF900895FD
:10101000BF92CF92DF92EF92FF920F931F93CF93E5
:10102000DF93EC01B62E1B8619861E821D824C832F
:101030000E94EA186B018C8161E00E948B1ACE013C
:101040000E94020682E360E00E948B1A83E361E063
:101050000E948B1A84E361E00E948B1A85E361E0B1
:101060000E948B1A85E361E00E944D1B83E58CBDD5
:101070008DB58E7F8DBD80E09FEF9EBD0DB407FEC8
:10108000FDCF8F5F8A30C9F7CE010E94FC05CE01EB
:1010900060E020E030E040E050E00E949906182F28
:1010A0008A878130B9F00E94EA186C197D09615D68
:1010B000774068F381E08D83CE010E94020680E0D4
:1010C000DF91CF911F910F91FF90EF90DF90CF9024
:1010D000BF900895CE0168E02AEA31E040E050E098
:1010E0000E94990682FF1FC01B87EE24FF24870100
:1010F000CE0167E320E030E040E050E00E94990636
:10110000CE0169E2A80197010E9499068A87882387
:10111000D1F00E94EA186C197D09615D774040F3B7
:1011200088E08D83C9CF80E02FEF2EBD0DB407FE80
:10113000FDCF9EB58F5F8430C1F79A879A3A71F0E0
:1011400082E08D83B9CF8B85823081F0CE010E9401
:101150000206CE016B2D0E94AA05B2CF82E08B87DA
:10116000E12CF12C012DF0E41F2FC2CFCE016AE358
:1011700020E030E040E050E00E949906882319F01A
:1011800086E08D8399CF8FEF8EBD0DB407FEFDCF26
:101190008EB5807C803C59F080E09FEF9EBD0DB401
:1011A00007FEFDCF2EB58F5F8330C1F7CFCF83E031
:1011B0008B87F2CF6F927F928F929F92AF92BF9266
:1011C000CF92DF92EF92FF920F931F93CF93DF9313
:1011D000EC015A016B012D81222349F08B899C89F6
:1011E000AD89BE8984179507A607B70780F480E00C
:1011F000DF91CF911F910F91FF90EF90DF90CF90F3
:10120000BF90AF909F908F907F906F900895223005
:1012100009F45CC0A114B104C104D10409F466C08E
:101220002A853B854C855D85EB8DFC8D858590E021
:101230000996215030404040504039014A01082E63
:1012400004C096948794779467940A94D2F72F5F9A
:101250003F4F4F4F5F4F0894A108B108C108D10814
:101260008601750104C016950795F794E7948A9551
:10127000D2F70894A11CB11CC11CD11CE614F704C0
:101280000805190548F58F89988DA98DBA8D8E832B
:101290009F83A887B98786E0882E912C8C0E9D1E8F
:1012A000E114F1040105110589F04E815F81688523
:1012B00079858B8D9C8D94010E9431100894E108F2
:1012C000F10801091109882359F791CFAA86BB8635
:1012D000CC86DD8681E08CCF211531054105510595
:1012E00091F2E618F70808091909D5CF1E821F8266
:1012F000188619861A861B861C861D8681E078CF83
:10130000CF93DF93EC01462F6E857F85888999897D
:101310000E94FC0D882389F08A89282F30E0220F53
:10132000331F22953295307F3227207F32272E5F60
:101330003C4FC901DF91CF91089520E030E0C90111
:10134000DF91CF9108950F931F93CF93DF93EC011B
:101350008D81882351F08C8187FD0DC00E94BE0DC8
:10136000DF91CF911F910F91089580E0DF91CF9190
:101370001F910F910895CE0161E00E9480098C01B8
:10138000009799F38D81823018F18F89988DF8013B
:10139000938F828F8F89988DA98DBA8DCD01AA27C1
:1013A000BB27958B848BE0910003F091010330976C
:1013B00059F0B8016A5E7F4FC80148961995F80147
:1013C000808D918D938B828B8C818F778C83C6CF10
:1013D0008B899C89AD89BE89F801848F958FA68FF2
:1013E000B78FD3CF2F923F924F925F926F927F929F
:1013F0008F929F92AF92BF92CF92DF92EF92FF9225
:101400000F931F93DF93CF9300D00F92CDB7DEB72A
:101410006C015C834B83DC011596EC911597EE23F0
:1014200021F014968C9180FD1AC04FEF5FEFCA0136
:101430000F900F900F900F90CF91DF911F910F9110
:10144000FF90EF90DF90CF90BF90AF909F908F90E4
:101450007F906F905F904F903F902F900895D601AE
:1014600053966D907D908D909C9056971A96ED9026
:10147000FD900D911C911D978B819C819C0140E0FA
:1014800050E0D401C3018E199F09A00BB10B821744
:101490009307A407B50708F4C6C0AB81BC811097B9
:1014A00009F4E4C02B01C60106969A8389833D01A5
:1014B000212C52E0352E4FEF842E41E0942E8E20C9
:1014C0009F20E23009F498C0D6015B96ED91FC9123
:1014D0005C97D801C70129E0B695A79597958795A0
:1014E0002A95D1F7B480BA94B82281149104A9F452
:1014F000BB2099F4E114F1040105110509F0B9C00C
:10150000D60157962D913D914D915C915A97169623
:101510002D933D934D935C931997D60116964D915B
:101520005D916D917C9119974250504060407040A0
:10153000058404C0440F551F661F771F0A94D2F715
:1015400086859785A089B189480F591F6A1F7B1F1F
:101550004B0D511D611D711D5101A818B9086A1468
:101560007B0408F45301F601848186FD62C0F0E03B
:10157000AF16F2E0BF0609F45CC0CB01BA0140E04F
:101580000E94FC0D882309F450CF94012E5F3C4F3C
:10159000A9014A0D5B1D2417350759F0D201F90145
:1015A00081918D934E175F07D9F7421B530B440E61
:1015B000551E750100E010E0F60182859385A48533
:1015C000B585E80EF91E0A1F1B1FD6011A96ED926B
:1015D000FD920D931C931D976A187B0809F446C071
:1015E000D6011596EC914FEF842E41E0942E8E207B
:1015F0009F20E23009F068CFB801A70139E0769565
:101600006795579547953A95D1F7D6015B96ED9139
:10161000FC915C97828D938DA48DB58D480F591FD9
:101620006A1F7B1F99CFC3018E199F099C838B83EF
:1016300034CF80913F0290914002A0914102B0913D
:101640004202481759076A077B0709F496CF809131
:101650000205909103059401850172010E944D07D6
:10166000882309F4E2CE4A0C5B1CA3CF4B815C813A
:10167000DECED60116964D915D916D917C911997B4
:10168000CF0129813A810E943110882309F4CDCEFF
:10169000D6015B96ED91FC915C973FCF0F931F9322
:1016A000CF93DF93EC018B018D81882331F4FB0113
:1016B0008789803141F08032F1F180E0DF91CF9174
:1016C0001F910F91089582E08D831F8A188E198EC5
:1016D0001A8E808D918DA0E0B0E0880F991FAA1F0F
:1016E000BB1F880F991FAA1FBB1F880F991FAA1F16
:1016F000BB1F880F991FAA1FBB1F880F991FAA1F06
:10170000BB1F8B8B9C8BAD8BBE8B1C8F0B8F81E09B
:101710008C831E821F82188619861A861B861C8659
:101720001D861E861F86188A198A1A8ADF91CF9114
:101730001F910F91089583E08D83FB01428D538D9E
:10174000648D758D4F8B588F698F7A8F9E012D5EBA
:101750003F4FC8010E94AB108823B9F6AECFCF939C
:10176000DF93EC019C012A5F3F4F8B8D9C8D41E004
:1017700050E060E070E00E941B118823A1F08F8987
:10178000988DA98DBA8D0097A105B10559F48E8168
:101790009F81A885B9858F8B988FA98FBA8F8C81EF
:1017A00080688C8381E0DF91CF9108952F923F92E2
:1017B0004F925F926F927F929F92AF92BF92CF9221
:1017C000DF92EF92FF920F931F93DF93CF9300D09E
:1017D00000D0CDB7DEB75C01F62EE72E5E834D83D9
:1017E000DC0115968C911597813019F181E090E01C
:1017F000D50113969C938E9312971E821D828D8124
:101800009E8126960FB6F894DEBF0FBECDBFCF9156
:10181000DF911F910F91FF90EF90DF90CF90BF90DD
:10182000AF909F907F906F905F904F903F902F90E0
:10183000089514968C9181FFD9CF82FD54C1F50192
:101840004285538564857585ED81FE81309709F465
:10185000C0C08F2D9E2D9C0119012F01D5015B96D3
:10186000ED91FC915C97DB01CA0119E0B695A79553
:10187000979587951A95D1F794809A949822AFEF0F
:101880006A2EA1E07A2E64227522992019F561143E
:10189000710401F5D50116964D915D916D917C9184
:1018A0001997411551056105710509F0F1C0579669
:1018B0002D913D914D915C915A972115310541052E
:1018C000510509F404C1D50116962D933D934D930E
:1018D0005C93199780E092E086199709620184155C
:1018E000950508F46C01D5011696ED90FD900D91CB
:1018F0001C9119978EEF9FEFAFEFBFEFE80EF91E27
:101900000A1F1B1F058404C0EE0CFF1C001F111FC3
:101910000A94D2F786859785A089B189E80EF91EC9
:101920000A1F1B1FE90CF11C011D111D90E0C916B7
:1019300092E0D90609F46EC06114710479F4F501DE
:10194000228533854485558583899489A589B689FF
:10195000281739074A075B0708F07AC0C801B701A2
:1019600041E00E94FC0D882309F440CFA3014E5FA3
:101970005C4F9A012C0D3D1D4217530789F0D10190
:10198000FA018D9181932E173F07D9F7CA0101966D
:1019900041E050E0481B590B240F351F220E331E27
:1019A0004C185D08C601A0E0B0E0F5014285538502
:1019B00064857585480F591F6A1F7B1FD5011A96CC
:1019C0004D935D936D937C931D974114510409F0E1
:1019D00045CFF50183899489A589B6898417950730
:1019E000A607B70708F0A3C0D50153964D935D93A2
:1019F0006D937C93569714968C91149780681496E7
:101A00008C9383FFFCCEC5010E94A309882309F4AF
:101A1000EDCEF5CE80913F0290914002A09141021F
:101A2000B09142028E159F05A007B10721F1809168
:101A3000020590910305B801A70191010E94ED06EE
:101A4000882309F4D3CEA0E0B2E02A0E3B1EA8CF33
:101A50000E94BE0D882309F4C9CEE0923F02F092A5
:101A6000400200934102109342028091040581607C
:101A7000809304057BCF8FEF9FEFAFEFBFEF809395
:101A80003F0290934002A0934102B0934202CFCF15
:101A9000CF019E012F5F3F4F0E943110882309F430
:101AA000ACCE29813A814B815C81D5015B96ED9169
:101AB000FC915C9787898031A9F188EF9FEFAFEFA8
:101AC000BFE0281739074A075B0708F4FCCEC501B9
:101AD0000E94AF0B882309F489CED5015B96ED9166
:101AE000FC915C97F7CEF501038914892589368925
:101AF00042855385648575854017510762077307D2
:101B000009F4A2CEC501B901A8010E94DA08882310
:101B100009F46CCED5011A964D915D916D917C9131
:101B20001D9792CE88EF9FEFA0E0B0E0CACF8091E2
:101B3000000390910103892B69F04D815E81452B53
:101B400021F4D50114968C915CCFF50184818068D5
:101B5000848357CFF501848154CFDF93CF930F92C5
:101B6000CDB7DEB76983BE016F5F7F4F41E050E0C4
:101B70000E94D60B0F90CF91DF91089580910405BC
:101B8000882311F481E0089540913F025091400272
:101B9000609141027091420280910205909103058B
:101BA00022E033E00E94ED068823D9F0409105053C
:101BB0005091060560910705709108054115510582
:101BC0006105710521F41092040581E0089580916A
:101BD00002059091030522E033E00E94ED06882380
:101BE00011F480E0089510920505109206051092F8
:101BF000070510920805E7CFDF92EF92FF920F934F
:101C00001F937B018C01D42E80913F029091400262
:101C1000A0914102B09142028E159F05A007B10725
:101C2000F9F00E94BE0D882339F480E01F910F91D6
:101C3000FF90EF90DF900895809102059091030549
:101C4000B801A70122E033E00E94F807882369F376
:101C5000E0923F02F0924002009341021093420250
:101C6000809104058D298093040581E01F910F91D7
:101C7000FF90EF90DF9008954F925F926F927F9266
:101C80008F929F92AF92BF92CF92DF92EF92FF928C
:101C90000F931F93CF93DF934C01142F7093030581
:101CA00060930205442309F452C0453090F080E06F
:101CB000DF91CF911F910F91FF90EF90DF90CF9028
:101CC000BF90AF909F908F907F906F905F904F905C
:101CD000089560E070E080E090E040E00E94FC0D3C
:101CE000882329F3C12FD0E02197FE01E295F295D8
:101CF000F07FFE27E07FFE27EE5FFC4FE254FE4FB1
:101D00008081EE5BF14090E08F779070892B79F6BF
:101D1000E653FE4F80819181A281B3818436910583
:101D2000A105B10520F2CC0FDD1FCC0FDD1FCC0FBC
:101D3000DD1FCC0FDD1FC853DB4FA880B980CA80E0
:101D4000DB80A114B104C104D10421F4B0CFAA24D2
:101D5000BB246501C601B50140E00E94FC0D88234B
:101D600009F4A5CF80910D0390910E03805092400D
:101D700009F09DCF20911203222309F498CF80917E
:101D8000100390911103892B09F491CF80910F03D7
:101D9000882309F48CCFF401228B80910F03848374
:101DA0001586282F30E041E050E0F4010585CA0196
:101DB000002E02C0880F991F0A94E2F728173907EE
:101DC00039F00F5FF40105870150083070F36FCFD1
:101DD00020911803309119032115310509F486C0AB
:101DE00040E050E0F4012583368347835087E0903C
:101DF0001003F09011032701662477244A0C5B1C22
:101E00006C1C7D1C438A548A658A768A80911303F0
:101E100090911403918F808F6091120370E080E0A5
:101E200090E00E94641C640D751D861D971DF401D1
:101E3000628F738F848F958F2091130330911403D9
:101E4000220F331F22953295307F3227207F322791
:101E500021503E4F232F3327269540E050E0260F98
:101E6000371F481F591F26873787408B518B80911A
:101E7000150390911603009709F441C0A0E0B0E06B
:101E800025013601421A530A640A750AA301920118
:101E9000280F391F4A1F5B1F04C056954795379579
:101EA00027950A95D2F7F401218732874387548713
:101EB000253FFFE03F07F0E04F07F0E05F0740F10C
:101EC000255F3F4F4040504040F180912E0390915C
:101ED0002F03A0913003B0913103F401828F938FCF
:101EE000A48FB58F80E2878B81E0E2CE209126031C
:101EF00030912703409128035091290373CF80919B
:101F0000220390912303A0912403B0912503B8CF1D
:101F10008CE0F401878B81E0CBCE80E1F401878BEC
:101F200081E0C6CE4F925F926F927F928F929F9286
:101F3000AF92BF92CF92DF92EF92FF920F931F93D7
:101F4000CF93DF93EC016A017B0128013901423014
:101F500051056105710508F45BC089859A85AB85DB
:101F6000BC850196A11DB11D84179507A607B7076B
:101F700008F44EC02B893C894D895E89EF89E03198
:101F800009F461C0C701B60107E09695879577957A
:101F900067950A95D1F74B015C01820E931EA41E32
:101FA000B51E80913F0290914002A0914102B091F4
:101FB000420288169906AA06BB06E1F5E03109F44B
:101FC00047C0F601EF77F070EE0FFF1FEE0FFF1F17
:101FD000EE5FFC4F408251826282738280910405E1
:101FE0008160809304058A89823080F08D819E8192
:101FF000AF81B885880E991EAA1EBB1E809205056A
:1020000090920605A0920705B092080581E001C0F4
:1020100080E0DF91CF911F910F91FF90EF90DF90C3
:10202000CF90BF90AF909F908F907F906F905F9078
:102030004F900895C501B40140E00E94FC0D882333
:1020400039F3EF89BBCF99278F2D7E2D6D2DA3CF2F
:10205000F601F070EE0FFF1FEE5FFC4F51824082E1
:10206000BDCFCF92DF92EF92FF920F931F93CF934A
:10207000DF93EC017A018B01690189859A85AB8533
:10208000BC850196A11DB11D84179507A607B7074A
:1020900008F441C02B893C894D895E89EF89E03184
:1020A00009F443C0C801B701F7E096958795779585
:1020B0006795FA95D1F7260F371F481F591F809152
:1020C0003F0290914002A0914102B0914202281734
:1020D00039074A075B0741F0CA01B90140E00E9495
:1020E000FC0D8823C1F0EF89E03121F1F701EF7792
:1020F000F070EE0FFF1FEE0FFF1FEE5FFC4F8081B1
:102100009181A281B381BF70F60180839183A28304
:10211000B38381E001C080E0DF91CF911F910F91E7
:10212000FF90EF90DF90CF9008959927812F702F27
:102130006F2DC1CFF701F070EE0FFF1FEE5FFC4F68
:1021400080819181A0E0B0E0F60180839183A28339
:10215000B38381E0E1CF4F925F926F927F928F9233
:102160009F92AF92BF92CF92DF92EF92FF920F9326
:102170001F93DF93CF9300D00F92CDB7DEB76C01E2
:1021800049835A836B837C832901EE24FF248701D2
:102190003E010894611C711C812CB2E09B2EA12C85
:1021A000B12C09C088EF9FEFAFEFBFE04817590788
:1021B0006A077B0728F5C60193010E943110882326
:1021C00029F1D501C401F601058404C0880F991FC7
:1021D000AA1FBB1F0A94D2F7E80EF91E0A1F1B1F85
:1021E00049815A816B817C8187898031D9F688EF5A
:1021F0009FEFA0E0B0E0481759076A077B07D8F2C5
:10220000F201E082F1820283138381E00F900F904C
:102210000F900F90CF91DF911F910F91FF90EF9052
:10222000DF90CF90BF90AF909F908F907F906F90F6
:102230005F904F9008952F923F924F925F926F92CE
:102240007F928F929F92AF92BF92CF92DF92EF9246
:10225000FF920F931F93DF93CF93CDB7DEB76797AE
:102260000FB6F894DEBF0FBECDBF1C014A875B8757
:102270006C877D873F872E87D9010D911D912D9108
:102280003C91011511052105310509F4D3C0D9018F
:10229000C8010196A11DB11D8C8B9D8BAE8BBF8B90
:1022A0001986F10181859285A385B4859C01AD01D4
:1022B0002F5F3F4F4F4F5F4F2D833E834F83588794
:1022C0000097A105B10509F49BC0CC88DD88EE8894
:1022D000FF888824992454018E010F5F1F4F1CC072
:1022E000A70196012F5F3F4F4F4F5F4F2C8B3D8BC8
:1022F0004E8B5F8B0894811C911CA11CB11CF101B9
:1023000081859285A385B48588169906AA06BB06A1
:1023100008F076C069017A018D819E81AF81B88510
:102320008C159D05AE05BF0570F492E0492E512C29
:10233000612C712C4C8A5D8A6E8A7F8A82E0C82E5D
:10234000D12CE12CF12CC101B701A60198010E940A
:102350003110882309F454C089819A81AB81BC81F2
:102360000097A105B10509F0BBCFA70196012F5F2A
:102370003F4F4F4F5F4FDA01C9014C885D886E882F
:102380007F8884199509A609B7094A845B846C84FF
:102390007D8484159505A605B70509F0ABCFC1016D
:1023A000A601B7010FEF1FEF2FEF3FE00E94920F42
:1023B000882331F14C885D886E887F884C145D04D9
:1023C0006E047F0468F04DC02C893D894E895F8979
:1023D000281539054A055B0508F043C075016401FD
:1023E00046015701089481089108A108B108C1016C
:1023F000B501A401970186010E94920F882321F75D
:1024000080E067960FB6F894DEBF0FBECDBFCF91C8
:10241000DF911F910F91FF90EF90DF90CF90BF90D1
:10242000AF909F908F907F906F905F904F903F9074
:102430002F900895DC014D905D906D907C904C8ABA
:102440005D8A6E8A7F8A19862A853B854C855D85E3
:10245000213031054105510509F023CF31E039879D
:1024600020CFAE85BF854D915D916D917C914115D9
:10247000510561057105F1F44C885D886E887F888F
:10248000AE85BF854D925D926D927C921397B98512
:10249000BB2371F02C893D894E895F892F5F3F4FA7
:1024A0004F4F5F4FD1012D933D934D935C93139705
:1024B00081E0A7CFC1010C891D892E893F890E9427
:1024C000920F8823C9F69CCF08951F920F920FB6E2
:1024D0000F920BB60F9211242F933F934F938F932C
:1024E0009F93EF93FF938091C00082FD2AC040919B
:1024F000C6002091490530914A052F5F3F4F2F7349
:10250000307080914B0590914C052817390759F090
:10251000E0914905F0914A05E75FFA4F4083309317
:102520004A0520934905FF91EF919F918F914F911B
:102530003F912F910F900BBE0F900FBE0F901F90E9
:1025400018958091C600EFCF08951F920F920FB695
:102550000F920BB60F9211242F933F934F938F93AB
:102560009F93EF93FF938091C80082FD2AC0409112
:10257000CE002091D1053091D2052F5F3F4F2F73B0
:1025800030708091D3059091D4052817390759F000
:10259000E091D105F091D205EF56FA4F4083309388
:1025A000D2052093D105FF91EF919F918F914F918B
:1025B0003F912F910F900BBE0F900FBE0F901F9069
:1025C00018958091CE00EFCF08951F920F920FB60D
:1025D0000F920BB60F9211242F933F934F938F932B
:1025E0009F93EF93FF938091D00082FD2AC040918A
:1025F000D6002091590630915A062F5F3F4F2F7316
:10260000307080915B0690915C062817390759F06D
:10261000E0915906F0915A06E75EF94F40833093F6
:102620005A0620935906FF91EF919F918F914F91F8
:102630003F912F910F900BBE0F900FBE0F901F90E8
:1026400018958091D600EFCF08951F920F920FB684
:102650000F920BB60F9211242F933F934F938F93AA
:102660009F93EF93FF938091300182FD2AC04091A8
:1026700036012091E1063091E2062F5F3F4F2F7324
:1026800030708091E3069091E4062817390759F0DD
:10269000E091E106F091E206EF55F94F4083309367
:1026A000E2062093E106FF91EF919F918F914F9168
:1026B0003F912F910F900BBE0F900FBE0F901F9068
:1026C000189580913601EFCFE0913507F0913607EC
:1026D000E05CFF4F8191919120813181821B930BAE
:1026E0008F739070892BD1F5E0915707F0915807BF
:1026F000E05CFF4F8191919120813181821B930B8E
:102700008F739070892B39F5E0917907F0917A07F2
:10271000E05CFF4F8191919120813181821B930B6D
:102720008F739070892BA1F4E0919B07F0919C0727
:10273000E05CFF4F8191919120813181821B930B4D
:102740008F739070892B09F408950E9424130895C3
:102750000E94E412E9CF0E94A412D6CF0E94641214
:10276000C3CF1F920F920FB60F920BB60F92112488
:102770002F933F938F939F93EF93FF9320918D051A
:1027800030918E0580918F0590919005281739071B
:1027900009F1E0918F05F0919005E35BFA4F2081FC
:1027A00080918F059091900501968F739070909312
:1027B000900580938F052093C600FF91EF919F9124
:1027C0008F913F912F910F900BBE0F900FBE0F90E6
:1027D0001F9018958091C1008F7D8093C100EDCF2F
:1027E0001F920F920FB60F920BB60F9211242F93D8
:1027F0003F938F939F93EF93FF9320911506309112
:10280000160680911706909118062817390709F1C6
:10281000E0911706F0911806EB52FA4F2081809153
:1028200017069091180601968F7390709093180672
:10283000809317062093CE00FF91EF919F918F9187
:102840003F912F910F900BBE0F900FBE0F901F90D6
:1028500018958091C9008F7D8093C900EDCF1F929C
:102860000F920FB60F920BB60F9211242F933F9336
:102870008F939F93EF93FF9320919D0630919E0637
:1028800080919F069091A0062817390709F1E091E1
:102890009F06F091A006E35AF94F208180919F0690
:1028A0009091A00601968F7390709093A0068093EC
:1028B0009F062093D600FF91EF919F918F913F91BA
:1028C0002F910F900BBE0F900FBE0F901F90189579
:1028D0008091D1008F7D8093D100EDCF1F920F9218
:1028E0000FB60F920BB60F9211242F933F938F9335
:1028F0009F93EF93FF9320912507309126078091B6
:102900002707909128072817390709F1E091270731
:10291000F0912807EB51F94F208180912707909182
:10292000280701968F73907090932807809327074C
:1029300020933601FF91EF919F918F913F912F91BD
:102940000F900BBE0F900FBE0F901F9018958091A7
:1029500031018F7D80933101EDCFCF92DF92EF92E5
:10296000FF920F931F93CF93DF93EC017A018B01BA
:10297000C22EDD24403081EE580780E0680780E0F9
:10298000780721F1DD24D394EC89FD8981E090E082
:1029900008A002C0880F991F0A94E2F7808360E0C4
:1029A00079E08DE390E0A80197010E94831C2150FB
:1029B000304040405040569547953795279580E1E7
:1029C00020303807D0F0DD20C1F0DD24EC89FD890E
:1029D000108260E874E88EE190E0A80197010E94FF
:1029E000831C2150304040405040569547953795C4
:1029F000279580E12030380730F7E889F98930835E
:102A0000EA89FB892083E88DF98DC082EE89FF89F0
:102A1000408121E030E0C9010C8C02C0880F991F71
:102A20000A94E2F7482B4083EE89FF894081C9016F
:102A30000D8C02C0880F991F0A94E2F7482B40833F
:102A4000EE89FF894081C9010E8C02C0880F991F51
:102A50000A94E2F7482B4083EE89FF8980810F8C2E
:102A600002C0220F331F0A94E2F720952823208307
:102A7000DF91CF911F910F91FF90EF90DF90CF905A
:102A80000895DC011C96ED91FC911D97E05CFF4FD1
:102A90002191319180819181281B390B2F733070E6
:102AA000C9010895DC011C96ED91FC911D97E05C35
:102AB000FF4F20813181E054F040DF01AE5BBF4F1A
:102AC0008D919C9111972817390749F08D919C9110
:102AD000E80FF91F8081282F30E0C90108952FEFFA
:102AE0003FEFC9010895DC011C96ED91FC911D9703
:102AF000E05CFF4F20813181E054F040DF01AE5BAC
:102B0000BF4F8D919C9111972817390791F08D91A6
:102B10009C911197E80FF91F20818D919C9111973D
:102B200001968F73907011969C938E9330E0C9013B
:102B300008952FEF3FEFC9010895FC0181A188237B
:102B400011F411A20895A489B5898C9186FFFDCF57
:102B500011A20895CF93DF93EC01AE85BF85AD013F
:102B6000405C5F4FFA01208131812F5F3F4F2F730F
:102B70003070FD01EE5BFF4F80819181281739078E
:102B8000D9F3FA0180819181A80FB91F6C93EE856A
:102B9000FF85E05CFF4F31832083EE89FF89208130
:102BA00081E090E00F8C02C0880F991F0A94E2F731
:102BB000282B208381E089A3EC89FD8980818064B2
:102BC000808381E090E0DF91CF9108951F93109270
:102BD0002C0710922B0728EE33E040E050E02093C2
:102BE0002D0730932E0740932F075093300765E74A
:102BF00072E070932A076093290789E095E090932B
:102C00003607809335078DE495E0909338078093DD
:102C1000370785EC90E090933A078093390784EC6E
:102C200090E090933C0780933B0780EC90E090937A
:102C30003E0780933D0781EC90E09093400780939E
:102C40003F0782EC90E0909342078093410786EC27
:102C500090E0909344078093430714E01093450756
:102C6000B3E0B0934607A7E0A0934707F5E0F093E1
:102C70004807E1E0E093490710924E0710924D0794
:102C800020934F07309350074093510750935207BA
:102C900070934C0760934B0781E995E09093580738
:102CA0008093570785ED95E090935A0780935907D5
:102CB0008DEC90E090935C0780935B078CEC90E048
:102CC00090935E0780935D0788EC90E09093600797
:102CD00080935F0789EC90E090936207809361078F
:102CE0008AEC90E090936407809363078EEC90E009
:102CF000909366078093650710936707B093680702
:102D0000A0936907F0936A07E0936B07109270072E
:102D100010926F07209371073093720740937307E7
:102D20005093740770936E0760936D0789E196E086
:102D300090937A07809379078DE596E090937C07CE
:102D400080937B0785ED90E090937E0780937D07CD
:102D500084ED90E09093800780937F0780ED90E072
:102D6000909382078093810781ED90E09093840790
:102D70008093830782ED90E0909386078093850788
:102D800086ED90E0909388078093870710938907DA
:102D9000B0938A07A0938B07F0938C07E0938D077D
:102DA0001092920710929107209393073093940703
:102DB00040939507509396077093900760938F0701
:102DC00081EA96E090939C0780939B0785EE96E0BE
:102DD00090939E0780939D0785E391E09093A007D1
:102DE00080939F0784E391E09093A2078093A107CB
:102DF00080E391E09093A4078093A30781E391E09F
:102E00009093A6078093A50782E391E09093A8078B
:102E10008093A70786E391E09093AA078093A90780
:102E20001093AB07B093AC07A093AD07F093AE0738
:102E3000E093AF071F9108950E944A190E94AE03C4
:102E40000E94690484E693E1892B29F00E946413AF
:102E50000E946904FBCF0E9469040E946904FBCFB1
:102E60000E94DF010895CF92DF92EF92FF920F93BD
:102E70001F93CF93DF937C016B01EA01411551054C
:102E8000D9F000E010E0D6016D916D01D701ED9110
:102E9000FC910190F081E02DC7011995080F191FD1
:102EA000219789F7C801DF91CF911F910F91FF9072
:102EB000EF90DF90CF90089500E010E0F3CFEF9215
:102EC000FF920F931F938C01DC01ED91FC91019017
:102ED000F081E02D6DE019957C01D801ED91FC9118
:102EE0000190F081E02DC8016AE019959C012E0D3A
:102EF0003F1DC9011F910F91FF90EF9008954F92D0
:102F00005F927F928F929F92AF92BF92CF92DF9209
:102F1000EF92FF920F931F93DF93CF93CDB7DEB75E
:102F2000A1970FB6F894DEBF0FBECDBF2C01742E53
:102F3000CB01223008F460C0822E9924AA24BB243D
:102F400019A221E2C22ED12CCC0EDD1E0BC0405D99
:102F5000F6014083E114F1040105110501F17E2C15
:102F60005F2DC801672D752FA50194010E94831C58
:102F700079018A01C801B701A50194010E94641C6E
:102F8000472D461B0894C108D1084A3004F3495C18
:102F9000F6014083E114F1040105110501F7C114A4
:102FA000D10481F1D6010D900020E9F71197AC19F9
:102FB000BD09F20180819181FC0122813381C2012E
:102FC000B601AD01F90119959C01C901A1960FB691
:102FD000F894DEBF0FBECDBFCF91DF911F910F914F
:102FE000FF90EF90DF90CF90BF90AF909F908F9029
:102FF0007F905F904F9008953AE0832E912CA12C02
:10300000B12C9ECF20E030E0E0CFCF92DF92EF9264
:10301000FF920F931F93CF93DF93EC016A017B0123
:1030200021153105B9F02A30310539F477FD1BC07F
:103030002AE00E947F179C0103C00E947F179C0119
:10304000C901DF91CF911F910F91FF90EF90DF9019
:10305000CF900895E881F9810190F081E02D642FEF
:1030600019959C01EDCFE881F9810190F081E02D67
:103070006DE219958C0144275527BA014C195D0959
:103080006E097F09CE012AE00E947F179801280F60
:10309000391FD6CFEF92FF920F931F937B019A01B6
:1030A0000027F7FC0095102FB801A7010E94051812
:1030B0001F910F91FF90EF900895CF93DF93EC0154
:1030C0006115710599F0DB010D900020E9F711976A
:1030D000A61BB70BE881F9810280F381E02DAD01D9
:1030E00019959C01C901DF91CF91089520E030E04E
:1030F000C901DF91CF9108950F931F93CF93DF9371
:10310000EC0161157105D9F0DB010D900020E9F7A4
:103110001197A61BB70BE881F9810280F381E02D9E
:10312000AD0119958C01CE010E945F179801280FFF
:10313000391FC901DF91CF911F910F91089500E0D0
:1031400010E0F1CF1F920F920FB60F9211242F9320
:103150003F938F939F93AF93BF938091B5079091C7
:10316000B607A091B707B091B8073091B90701969B
:10317000A11DB11D232F2D5F2D3720F02D57019656
:10318000A11DB11D2093B9078093B5079093B60791
:10319000A093B707B093B8078091B1079091B20799
:1031A000A091B307B091B4070196A11DB11D809302
:1031B000B1079093B207A093B307B093B407BF9140
:1031C000AF919F918F913F912F910F900FBE0F90D4
:1031D0001F9018958FB7F8942091B5073091B607D6
:1031E0004091B7075091B8078FBFB901CA01089540
:1031F0009FB7F8942091B1073091B2074091B3077F
:103200005091B40786B5A89B06C08F3F21F02F5F71
:103210003F4F4F4F5F4F9FBF542F432F322F2227D7
:10322000280F311D411D511D220F331F441F551FF3
:10323000220F331F441F551FB901CA010895EF9291
:10324000FF920F931F93CF93DF937B018C010E941A
:10325000F818E114F10401051105A9F0EB010E9431
:10326000F8186C1B7D0B685E7340C8F30894E10886
:10327000F10801091109E114F1040105110519F022
:10328000C851DC4FECCFDF91CF911F910F91FF9090
:10329000EF900895789484B5826084BD84B5816090
:1032A00084BD85B5826085BD85B5816085BDEEE64E
:1032B000F0E0808181608083E1E8F0E0108280812D
:1032C00082608083808181608083E0E8F0E080819B
:1032D00081608083E1EBF0E0808184608083E0EBBB
:1032E000F0E0808181608083E1E9F0E080818260AC
:1032F0008083808181608083E0E9F0E0808181606B
:103300008083E1EAF0E08081826080838081816057
:103310008083E0EAF0E0808181608083E1E2F1E097
:10332000808182608083808181608083E0E2F1E03F
:10333000808181608083EAE7F0E08081846080831F
:1033400080818260808380818160808380818068C9
:1033500080831092C10008951F93CF93DF93182F9D
:10336000EB0161E00E948B1A209761F1CF3FD105FC
:1033700009F444C0E12FF0E0E254FE4F849189301B
:1033800009F453C08A3030F5843009F462C08530C6
:10339000E8F5823009F4A1C0833008F078C08130AC
:1033A00071F484B5806884BDC7BD10C0803109F454
:1033B000A8C0813109F475C08F3009F47CC0C038D1
:1033C000D105E4F4812F60E00E944D1BDF91CF9185
:1033D0001F9108958D3099F18E3040F78B3009F4AC
:1033E00081C08C3008F43FC08091A000806280933F
:1033F000A000D093AB00C093AA00E8CF812F61E07A
:103400000E944D1BDF91CF911F910895873009F4E1
:103410005CC0883090F5863091F68091B00080686D
:103420008093B000C093B300D1CF809190008062B0
:1034300080939000D0939B00C0939A00C7CF809157
:10344000A00088608093A000D093AD00C093AC0032
:10345000BDCF80918000806280938000D0938B00EC
:10346000C0938A00B3CF80919000886080939000D1
:10347000D0939D00C0939C00A9CF8091900080685C
:1034800080939000D0939900C09398009FCF809133
:103490008000806880938000D0938900C09388006A
:1034A00095CF80912001886080932001D0932D01D9
:1034B000C0932C018BCF80912001806880932001E4
:1034C000D0932901C093280181CF8091B000806200
:1034D0008093B000C093B40079CF84B5806284BD7E
:1034E000C8BD74CF8091A00080688093A0008091B7
:1034F000A0008F7B8093A000D093A900C093A80068
:1035000065CF80912001806280932001D0932B01B0
:10351000C0932A015BCFCF93DF93482F50E0CA01BD
:1035200088589E4FFC0134914E5C5E4FFA018491A5
:103530008823B9F090E0880F991FFC01EC51FF4FF0
:10354000A591B491FC01E250FF4FC591D49166233F
:1035500059F06230B9F09FB7F8948C91832B8C931B
:103560009FBFDF91CF9108952FB7F8948C91932F3F
:10357000909589238C938881892388832FBFDF913D
:10358000CF9108952FB7F8948C91932F909589231C
:103590008C938881832B88832FBFE3CF893009F4F4
:1035A0005EC08A3070F08D3009F45FC08E30D0F08C
:1035B000803109F46CC0813109F463C08F30C9F1E6
:1035C0000895843009F445C08530B8F08730B9F1EA
:1035D000883048F58630A1F78091B0008F778093CE
:1035E000B00008958B3009F446C08C30B0F0809163
:1035F000A0008F7D8093A0000895823031F1833048
:1036000030F48130E9F684B58F7784BD08958091D8
:1036100080008F7780938000089580919000877F4D
:10362000809390000895809190008F778093900010
:103630000895809120018F778093200108958091D3
:10364000B0008F7D8093B000089584B58F7D84BDD8
:103650000895809180008F7D8093800008958091EF
:1036600090008F7D8093900008958091A000877FC7
:103670008093A00008958091A0008F778093A00090
:10368000089580912001877F809320010895809183
:1036900020018F7D809320010895FF920F931F9347
:1036A000F62E482F50E0CA0182549E4FFC0124910F
:1036B000CA0188589E4FFC0104914E5C5E4FFA018E
:1036C0001491112399F02223D1F4E12FF0E0EE0FB1
:1036D000FF1FE250FF4FA591B4919FB7F894FF20D0
:1036E00049F48C91009580238C939FBF1F910F917B
:1036F000FF9008958C91802B8C939FBFF7CF822FE2
:103700000E94CE1AE2CF0F931F93482F50E0CA01B8
:1037100082549E4FFC012491CA0188589E4FFC019F
:1037200004914E5C5E4FFA0114911123D1F02223D3
:10373000F1F4812F90E0880F991F885E9E4FFC0165
:10374000A591B4918C9120E030E0802321F4C9014F
:103750001F910F91089521E030E0C9011F910F9151
:10376000089520E030E0C9011F910F910895822F44
:103770000E94CE1ADECF8F929F92AF92BF92CF92CD
:10378000DF92EF92FF920F931F93CF93DF93A82FB7
:10379000B0E0CD0188589E4FFC018490AE5CBE4FD6
:1037A000FD018491662309F03BC099246FEFE62E5A
:1037B0006FEFF62E6FEF062F6FE0162FE222F32247
:1037C00004231523682F70E0660F771F685E7E4F15
:1037D00020E030E040E050E0FB01A591B49104C04E
:1037E0002F5F3F4F4F4F5F4F8C9188219816D1F438
:1037F0002E153F054007510799F720E030E040E0E3
:1038000050E0B901CA01DF91CF911F910F91FF9054
:10381000EF90DF90CF90BF90AF909F908F900895E2
:10382000982CC4CFFB01A591B49104C02F5F3F4FEA
:103830004F4F5F4F8C918821981631F02E153F0520
:103840004007510799F7D9CF8C9188219816B9F57F
:10385000E216F3060407150781F2AA24BB246501CA
:10386000FB01C591D4910CC0D601C501820F931FF5
:10387000A41FB51FE816F9060A071B0709F4BDCFF8
:103880000894A11CB11CC11CD11C888188219816E8
:1038900059F3C601B50125E130E040E050E00E9457
:1038A000641C9B01AC01205F3F4F4F4F5F4F84E092
:1038B00056954795379527958A95D1F7A2CF21E060
:1038C00030E040E050E09DCF629FD001739FF00157
:1038D000829FE00DF11D649FE00DF11D929FF00DA0
:1038E000839FF00D749FF00D659FF00D9927729FD7
:1038F000B00DE11DF91F639FB00DE11DF91FBD0162
:10390000CF0111240895A1E21A2EAA1BBB1BFD01B1
:103910000DC0AA1FBB1FEE1FFF1FA217B307E407AE
:10392000F50720F0A21BB30BE40BF50B661F771F06
:10393000881F991F1A9469F76095709580959095E6
:103940009B01AC01BD01CF010895EE0FFF1F059053
:10395000F491E02D199412E0CAE0D2E004C0FE0117
:103960000E94A71C2296CC30D107C9F7F894FFCF4C
:1039700043617274E36F53442070726F6E746F20F2
:10398000706172612075736F0046616C68612061BF
:103990006F20696E696369612063617274E36F20EF
:1039A0005344005B003B005D002000BE070000FFA9
:1039B000FFFFFF0000000037022103000000002A83
:1039C0000330030000000099043E057C04D804B1D4
:1039D00004E004020500000000AD0D33177C047FF5
:1039E0000400000000AA1533174115731552159DE8
:0239F0001500C0
:00000001FF
