:100000000C940E010C9477200C94A8200C94D92009
:100010000C940A210C943B210C946C210C949D218E
:100020000C94CE210C943B010C943B010C943B01AD
:100030000C943B010C943B010C943B010C943B0150
:100040000C943B010C943B010C943B010C943B0140
:100050000C943B010C943B010C943B010C94FF214C
:100060000C943B010C949F190C94EB1A0C943B01DB
:100070000C943B010C943B010C943B010C943B0110
:100080000C943B010C943B010C943B010C943B0100
:100090000C94DF190C942A1B0C943B010C943B012B
:1000A0000C943B010C943B010C943B010C943B01E0
:1000B0000C943B010C943B010C943B010C943B01D0
:1000C0000C943B010C943B010C943B010C941F1AC3
:1000D0000C94691B0C943B010C945F1A0C94A81BA4
:1000E0000C943B017C3C3E5E2B3D3F2F5B5D3B2CEB
:1000F0002A225C0000002100240027002A002D0095
:100100003000330001010000040107010A01000072
:100110002200250028002B002E00310034000201AF
:100120000000050108010B0100002000230026004B
:1001300029002C002F0032000001000003010601FD
:10014000090105050505070508080808020202025D
:100150000A0A080804040404010101010101010163
:100160000303030303030303040707070C0C0C0C2E
:100170000C0C0C0C02020202060606060606060617
:100180000B0B0B0B0B0B0B0B0102102020080810A4
:1001900020401020408002010201080402010102F7
:1001A00004081020408080402010080402018004D0
:1001B000020180402010080402010804020101022B
:1001C0000408102040800102040810204080000034
:1001D000090A02080B0C0D070603040100000000C9
:1001E000000000000000000000000000000000000F
:1001F0000000000000000000000011100F000000CF
:1002000000000000000000000000000000000000EE
:1002100000000000FF0348061B1DF80311241FBE49
:10022000CFEFD1E2DEBFCDBF00E00CBF12E0A0E017
:10023000B2E0ECEFF9E400E00BBF02C007900D92D2
:10024000A03AB107D9F71BBE17E0A0EAB2E001C09F
:100250001D92AC3EB107E1F712E0CAE1D2E004C062
:100260002297FE010E94ED24C431D107C9F70E94F4
:10027000511E0C94F1240C940000CF93DF93BC0129
:100280008230910510F462E070E0A091EA07B0912D
:10029000EB07ED01E0E0F0E040E050E021C08881B4
:1002A00099818617970769F48A819B81309719F0A5
:1002B0009383828304C09093EB078093EA07FE0147
:1002C00034C06817790738F44115510519F08417BF
:1002D000950708F4AC01FE018A819B819C01E9012C
:1002E0002097E9F641155105A9F1CA01861B970B24
:1002F000049708F4BA01E0E0F0E02AC08D919C91E7
:10030000119784179507F9F46417750781F412960D
:100310008D919C911397309719F09383828304C039
:100320009093EB078093EA07FD0132964CC0CA0117
:10033000861B970BFD01E80FF91F619371930297DC
:100340008D939C9340C0FD01828193819C01D901D2
:100350001097A1F68091E8079091E907892B41F465
:1003600080916002909161029093E9078093E80781
:1003700040916202509163024115510541F44DB71D
:100380005EB780915E0290915F02481B590B2091ED
:10039000E8073091E907CA01821B930B861797077C
:1003A00080F0AB014E5F5F4F8417950750F0420F0E
:1003B000531F5093E9074093E807F9016193719344
:1003C00002C0E0E0F0E0CF01DF91CF910895CF933C
:1003D000DF93009709F450C0EC0122971B821A8228
:1003E000A091EA07B091EB07109709F140E050E0C7
:1003F000AC17BD0708F1BB83AA83FE01219131919F
:10040000E20FF31FAE17BF0779F48D919C911197FE
:10041000280F391F2E5F3F4F3983288312968D9105
:100420009C9113979B838A834115510571F4D09356
:10043000EB07C093EA0720C012968D919C91139709
:10044000AD01009711F0DC01D3CFFA01D383C28351
:1004500021913191E20FF31FCE17DF0769F48881F4
:100460009981280F391F2E5F3F4FFA013183208376
:100470008A819B8193838283DF91CF910895FB01D1
:10048000DC0104C08D910190801921F4415050404D
:10049000C8F7881B990B0895FC018191861721F0FC
:1004A0008823D9F7992708953197CF010895FB0143
:1004B000DC014150504048F001900D920020C9F7F6
:1004C00001C01D9241505040E0F70895FC018CE6B8
:1004D00092E09183808308950F931F93CF93DF93CE
:1004E0008C01EB01FC01828160E00E94CB23F801CA
:1004F000848160E00E94CB23C431D105E9F0C43689
:10050000D105B1F0229729F0DF91CF911F910F9182
:100510000895F801828160E00E94CB23F801848174
:1005200061E00E94CB23DF91CF911F910F9108953D
:10053000F801828161E0F0CFF801828161E00E94E0
:10054000CB23F801848160E00E94CB23DF91CF911F
:100550001F910F910895FC01662329F4848561E0C1
:100560000E94CB230895848560E00E94CB230895E8
:100570000F931F938C01FC01868160E00E94CB23C6
:10058000F801808561E00E94CB23F801828560E05C
:1005900020E432E44FE050E00E940124F801628B35
:1005A000738BCB011F910F9108950F931F938C01B3
:1005B000FC01868161E00E94CB23F801808561E027
:1005C0000E94CB23F801828560E020E432E44FE012
:1005D00050E00E940124F801608B718BCB011F91C8
:1005E0000F9108950F931F938C01FC01868160E0A9
:1005F0000E94CB23F801808560E00E94CB23F801A4
:10060000828560E020E432E44FE050E00E94012463
:10061000F80166877787CB011F910F910895FC0140
:10062000862F6287738760E00E9409230895FC018A
:10063000862F6087718761E00E9409230895FC017D
:10064000862F6683778361E00E9409230895FC0169
:10065000862F6483758361E00E9409230895FC015D
:10066000862F6283738361E00E9409230895FC0151
:10067000862F6487758761E00E94092308954F9251
:100680005F926F927F928F929F92AF92BF92CF9222
:10069000DF92EF92FF920F931F934C013A012901D1
:1006A0008CE692E0F40191838083C4010E943703B9
:1006B000C401B3010E942F03C401B2010E942703A9
:1006C000C401B8010E941F03C401B7010E941703AF
:1006D000C401B6010E940F03C401B5010E946C025F
:1006E0001F910F91FF90EF90DF90CF90BF90AF9050
:1006F0009F908F907F906F905F904F900895FC0136
:100700008CE692E091838083CF010E94651E08955C
:10071000FC0184E792E0918380830895FC0184E7E3
:1007200092E091838083CF010E94651E0895FC01B1
:10073000828160E00E94CB230895FC01862F6283B2
:10074000738361E00E9409230895FC0184E792E02D
:1007500091838083CF010E949D0308950895AF92F5
:10076000BF92CF92DF92EF92FF920F931F9381304F
:10077000910571F0892B19F46F5F7F4F61F11F9123
:100780000F91FF90EF90DF90CF90BF90AF900895C2
:100790006F5F7F4FA1F780EA92E00E9413058BEB19
:1007A00092E061E370E042E350E023E330E004E3F1
:1007B00010E0A5E3EA2EF12CF0E3CF2ED12CE4E6F5
:1007C000AE2EB12C0E943F038FEC92E06EE170E000
:1007D0000E94A503D4CF8FEC92E00E9488038BEB9C
:1007E00092E00E94660280EA92E00E942605C7CF4E
:1007F00080E090E06FEF7FEF0E94AF03089581E00B
:1008000090E06FEF7FEF0E94AF030895AF92BF9229
:10081000CF92DF92EF92FF920F931F93DF93CF93CC
:10082000CDB7DEB76B970FB6F894DEBF0FBECDBF66
:1008300087E497E060E072E00E94B11F8BEB92E0EA
:100840000E94F202B82EA92E87E497E06B2D7A2D34
:100850004AE050E00E947F1F87E497E06CE072E07E
:100860000E94B11F87E497E06EE072E00E94B11F22
:100870008BEB92E00E94D502D82EC92E87E497E038
:100880006D2D7C2D4AE050E00E947F1F87E497E0A9
:100890006CE072E00E94B11F87E497E067E172E0CC
:1008A0000E94B11F8BEB92E00E94B802F82EE92E55
:1008B00087E497E06F2D7E2D4AE050E00E94921F62
:1008C0008E010F5F1F4FC80165ED72E04FE152E0EE
:1008D00023E10E94C6078B819C819093A3028093A1
:1008E000A2028D819E81AF81B8858093A4029093EE
:1008F000A502A093A602B093A70289859A85AB852D
:10090000BC858093A8029093A902A093AA02B093F9
:10091000AB02ACEAB2E0FE013D968DE001900D9293
:100920008150E1F78A8D9B8D9093BA028093B90232
:10093000C8010E94260580EA92E00E946B05882388
:1009400021F180EA92E06B2D7A2D4AE050E00E947E
:100950007F1F80EA92E067E272E00E94B11F80EAA6
:1009600092E06D2D7C2D4AE050E00E947F1F80EACE
:1009700092E067E272E00E94B11F80EA92E06F2D80
:100980007E2D4AE050E00E94921F80EA92E00E9491
:100990007A0564EF71E080E090E00E947C226B9623
:1009A0000FB6F894DEBF0FBECDBFCF91DF911F9180
:1009B0000F91FF90EF90DF90CF90BF90AF90089590
:1009C00087E497E040E855E260E070E00E94E71BB2
:1009D0008BEB92E061E00E94AB028FEC92E00E9410
:1009E00097038FEF90E09093D4028093D30284E139
:1009F0006EEA73E042E050E00E94F61F85ED92E05F
:100A000064E00E946B06882339F487E497E062E48F
:100A100072E00E94D01F089587E497E069E272E0D7
:100A20000E94D01F0895FC011382128288EE93E089
:100A3000A0E0B0E084839583A683B7838CE792E03F
:100A400091838083128E118E14860895FC018CE7A9
:100A500092E0918380830895DF93CF930F92CDB777
:100A6000DEB7FC016983A081B18112962D913C9182
:100A70001397BE016F5F7F4F41E050E0F901199578
:100A80000F90CF91DF910895DC015996ED91FC9183
:100A90005A973097E1F023893489458956898285B0
:100AA0009385A485B585281B390B4A0B5B0B203039
:100AB000B0E83B07B0E04B07B0E05B0710F4C901BA
:100AC00008952FEF3FE740E050E0C901089520E08E
:100AD00030E0C9010895DC015996ED91FC915A97D7
:100AE000309731F08581882309F4089581E00895D5
:100AF00080E00895CF93DF93EC01898D9A8D009764
:100B000041F00E94970D898D9A8D0E94E7011A8EFF
:100B1000198EDF91CF910895FC01818D928D009700
:100B200011F00E94480D0895DF93CF930F92CDB737
:100B3000DEB7FC01818D928D009749F0BE016F5F99
:100B40007F4F41E050E00E94740E019739F02FEF83
:100B50003FEFC9010F90CF91DF9108958981282F30
:100B600030E0C9010F90CF91DF910895EF92FF928D
:100B70000F931F93DF93CF930F92CDB7DEB77C0116
:100B8000DC0159968D919C915A970097A1F0BE0176
:100B90006F5F7F4F41E050E00E94740E019771F04B
:100BA0000FEF1FEFC8010F90CF91DF911F910F91B1
:100BB000FF90EF90089500E010E0F4CF8981082FB6
:100BC00010E0D7015996ED91FC915A9742855385D3
:100BD000648575854150504060407040CF010E944F
:100BE0007F0CE0CFCF93DF93EC01E98DFA8D309746
:100BF00061F013821282CF010E941D119C01E98DC8
:100C0000FA8D82819381892B31F081E090E09B8382
:100C10008A8320E030E0C901DF91CF910895EF92FF
:100C2000FF920F931F93CF93DF93EC01162F072FA3
:100C30007A011B821A8288EE93E0A0E0B0E08C83F8
:100C40009D83AE83BF838CE792E0998388838DE197
:100C500090E00E943D019A8F898F009791F0DC010E
:100C6000812F902F9C01F9018DE101900D9281500F
:100C7000E1F7CE010C96B7014CE050E00E9457021C
:100C8000188EDF91CF911F910F91FF90EF900895F3
:100C90001092DA021092DB021092DE021092E00251
:100CA00082E090E0A0E0B0E08093E1029093E20265
:100CB000A093E302B093E4021092F80210920203B0
:100CC000109201038CE892E0909300038093FF025E
:100CD0001092040308950F931F93CF93DF93EC01B9
:100CE000462F61E00E946D0B882339F490E0892F34
:100CF000DF91CF911F910F9108958E01045F1F4FD7
:100D0000C801BE0141E00E941815882359F0CE01A8
:100D10008A96B8010E941D1090E0882359F081E066
:100D20009827E5CFC801BE0140E00E94181588232E
:100D3000E9F2EDCF91E0F3CF2F923F924F925F9285
:100D40006F927F928F929F92AF92BF92CF92DF92DB
:100D5000EF92FF920F931F93DF93CF93CDB7DEB740
:100D6000C954D0400FB6F894DEBF0FBECDBF382EA9
:100D7000292EFB012A012A963FAF2EAF2A9784A580
:100D800095A5998B888B5CE8652E52E0752E7F8641
:100D90006E8686A58A8B87A58B8B80A991A9A2A92F
:100DA000B3A98C8B9D8BAE8BBF8B84A995A9A6A96B
:100DB000B7A9888F998FAA8FBB8F80AD91ADA2AD57
:100DC000B3AD8C8F9D8FAE8FBF8F84AD88A3FD9602
:100DD00081919191A191B19189A39AA3ABA3BCA355
:100DE00081919191A191B1918DA39EA3AFA3B8A739
:100DF000808191819AA789A71EA61DA67CA66BA6B5
:100E000018AA82014EE0C42ED12CCC0EDD1E3BE28E
:100E1000A32EB12CAC0EBD1E4E010894811C911C5A
:100E2000C8016FE270E00E944C029C01009779F0CB
:100E3000D8018C918F3209F07DC00F5F1F4FC80120
:100E40006FE270E00E944C029C01009789F7041940
:100E500015092A96EEADFFAD2A9711830083E32D85
:100E6000F22DD60112968D919C91139793838283D4
:100E70007182608214968C911497848315968C915C
:100E80001597858316962D913D914D915C911997FB
:100E900026833783408751871A962D913D914D9136
:100EA0005C911D9722873387448755871E962D9125
:100EB0003D914D915C91519726873787408B518B9F
:100EC00052968C915297828B53962D913D914D91D4
:100ED0005C915697238B348B458B568B57962D916F
:100EE0003D914D915C915A97278B308F418F528F56
:100EF0005B968D919C915C97948F838F832D922D1F
:100F0000C75BDF4F0FB6F894DEBF0FBECDBFCF91EA
:100F1000DF911F910F91FF90EF90DF90CF90BF90E6
:100F2000AF909F908F907F906F905F904F903F9089
:100F30002F900895422F401B4D3008F04CE0E42ED6
:100F4000FF24C401B801A7010E945702F401EE0D6D
:100F5000FF1D1082C5010E94970DC501B601A401B5
:100F600021E00E946D13882349F00E0D1F1DC6015C
:100F70000E94970DC50156016C0152CFE32DF22D51
:100F800013821282718260821582B8CF2F923F92B3
:100F90004F925F926F927F929F92AF92BF92CF9249
:100FA000DF92EF92FF920F931F93DF93CF93CDB712
:100FB000DEB7C657D0400FB6F894DEBF0FBECDBF28
:100FC000A82E992E8A01B22EB3E0CB2ED12CCC0EB6
:100FD000DD1EC6019E012F5F3F4F0E949C06E980E7
:100FE000FA80E00EF11EF7018081882309F4C5C064
:100FF000AFE34A2E512C4C0E5D1EF201118210827D
:10100000FCE86F2EF2E07F2E7EAE6DAEE2E42E2E77
:10101000312C2C0E3D1EF10110828885882309F4A5
:101020008DC08250823008F47CC08E01035C1F4F5B
:10103000C801B601A7012B2D0E946D13882309F466
:101040007DC0C6010E94970DF6E0BF2209F0D9C00D
:1010500070E5C72ED12CCC0EDD1E9E01265A3F4FC7
:10106000F20180819181F901938382837182608290
:10107000FE01EF5BFF4F8081F9018483F1018081E4
:10108000F9018583FE01ED5BFF4F80819181A28193
:10109000B381F90186839783A087B187FE01E95B5D
:1010A000FF4F80819181A281B381F901828793876B
:1010B000A487B587FE01E55BFF4F80819181A28106
:1010C000B381F90186879787A08BB18BFE01E15B25
:1010D000FF4F8081F901828BF60180819181A2818D
:1010E000B381F901838B948BA58BB68BFE01EC5AEF
:1010F000FF4F80819181A281B381F901878B908F0D
:10110000A18FB28FFE01E85AFF4F80819181F901D2
:10111000948F838F8A2D992DB901A7010E940F0604
:1011200011C08E01035C1F4FC8016FEF72E0A70171
:101130002B2D0E946D13882309F086CF8A2D992DBF
:101140000E9413058A2D992DCA58DF4F0FB6F894C7
:10115000DEBF0FBECDBFCF91DF911F910F91FF90EA
:10116000EF90DF90CF90BF90AF909F907F906F9067
:101170005F904F903F902F9008958D819E819BA30B
:101180008AA38CE892E099A388A38F818CA3888599
:101190008DA389859A85AB85BC858EA39FA3A8A7BF
:1011A000B9A78D859E85AF85B8898AA79BA7ACA76F
:1011B000BDA789899A89AB89BC898EA79FA7A8AB4F
:1011C000B9AB8D898AAB8E899F89A88DB98D8BAB80
:1011D0009CABADABBEAB8A8D9B8DAC8DBD8D8FAB0B
:1011E00098AFA9AFBAAF8E8D9F8D9CAF8BAF8A2D74
:1011F000992DBE01605E7F4F4CE552E00E940F06C4
:10120000A1CF60E5C62ED12CCC0EDD1EF6014081AB
:10121000518162817381C8010E947F0C1ECFFC0145
:10122000673020F5262F30E060FF13C08DB58E7F2C
:101230008DBD8CB58C7F8CBD4CB522FD15C090E06A
:1012400036952795822F8170842B892B8CBD81E068
:101250000895663059F38DB581608DBD8CB58C7F56
:101260008CBD4CB522FFEBCF92E0EACF86E18583BF
:1012700080E00895FF920F931F93CF93DF938B012C
:101280000E944722EB01FF24FA94FEBC0DB407FE36
:10129000FDCF8EB58F3F71F00E9447226C1B7D0BF6
:1012A0006017710790F380E0DF91CF911F910F914C
:1012B000FF90089581E0DF91CF911F910F91FF90F2
:1012C0000895FC01848160E00E94CB230895FC0115
:1012D000848161E00E94CB230895DC016EBDFA0198
:1012E00020E030E00DB407FEFDCF80818EBD0DB44F
:1012F00007FEFDCF81818EBD2E5F3F4F329682E08B
:101300002030380779F70DB407FEFDCF8FEF8EBD83
:101310000DB407FEFDCF8FEF8EBD0DB407FEFDCFE0
:101320008FEF8EBD0DB407FEFDCF8EB51A968C9350
:101330001A978F71853049F081E115968C93159736
:10134000CD010E94670980E0089581E00895FF9231
:101350000F931F93CF93DF93EC010E9447228B01E1
:10136000FF24FA94FEBC0DB407FEFDCF8EB58A872C
:101370008F3F99F40E944722601B710B6D527140A0
:1013800088F38FE08D83CE010E94670980E0DF91B2
:10139000CF911F910F91FF9008958E3F19F08DE02E
:1013A0008D83F1CF81E0F3CFCF93DF93EC018E817A
:1013B000882309F18FEF8EBD8F8198859C012F5F67
:1013C0003F4F38872F838150924070F44FEF0DB418
:1013D00007FEFDCF4EBD2F5F3F4FC90101978150E2
:1013E0009240A8F338872F830DB407FEFDCFCE01BE
:1013F0000E9467091E82DF91CF910895DF92EF92DC
:10140000FF920F931F93CF93DF93EC01D62E7901B8
:101410008A010E94D409CE010E946109CE016CE2CA
:1014200071E00E943A098D2D80648EBD0DB407FED7
:10143000FDCF28E130E0D801C701022E04C0B695E7
:10144000A795979587950A94D2F78EBD0DB407FEA0
:10145000FDCF285030408FEF283F380761F7DD205F
:10146000D1F485E98EBD0DB407FEFDCF90E02FEFDE
:101470002EBD0DB407FEFDCF8EB587FD09C08A874E
:10148000DF91CF911F910F91FF90EF90DF90089522
:10149000915071F7F4CF88E0D81611F487E8E2CFC5
:1014A0008FEFE0CFCF92DF92EF92FF920F931F93D7
:1014B000CF93DF93EC017A018B016901411551054E
:1014C0006105710579F482E18D83CE010E9467097F
:1014D00080E0DF91CF911F910F91FF90EF90DF900F
:1014E000CF9008958B85833039F029E0EE0CFF1CF6
:1014F000001F111F2A95D1F7CE0168E1A8019701BD
:101500000E94FE09882319F084E08D83DECFCE018E
:101510006EEFA6010E946D098823B9F2CE0168E53D
:1015200072E00E943A09882319F485E18D83CDCFBA
:10153000CE016DE020E030E040E050E00E94FE0986
:10154000882319F084E18D83C0CF8FEF8EBD0DB459
:1015500007FEFDCF8EB58823A9F7CE010E9467094B
:1015600081E0B7CF8F929F92AF92BF92CF92DF92DE
:10157000EF92FF920F931F93CF93DF93EC015A01E9
:101580006B0149010115110509F47FC0C801820FE3
:10159000931F81509240E0F48E81882309F077C038
:1015A000A882B982CA82DB828B85833039F069E0F8
:1015B000AA0CBB1CCC1CDD1C6A95D1F7CE0161E1E5
:1015C000A60195010E94FE09882399F083E08D838E
:1015D000CE010E94670980E0DF91CF911F910F91AA
:1015E000FF90EF90DF90CF90BF90AF909F908F9043
:1015F0000895CE010E94A709882351F318861F82FF
:1016000081E08E8320E030E08FEF8EBD2815390514
:10161000A8F4C9014FEF0DB407FEFDCF4EBD0196F2
:1016200088159905C0F30894811C911C820E931EA5
:1016300020953095280D391D38872F83D8011197B3
:1016400089F020E030E09FEF0DB407FEFDCF8EB5AE
:10165000F701E20FF31F80839EBD2F5F3F4F2A17D4
:101660003B0790F30DB407FEFDCF8EB5AE0DBF1D49
:101670008C932F813885200F311F38872F838985E0
:101680008823B1F02050324098F481E0A5CF8881C2
:101690009981AA81BB8184179507A607B70709F02E
:1016A0007FCF2F8138858216930608F0ADCF78CF93
:1016B000CE010E94D40981E08FCFEF92FF920F9369
:1016C0001F93790120E030E000E012E00E94B20AAE
:1016D0001F910F91FF90EF900895BF92CF92DF92EC
:1016E000EF92FF920F931F93CF93DF93EC01B62EEF
:1016F0001B8619861E821D824C830E9447226B0125
:101700008C8161E00E940923CE010E94670982E377
:1017100060E00E94092383E361E00E94092384E3DF
:1017200061E00E94092385E361E00E94092385E3CB
:1017300061E00E94CB2383E58CBD8DB58E7F8DBD8E
:1017400080E09FEF9EBD0DB407FEFDCF8F5F8A3016
:10175000C9F7CE010E946109CE0160E020E030E0CF
:1017600040E050E00E94FE09182F8A878130B9F0CE
:101770000E9447226C197D09615D774068F381E022
:101780008D83CE010E94670980E0DF91CF911F9188
:101790000F91FF90EF90DF90CF90BF900895CE0112
:1017A00068E02AEA31E040E050E00E94FE0982FF52
:1017B0001FC01B87EE24FF248701CE0167E320E0D2
:1017C00030E040E050E00E94FE09CE0169E2A8014D
:1017D00097010E94FE098A878823D1F00E94472240
:1017E0006C197D09615D774040F388E08D83C9CF36
:1017F00080E02FEF2EBD0DB407FEFDCF9EB58F5FAD
:101800008430C1F79A879A3A71F082E08D83B9CF1C
:101810008B85823081F0CE010E946709CE016B2D4D
:101820000E940F09B2CF82E08B87E12CF12C012DB1
:10183000F0E41F2FC2CFCE016AE320E030E040E0A9
:1018400050E00E94FE09882319F086E08D8399CF2D
:101850008FEF8EBD0DB407FEFDCF8EB5807C803C32
:1018600059F080E09FEF9EBD0DB407FEFDCF2EB571
:101870008F5F8330C1F7CFCF83E08B87F2CFCF93D9
:10188000DF93EC01DB0180E090E020E2FD01E80F56
:10189000F91F208301968B309105C1F757E040E096
:1018A0003991332331F13E3271F084EE90E0FC0146
:1018B00001962491222361F03217C9F790E0892F15
:1018C000DF91CF9108955A30C9F35AE048E0E8CF4C
:1018D0005417A0F3313290F33F3780F7832F8156AE
:1018E0008A3108F43052FD01E40FF11D30834F5F5F
:1018F000D7CF90E08C91803211F391E0E0CF6F92DE
:101900007F928F929F92AF92BF92CF92DF92EF928F
:10191000FF920F931F93CF93DF93EC015A016B015A
:101920002D81222349F08B899C89AD89BE8984173A
:101930009507A607B70780F480E0DF91CF911F914C
:101940000F91FF90EF90DF90CF90BF90AF909F905E
:101950008F907F906F900895223009F45CC0A1149D
:10196000B104C104D10409F466C02A853B854C85C5
:101970005D85EB8DFC8D858590E00996215030408A
:101980004040504039014A01082E04C09694879483
:10199000779467940A94D2F72F5F3F4F4F4F5F4F72
:1019A0000894A108B108C108D1088601750104C0D6
:1019B00016950795F794E7948A95D2F70894A11C99
:1019C000B11CC11CD11CE614F7040805190548F523
:1019D0008F89988DA98DBA8D8E839F83A887B987AB
:1019E00086E0882E912C8C0E9D1EE114F1040105D9
:1019F000110589F04E815F81688579858B8D9C8D7D
:101A000094010E940D170894E108F10801091109D9
:101A1000882359F791CFAA86BB86CC86DD8681E0E4
:101A20008CCF211531054105510591F2E618F708D3
:101A300008091909D5CF1E821F82188619861A86B1
:101A40001B861C861D8681E078CFCF93DF93EC0147
:101A5000462F6E857F85888999890E94D8148823AE
:101A600089F08A89282F30E0220F331F2295329582
:101A7000307F3227207F3227205E3C4FC901DF9123
:101A8000CF91089520E030E0C901DF91CF91089512
:101A90000F931F93CF93DF93EC018D81882351F037
:101AA0008C8187FD0DC00E947614DF91CF911F912C
:101AB0000F91089580E0DF91CF911F910F910895CC
:101AC000CE0161E00E94250D8C01009799F38D8174
:101AD000823018F18F89988DF801938F828F8F89CA
:101AE000988DA98DBA8DCD01AA27BB27958B848BA4
:101AF000E0911E03F0911F03309759F0B8016A5E20
:101B00007F4FC80148961995F801808D918D938B70
:101B1000828B8C818F778C83C6CF8B899C89AD8992
:101B2000BE89F801848F958FA68FB78FD3CFCF93BF
:101B3000DF93EC010E94480D882311F01D8281E0A3
:101B4000DF91CF9108956F927F928F929F92AF9283
:101B5000BF92CF92DF92EF92FF920F931F93DF938A
:101B6000CF9300D00F92CDB7DEB77C015A016B0145
:101B7000DC0115968C9115978130A1F080E00F90D3
:101B80000F900F900F90CF91DF911F910F91FF90C9
:101B9000EF90DF90CF90BF90AF909F908F907F900D
:101BA0006F90089514968C9181FFE8CFF701838997
:101BB0009489A589B68984179507A607B707F0F217
:101BC0000097A105B10509F45BC0F7016284738435
:101BD00084849584C701B601A5010E947F0C8823E7
:101BE00069F2A114B104C104D10409F44BC0D701B6
:101BF00016964D915D916D917C9119975B968D91A3
:101C00009C915C979E012F5F3F4F0E940D17882388
:101C100009F4B4CFD7015B96ED91FC915C974981B3
:101C20005A816B817C818789803109F458C088EFA3
:101C30009FEFAFEFBFE0481759076A077B07C0F176
:101C4000D7015396AD92BD92CD92DC9256971496E1
:101C50008C911497806814968C93C7010E94480D4C
:101C6000882309F48BCFB601A5016A147B048C0488
:101C70009D0410F4B401A301C7010E947F0C7FCF23
:101C800081E07DCFD70157964D915D916D917C910B
:101C90005A975B968D919C915C970E948717882339
:101CA00009F46CCFF701178A108E118E128EC8CFEF
:101CB000CF010E948717882309F460CFF70146817E
:101CC000578160857185838D948D0FEF1FEF2FEF06
:101CD0003FE00E946E16882309F0B2CF4FCF88EF05
:101CE0009FEFA0E0B0E0A7CF2F923F924F925F927C
:101CF0006F927F928F929F92AF92BF92CF92DF921C
:101D0000EF92FF920F931F93DF93CF9300D00F9228
:101D1000CDB7DEB76C015C834B83DC011596EC918B
:101D20001597EE2321F014968C9180FD1AC04FEF89
:101D30005FEFCA010F900F900F900F90CF91DF913E
:101D40001F910F91FF90EF90DF90CF90BF90AF90D9
:101D50009F908F907F906F905F904F903F902F90CB
:101D60000895D60153966D907D908D909C905697D6
:101D70001A96ED90FD900D911C911D978B819C8181
:101D80009C0140E050E0D401C3018E199F09A00BD3
:101D9000B10B82179307A407B50708F4C6C0AB813F
:101DA000BC81109709F4E4C02B01C60106969A8302
:101DB00089833D01212C52E0352E4FEF842E41E0E6
:101DC000942E8E209F20E23009F498C0D6015B96B5
:101DD000ED91FC915C97D801C70129E0B695A795D4
:101DE000979587952A95D1F7B480BA94B822811433
:101DF0009104A9F4BB2099F4E114F1040105110543
:101E000009F0B9C0D60157962D913D914D915C9145
:101E10005A9716962D933D934D935C931997D6013F
:101E200016964D915D916D917C911997425050405D
:101E300060407040058404C0440F551F661F771F23
:101E40000A94D2F786859785A089B189480F591FD2
:101E50006A1F7B1F4B0D511D611D711D5101A8187B
:101E6000B9086A147B0408F45301F601848186FDE5
:101E700062C0F0E0AF16F2E0BF0609F45CC0CB012F
:101E8000BA0140E00E94D814882309F450CF94018D
:101E9000205E3C4FA9014A0D5B1D2417350759F000
:101EA000D201F90181918D934E175F07D9F7421B3B
:101EB000530B440E551E750100E010E0F6018285BB
:101EC0009385A485B585E80EF91E0A1F1B1FD60150
:101ED0001A96ED92FD920D931C931D976A187B083C
:101EE00009F446C0D6011596EC914FEF842E41E0DF
:101EF000942E8E209F20E23009F068CFB801A70110
:101F000039E076956795579547953A95D1F7D6017B
:101F10005B96ED91FC915C97828D938DA48DB58D30
:101F2000480F591F6A1F7B1F99CFC3018E199F0944
:101F30009C838B8334CF8091640290916502A09141
:101F40006602B0916702481759076A077B0709F4D0
:101F500096CF809120059091210594018501720111
:101F60000E94B20A882309F4E2CE4A0C5B1CA3CF7C
:101F70004B815C81DECED60116964D915D916D91BF
:101F80007C911997CF0129813A810E940D178823EE
:101F900009F4CDCED6015B96ED91FC915C973FCFD5
:101FA000CF92DF92EF92FF920F931F93DF93CF9325
:101FB0000F92CDB7DEB78C01FC018581823068F4C9
:101FC00020E030E0C9010F90CF91DF911F910F9178
:101FD000FF90EF90DF90CF900895C284D384E48483
:101FE000F584C801BE016F5F7F4F41E050E00E9461
:101FF000740E019729F7F80182859385A485B5852C
:102000004F96A11DB11D82879387A487B58775E080
:10201000F694E794D794C7947A95D1F78C2D8F7066
:10202000282F30E0220F331F22953295307F322740
:10203000207F3227205E3C4FC5CF0F931F93CF9355
:10204000DF93EC018B018D81882331F4FB018789BB
:10205000803141F08032F1F180E0DF91CF911F912A
:102060000F91089582E08D831F8A188E198E1A8E23
:10207000808D918DA0E0B0E0880F991FAA1FBB1F33
:10208000880F991FAA1FBB1F880F991FAA1FBB1F6C
:10209000880F991FAA1FBB1F880F991FAA1FBB1F5C
:1020A0008B8B9C8BAD8BBE8B1C8F0B8F81E08C83BD
:1020B0001E821F82188619861A861B861C861D861C
:1020C0001E861F86188A198A1A8ADF91CF911F915E
:1020D0000F91089583E08D83FB01428D538D648DB4
:1020E000758D4F8B588F698F7A8F9E012D5E3F4F74
:1020F000C8010E94E5178823B9F6AECF1F93CF938E
:10210000DF93EC01142FE62FF0E0EE0FFF1FE295B6
:10211000F295F07FFE27E07FFE27E05EFC4F83858F
:10212000817121F0842F827409F044C06A8B809100
:10213000640290916502A0916602B09167028E8759
:102140009F87A88BB98B84899589A0E0B0E0BC01FA
:1021500055274427828D938DA0E0B0E0482B592B62
:102160006A2B7B2B4F8B588F698F7A8F838590E0FA
:10217000887190700097E1F4848D958DA68DB78D50
:102180008B8B9C8BAD8BBE8B81E08D83812F8F7071
:102190008C831E821F82188619861A861B861C86CF
:1021A0001D8616FD18C081E0DF91CF911F91089523
:1021B000409729F080E0DF91CF911F9108959E0113
:1021C0002D5E3F4F8B8D9C8D0E94E517882391F3E8
:1021D00084E08D83DBCFCE0140E050E060E070E032
:1021E0000E94A30DDF91CF911F910895CF93DF93AC
:1021F000EC019C012A5F3F4F8B8D9C8D41E050E0AC
:1022000060E070E00E9455188823A1F08F89988DB6
:10221000A98DBA8D0097A105B10559F48E819F81D2
:10222000A885B9858F8B988FA98FBA8F8C8180688C
:102230008C8381E0DF91CF9108952F923F924F924E
:102240005F926F927F929F92AF92BF92CF92DF92F6
:10225000EF92FF920F931F93DF93CF9300D000D0A4
:10226000CDB7DEB75C01F62EE72E5E834D83DC0131
:1022700015968C911597813019F181E090E0D50188
:1022800013969C938E9312971E821D828D819E8140
:1022900026960FB6F894DEBF0FBECDBFCF91DF916B
:1022A0001F910F91FF90EF90DF90CF90BF90AF9074
:1022B0009F907F906F905F904F903F902F900895E8
:1022C00014968C9181FFD9CF82FD54C1F5014285CE
:1022D000538564857585ED81FE81309709F4C0C012
:1022E0008F2D9E2D9C0119012F01D5015B96ED913B
:1022F000FC915C97DB01CA0119E0B695A79597950B
:1023000087951A95D1F794809A949822AFEF6A2E08
:10231000A1E07A2E64227522992019F561147104C6
:1023200001F5D50116964D915D916D917C911997AE
:10233000411551056105710509F0F1C057962D91C0
:102340003D914D915C915A972115310541055105FB
:1023500009F404C1D50116962D933D934D935C93DA
:10236000199780E092E08619970962018415950516
:1023700008F46C01D5011696ED90FD900D911C911D
:1023800019978EEF9FEFAFEFBFEFE80EF91E0A1F10
:102390001B1F058404C0EE0CFF1C001F111F0A94B4
:1023A000D2F786859785A089B189E80EF91E0A1FA4
:1023B0001B1FE90CF11C011D111D90E0C91692E0D4
:1023C000D90609F46EC06114710479F4F50122850F
:1023D00033854485558583899489A589B6892817CD
:1023E00039074A075B0708F07AC0C801B70141E026
:1023F0000E94D814882309F440CFA301405E5C4FAB
:102400009A012C0D3D1D4217530789F0D101FA01A5
:102410008D9181932E173F07D9F7CA01019641E0AC
:1024200050E0481B590B240F351F220E331E4C1849
:102430005D08C601A0E0B0E0F501428553856485E2
:102440007585480F591F6A1F7B1FD5011A964D933A
:102450005D936D937C931D974114510409F045CF12
:10246000F50183899489A589B68984179507A607FC
:10247000B70708F0A3C0D50153964D935D936D93B4
:102480007C93569714968C911497806814968C932D
:1024900083FFFCCEC5010E94480D882309F4EDCED0
:1024A000F5CE8091640290916502A0916602B09190
:1024B00067028E159F05A007B10721F180912005C5
:1024C00090912105B801A70191010E94520A882329
:1024D00009F4D3CEA0E0B2E02A0E3B1EA8CF0E94A2
:1024E0007614882309F4C9CEE0926402F092650262
:1024F00000936602109367028091220581608093A9
:1025000022057BCF8FEF9FEFAFEFBFEF8093640289
:1025100090936502A0936602B0936702CFCFCF017C
:102520009E012F5F3F4F0E940D17882309F4ACCE08
:1025300029813A814B815C81D5015B96ED91FC91BB
:102540005C9787898031A9F188EF9FEFAFEFBFE0FB
:10255000281739074A075B0708F4FCCEC5010E941B
:10256000F610882309F489CED5015B96ED91FC9194
:102570005C97F7CEF5010389148925893689428550
:10258000538564857585401751076207730709F401
:10259000A2CEC501B901A8010E947F0C882309F4CD
:1025A0006CCED5011A964D915D916D917C911D97E0
:1025B00092CE88EF9FEFA0E0B0E0CACF80911E03DB
:1025C00090911F03892B69F04D815E81452B21F489
:1025D000D50114968C915CCFF50184818068848349
:1025E00057CFF501848154CFDF93CF930F92CDB7AE
:1025F000DEB76983BE016F5F7F4F41E050E00E940C
:102600001D110F90CF91DF910895DF92EF92FF920D
:102610000F931F93CF93DF93EC010E94F610882352
:1026200081F1EB8DFC8D8E819F81A885B9852685F2
:102630003785408951896585D480DD2071F1790124
:102640008A010894E108F108010911090297A1091A
:10265000B10904C0880F991FAA1FBB1F6A95D2F742
:10266000E80EF91E0A1F1B1F02C0DA9499F0C80178
:10267000B7016D0D711D811D911D0E94B414882339
:10268000A1F780E0DF91CF911F910F91FF90EF9024
:10269000DF900895EB8DFC8D658520E032E040E011
:1026A00050E004C0220F331F441F551F6A95D2F714
:1026B0008B899C89AD89BE89820F931FA41FB51F8A
:1026C0008B8B9C8BAD8BBE8B81E0DF91CF911F916B
:1026D0000F91FF90EF90DF9008956F927F928F920D
:1026E0009F92AF92BF92CF92DF92EF92FF920F93A1
:1026F0001F93DF93CF93CDB7DEB72B970FB6F89428
:10270000DEBF0FBECDBF4C016B01A22EDC011596C2
:102710008C918823B1F080E02B960FB6F894DEBF41
:102720000FBECDBFCF91DF911F910F91FF90EF9022
:10273000DF90CF90BF90AF909F908F907F906F90E1
:102740000895CA013E010894611C711CB3010E94E6
:102750003F0C882301F3F601838D948DD4015C96A0
:102760009C938E935B971682178210861186D601F2
:102770001A961D921D921D921C921D97BB24F60164
:10278000E284F3840485158583899489A589B689B3
:10279000E816F9060A071B0708F044C0C6010E94A4
:1027A000D00FFC01009709F4B6CF85E01695079588
:1027B000F794E7948A95D1F71E2D1F7080818823A6
:1027C000A9F0853E99F0C301BF014BE050E00E94A3
:1027D0003F020097A1F68A2D8073803309F49BCFC6
:1027E000C401612F4A2D0E947E1096CFBB2099F420
:1027F000D40152961C935297209164023091650245
:1028000040916602509167021E962D933D934D9321
:102810005C9351978081882319F0BB24B394AFCF88
:10282000BB24B3948A2D8271823109F074CFBB200E
:1028300009F049C0D60115968C91823009F46BCF0E
:10284000C6010E940513882309F465CFF401128A9A
:1028500000E213E080E2D8011D928A95E9F7D801E1
:10286000F3018BE001900D928150E1F7E0911E039E
:10287000F0911F03309781F1B801625F7F4FC8016B
:1028800040961995D80150968D919C9151975396E9
:102890009C938E93529759969C938E9358971E961D
:1028A0008D919C911F9757969C938E9356970E945B
:1028B0007614882309F42FCFC401F40162894A2DCC
:1028C0000E947E1029CFC40161E00E94250D8C0179
:1028D000009709F0BFCF1FCF81E298E2F801918BFA
:1028E000808B80E098E097878687CCCF8091220507
:1028F000882311F481E008954091640250916502AB
:102900006091660270916702809120059091210587
:1029100020E233E00E94520A8823D9F04091230537
:1029200050912405609125057091260541155105AA
:102930006105710521F41092220581E008958091CE
:1029400020059091210520E233E00E94520A88235D
:1029500011F480E00895109223051092240510923E
:10296000250510922605E7CFEF92FF920F931F9354
:102970007B018C010E9476148823A9F0E0E2F3E049
:10298000119285E0E032F807D9F7E0926402F09204
:1029900065020093660210936702809122058160B0
:1029A0008093220581E01F910F91FF90EF90089591
:1029B000DF92EF92FF920F931F937B018C01D42E35
:1029C0008091640290916502A0916602B0916702C5
:1029D0008E159F05A007B107F9F00E947614882391
:1029E00039F480E01F910F91FF90EF90DF900895F0
:1029F0008091200590912105B801A70120E233E0E4
:102A00000E945D0B882369F3E0926402F0926502F4
:102A10000093660210936702809122058D298093AE
:102A2000220581E01F910F91FF90EF90DF900895B4
:102A30004F925F926F927F928F929F92AF92BF92CE
:102A4000CF92DF92EF92FF920F931F93CF93DF937A
:102A50004C01142F7093210560932005442309F441
:102A600052C0453090F080E0DF91CF911F910F91DF
:102A7000FF90EF90DF90CF90BF90AF909F908F909E
:102A80007F906F905F904F90089560E070E080E0DD
:102A900090E040E00E94D814882329F3C12FD0E0B1
:102AA0002197FE01E295F295F07FFE27E07FFE2759
:102AB000E05EFC4FE254FE4F8081EE5BF14090E01F
:102AC0008F779070892B79F6E653FE4F8081918144
:102AD000A281B38184369105A105B10520F2CC0F06
:102AE000DD1FCC0FDD1FCC0FDD1FCC0FDD1FCA514A
:102AF000DB4FA880B980CA80DB80A114B104C10477
:102B0000D10421F4B0CFAA24BB246501C601B501CC
:102B100040E00E94D814882309F4A5CF80912B03AC
:102B200090912C038050924009F09DCF209130036A
:102B3000222309F498CF80912E0390912F03892BA3
:102B400009F491CF80912D03882309F48CCFF401EF
:102B5000228B80912D0384831586282F30E041E05D
:102B600050E0F4010585CA01002E02C0880F991FAC
:102B70000A94E2F72817390739F00F5FF401058747
:102B80000150083070F36FCF209136033091370336
:102B90002115310509F486C040E050E0F401258399
:102BA000368347835087E0902E03F0902F03270150
:102BB000662477244A0C5B1C6C1C7D1C438A548A57
:102BC000658A768A8091310390913203918F808F4C
:102BD0006091300370E080E090E00E94AA24640DD0
:102BE000751D861D971DF401628F738F848F958FDD
:102BF0002091310330913203220F331F22953295F9
:102C0000307F3227207F322721503E4F232F33271A
:102C1000269540E050E0260F371F481F591F268792
:102C20003787408B518B8091330390913403009709
:102C300009F441C0A0E0B0E025013601421A530A70
:102C4000640A750AA3019201280F391F4A1F5B1FEE
:102C500004C056954795379527950A95D2F7F40104
:102C60002187328743875487253FFFE03F07F0E005
:102C70004F07F0E05F0740F1255F3F4F4040504075
:102C800040F180914C0390914D03A0914E03B0917F
:102C90004F03F401828F938FA48FB58F80E2878BCF
:102CA00081E0E2CE209144033091450340914603F8
:102CB0005091470373CF8091400390914103A091BD
:102CC0004203B0914303B8CF8CE0F401878B81E0DD
:102CD000CBCE80E1F401878B81E0C6CE4F925F922C
:102CE0006F927F928F929F92AF92BF92CF92DF921C
:102CF000EF92FF920F931F93CF93DF93EC016A0142
:102D00007B0128013901423051056105710508F444
:102D10005BC089859A85AB85BC850196A11DB11DD7
:102D200084179507A607B70708F44EC02B893C897E
:102D30004D895E89EF89E03109F461C0C701B601B0
:102D400007E096958795779567950A95D1F74B019A
:102D50005C01820E931EA41EB51E809164029091A8
:102D60006502A0916602B091670288169906AA06CC
:102D7000BB06E1F5E03109F447C0F601EF77F070EA
:102D8000EE0FFF1FEE0FFF1FE05EFC4F40825182EF
:102D900062827382809122058160809322058A89F4
:102DA000823080F08D819E81AF81B885880E991E1A
:102DB000AA1EBB1E8092230590922405A092250591
:102DC000B092260581E001C080E0DF91CF911F9194
:102DD0000F91FF90EF90DF90CF90BF90AF909F90BA
:102DE0008F907F906F905F904F900895C501B401D0
:102DF00040E00E94D814882339F3EF89BBCF99278C
:102E00008F2D7E2D6D2DA3CFF601F070EE0FFF1FDD
:102E1000E05EFC4F51824082BDCFCF92DF92EF92B5
:102E2000FF920F931F93CF93DF93EC017A018B01F5
:102E3000690189859A85AB85BC850196A11DB11D67
:102E400084179507A607B70708F441C02B893C896A
:102E50004D895E89EF89E03109F443C0C801B701AB
:102E6000F7E09695879577956795FA95D1F7260FB0
:102E7000371F481F591F8091640290916502A091ED
:102E80006602B0916702281739074A075B0741F0CD
:102E9000CA01B90140E00E94D8148823C1F0EF892B
:102EA000E03121F1F701EF77F070EE0FFF1FEE0F29
:102EB000FF1FE05EFC4F80819181A281B381BF70D2
:102EC000F60180839183A283B38381E001C080E017
:102ED000DF91CF911F910F91FF90EF90DF90CF90F6
:102EE00008959927812F702F6F2DC1CFF701F070B2
:102EF000EE0FFF1FE05EFC4F80819181A0E0B0E00B
:102F0000F60180839183A283B38381E0E1CFAF9206
:102F1000BF92CF92DF92EF92FF920F931F93DF93B6
:102F2000CF9300D00F92CDB7DEB76C017A018B0141
:102F300082E090E0A0E0B0E0F60180839183A2837C
:102F4000B3835E010894A11CB11C09C088EF9FEFF8
:102F5000AFEFBFE0E816F9060A071B0720F5C60128
:102F6000B801A70195010E940D17882361F1C601E0
:102F7000B801A70100E010E020E030E00E946E16EA
:102F8000882309F1E980FA800B811C81F601878989
:102F90008031E1F688EF9FEFA0E0B0E0E816F90697
:102FA0000A071B07E0F281E00F900F900F900F903F
:102FB000CF91DF911F910F91FF90EF90DF90CF9015
:102FC000BF90AF90089580E0EFCF4F925F926F92E5
:102FD0007F928F929F92AF92BF92CF92DF92EF92A9
:102FE000FF920F931F93DF93CF9300D00F92CDB733
:102FF000DEB76C0149835A836B837C832901EE24FD
:10300000FF2487013E010894611C711C812CB2E0F1
:103010009B2EA12CB12C09C088EF9FEFAFEFBFE032
:10302000481759076A077B0728F5C60193010E94D4
:103030000D17882329F1D501C401F601058404C0C8
:10304000880F991FAA1FBB1F0A94D2F7E80EF91E1A
:103050000A1F1B1F49815A816B817C8187898031BE
:10306000D9F688EF9FEFA0E0B0E0481759076A074C
:103070007B07D8F2F201E082F1820283138381E0C0
:103080000F900F900F900F90CF91DF911F910F91A4
:10309000FF90EF90DF90CF90BF90AF909F908F9078
:1030A0007F906F905F904F9008952F923F924F9234
:1030B0005F926F927F928F929F92AF92BF92CF92C8
:1030C000DF92EF92FF920F931F93DF93CF93CDB7D1
:1030D000DEB767970FB6F894DEBF0FBECDBF1C01F9
:1030E0004A875B876C877D873F872E87D9010D9143
:1030F0001D912D913C91011511052105310509F412
:10310000D3C0D901C8010196A11DB11D8C8B9D8B27
:10311000AE8BBF8B1986F10181859285A385B4851D
:103120009C01AD012F5F3F4F4F4F5F4F2D833E837B
:103130004F8358870097A105B10509F49BC0CC883F
:10314000DD88EE88FF888824992454018E010F5F62
:103150001F4F1CC0A70196012F5F3F4F4F4F5F4F7E
:103160002C8B3D8B4E8B5F8B0894811C911CA11C7A
:10317000B11CF10181859285A385B48588169906D5
:10318000AA06BB0608F076C069017A018D819E818E
:10319000AF81B8858C159D05AE05BF0570F492E032
:1031A000492E512C612C712C4C8A5D8A6E8A7F8A43
:1031B00082E0C82ED12CE12CF12CC101B701A6016F
:1031C00098010E940D17882309F454C089819A81BF
:1031D000AB81BC810097A105B10509F0BBCFA70168
:1031E00096012F5F3F4F4F4F5F4FDA01C9014C8867
:1031F0005D886E887F8884199509A609B7094A8475
:103200005B846C847D8484159505A605B70509F05B
:10321000ABCFC101A601B7010FEF1FEF2FEF3FE0CA
:103220000E946E16882331F14C885D886E887F88F5
:103230004C145D046E047F0468F04DC02C893D89F8
:103240004E895F89281539054A055B0508F043C09A
:103250007501640146015701089481089108A1088D
:10326000B108C101B501A401970186010E946E1643
:10327000882321F780E067960FB6F894DEBF0FBE73
:10328000CDBFCF91DF911F910F91FF90EF90DF9015
:10329000CF90BF90AF909F908F907F906F905F90F6
:1032A0004F903F902F900895DC014D905D906D9070
:1032B0007C904C8A5D8A6E8A7F8A19862A853B8536
:1032C0004C855D85213031054105510509F023CF3D
:1032D00031E0398720CFAE85BF854D915D916D91ED
:1032E0007C914115510561057105F1F44C885D88AB
:1032F0006E887F88AE85BF854D925D926D927C927F
:103300001397B985BB2371F02C893D894E895F895C
:103310002F5F3F4F4F4F5F4FD1012D933D934D9303
:103320005C93139781E0A7CFC1010C891D892E8979
:103330003F890E946E168823C9F69CCF08951F927C
:103340000F920FB60F920BB60F9211242F933F934B
:103350004F938F939F93EF93FF938091C00082FDD3
:103360002AC04091C60020916705309168052F5F03
:103370003F4F2F7330708091690590916A0528172F
:10338000390759F0E0916705F0916805E95DFA4F5A
:1033900040833093680520936705FF91EF919F91DB
:1033A0008F914F913F912F910F900BBE0F900FBEB9
:1033B0000F901F9018958091C600EFCF08951F922F
:1033C0000F920FB60F920BB60F9211242F933F93CB
:1033D0004F938F939F93EF93FF938091C80082FD4B
:1033E0002AC04091CE002091EF053091F0052F5F6B
:1033F0003F4F2F7330708091F1059091F20528179F
:10340000390759F0E091EF05F091F005E155FA4FD9
:1034100040833093F0052093EF05FF91EF919F914A
:103420008F914F913F912F910F900BBE0F900FBE38
:103430000F901F9018958091CE00EFCF08951F92A6
:103440000F920FB60F920BB60F9211242F933F934A
:103450004F938F939F93EF93FF938091D00082FDC2
:103460002AC04091D60020917706309178062F5FD0
:103470003F4F2F7330708091790690917A0628170C
:10348000390759F0E0917706F0917806E95CF94F39
:1034900040833093780620937706FF91EF919F91B8
:1034A0008F914F913F912F910F900BBE0F900FBEB8
:1034B0000F901F9018958091D600EFCF08951F921E
:1034C0000F920FB60F920BB60F9211242F933F93CA
:1034D0004F938F939F93EF93FF938091300182FDE1
:1034E0002AC0409136012091FF06309100072F5FDE
:1034F0003F4F2F733070809101079091020728177A
:10350000390759F0E091FF06F0910007E154F94FB7
:103510004083309300072093FF06FF91EF919F9126
:103520008F914F913F912F910F900BBE0F900FBE37
:103530000F901F90189580913601EFCFE0915307BF
:10354000F0915407E05CFF4F81919191208131818E
:10355000821B930B8F739070892BD1F5E0917507C7
:10356000F0917607E05CFF4F81919191208131814C
:10357000821B930B8F739070892B39F5E09197071D
:10358000F0919807E05CFF4F81919191208131810A
:10359000821B930B8F739070892BA1F4E091B90774
:1035A000F091BA07E05CFF4F8191919120813181C8
:1035B000821B930B8F739070892B09F408950E94DE
:1035C0005E1A08950E941E1AE9CF0E94DE19D6CF16
:1035D0000E949E19C3CF1F920F920FB60F920BB687
:1035E0000F9211242F933F938F939F93EF93FF9309
:1035F0002091AB053091AC058091AD059091AE0561
:103600002817390709F1E091AD05F091AE05E559AC
:10361000FA4F20818091AD059091AE0501968F7390
:1036200090709093AE058093AD052093C600FF91F6
:10363000EF919F918F913F912F910F900BBE0F9023
:103640000FBE0F901F9018958091C1008F7D8093C1
:10365000C100EDCF1F920F920FB60F920BB60F92D3
:1036600011242F933F938F939F93EF93FF93209178
:10367000330630913406809135069091360628172E
:10368000390709F1E0913506F0913606ED50FA4F11
:103690002081809135069091360601968F73907047
:1036A00090933606809335062093CE00FF91EF91DC
:1036B0009F918F913F912F910F900BBE0F900FBE56
:1036C0000F901F9018958091C9008F7D8093C9003D
:1036D000EDCF1F920F920FB60F920BB60F921124DF
:1036E0002F933F938F939F93EF93FF932091BB066C
:1036F0003091BC068091BD069091BE06281739070F
:1037000009F1E091BD06F091BE06E558F94F208120
:103710008091BD069091BE0601968F739070909334
:10372000BE068093BD062093D600FF91EF919F9136
:103730008F913F912F910F900BBE0F900FBE0F9066
:103740001F9018958091D1008F7D8093D100EDCF8F
:103750001F920F920FB60F920BB60F9211242F9358
:103760003F938F939F93EF93FF9320914307309163
:10377000440780914507909146072817390709F1BA
:10378000E0914507F0914607ED5FF84F2081809169
:1037900045079091460701968F7390709093460766
:1037A0008093450720933601FF91EF919F918F9170
:1037B0003F912F910F900BBE0F900FBE0F901F9057
:1037C0001895809131018F7D80933101EDCFDF928B
:1037D000EF92FF920F931F93CF93DF93EC017A0147
:1037E0008B01DD24403081EE580780E0680780E0DF
:1037F000780721F1DD24D394EC89FD8981E090E004
:1038000008A002C0880F991F0A94E2F7808360E045
:1038100079E08DE390E0A80197010E94C92421502E
:10382000304040405040569547953795279580E168
:1038300020303807D0F0DD20C1F0DD24EC89FD898F
:10384000108260E874E88EE190E0A80197010E9480
:10385000C9242150304040405040569547953795F7
:10386000279580E12030380730F7E889F9893083DF
:10387000EA89FB89208319A2EE89FF89408121E032
:1038800030E0C9010C8C02C0880F991F0A94E2F73E
:10389000482B4083EE89FF894081C9010D8C02C00D
:1038A000880F991F0A94E2F7482B4083EE89FF891D
:1038B0004081C9010E8C02C0880F991F0A94E2F75B
:1038C000482B4083EE89FF8980810F8C02C0220F34
:1038D000331F0A94E2F7209528232083DF91CF91AC
:1038E0001F910F91FF90EF90DF900895DC011C96DF
:1038F000ED91FC911D97E05CFF4F2191319180810A
:103900009181281B390B2F733070C9010895DC0198
:103910001C96ED91FC911D97E05CFF4F2081318159
:10392000E054F040DF01AE5BBF4F8D919C91119749
:103930002817390749F08D919C91E80FF91F808174
:10394000282F30E0C90108952FEF3FEFC9010895F6
:10395000DC011C96ED91FC911D97E05CFF4F2081EE
:103960003181E054F040DF01AE5BBF4F8D919C91FF
:1039700011972817390791F08D919C911197E80FB5
:10398000F91F20818D919C91119701968F739070F2
:1039900011969C938E9330E0C90108952FEF3FEF6D
:1039A000C9010895FC0181A1882311F411A2089591
:1039B000A489B5898C9186FFFDCF11A20895CF937C
:1039C000DF93EC01AE85BF85AD01405C5F4FFA012E
:1039D000208131812F5F3F4F2F733070FD01EE5BEF
:1039E000FF4F8081918128173907D9F3FA0180812F
:1039F0009181A80FB91F6C93EE85FF85E05CFF4FA6
:103A000031832083EE89FF89208181E090E00F8C53
:103A100002C0880F991F0A94E2F7282B208381E0C7
:103A200089A3EC89FD8980818064808381E090E0B6
:103A3000DF91CF9108951F9310924A071092490782
:103A400028EE33E040E050E020934B0730934C07E2
:103A500040934D0750934E0764E972E07093480716
:103A60006093470787E295E090935407809353074C
:103A70008BE695E0909356078093550785EC90E090
:103A8000909358078093570784EC90E090935A07DF
:103A90008093590780EC90E090935C0780935B07DC
:103AA00081EC90E090935E0780935D0782EC90E05C
:103AB0009093600780935F0786EC90E09093620795
:103AC0008093610714E010936307B3E0B093640739
:103AD000A7E0A0936507F5E0F0936607E1E0E093C7
:103AE000670710926C0710926B0720936D07309355
:103AF0006E0740936F075093700770936A07609347
:103B000069078FEA95E0909376078093750783EFB6
:103B100095E090937807809377078DEC90E09093F1
:103B20007A07809379078CEC90E090937C078093E0
:103B30007B0788EC90E090937E0780937D0789EC6B
:103B400090E09093800780937F078AEC90E09093B9
:103B50008207809381078EEC90E090938407809396
:103B6000830710938507B0938607A0938707F09388
:103B70008807E093890710928E0710928D07209393
:103B80008F0730939007409391075093920770935B
:103B90008C0760938B0787E396E090939807809358
:103BA00097078BE796E090939A078093990785EDA6
:103BB00090E090939C0780939B0784ED90E0909316
:103BC0009E0780939D0780ED90E09093A0078093DF
:103BD0009F0781ED90E09093A2078093A10782ED6B
:103BE00090E09093A4078093A30786ED90E09093D4
:103BF000A6078093A5071093A707B093A807A093E3
:103C0000A907F093AA07E093AB071092B0071092B0
:103C1000AF072093B1073093B2074093B307509397
:103C2000B4077093AE076093AD078FEB96E0909367
:103C3000BA078093B90783E097E09093BC0780931D
:103C4000BB0785E391E09093BE078093BD0784E3B3
:103C500091E09093C0078093BF0780E391E0909339
:103C6000C2078093C10781E391E09093C4078093DA
:103C7000C30782E391E09093C6078093C50786E36C
:103C800091E09093C8078093C7071093C907B0933A
:103C9000CA07A093CB07F093CC07E093CD071F9101
:103CA00008950E94A7220E94E0040E9406048EE963
:103CB0009AE1892B29F00E949E1A0E940604FBCFEC
:103CC0000E9406040E940604FBCF0E94E7010895AB
:103CD000CF92DF92EF92FF920F931F93CF93DF93D8
:103CE0007C016B01EA0141155105D9F000E010E0BB
:103CF000D6016D916D01D701ED91FC910190F0819C
:103D0000E02DC7011995080F191F219789F7C801E0
:103D1000DF91CF911F910F91FF90EF90DF90CF90A7
:103D2000089500E010E0F3CFEF92FF920F931F93FE
:103D30008C01DC01ED91FC910190F081E02D6DE0B2
:103D400019957C01D801ED91FC910190F081E02D55
:103D5000C8016AE019959C012E0D3F1DC9011F91F4
:103D60000F91FF90EF9008954F925F927F928F9204
:103D70009F92AF92BF92CF92DF92EF92FF920F93FA
:103D80001F93DF93CF93CDB7DEB7A1970FB6F8940B
:103D9000DEBF0FBECDBF2C01742ECB01223008F444
:103DA00060C0822E9924AA24BB2419A221E2C22E2B
:103DB000D12CCC0EDD1E0BC0405DF6014083E1141A
:103DC000F1040105110501F17E2C5F2DC801672D5D
:103DD000752FA50194010E94C92479018A01C801A7
:103DE000B701A50194010E94AA24472D461B0894FF
:103DF000C108D1084A3004F3495CF6014083E1145C
:103E0000F1040105110501F7C114D10481F1D601B6
:103E10000D900020E9F71197AC19BD09F2018081DE
:103E20009181FC0122813381C201B601AD01F9010A
:103E300019959C01C901A1960FB6F894DEBF0FBE7B
:103E4000CDBFCF91DF911F910F91FF90EF90DF9049
:103E5000CF90BF90AF909F908F907F905F904F904A
:103E600008953AE0832E912CA12CB12C9ECF20E016
:103E700030E0E0CFCF92DF92EF92FF920F931F934B
:103E8000CF93DF93EC016A017B0121153105B9F075
:103E90002A30310539F477FD1BC02AE00E94B41E98
:103EA0009C0103C00E94B41E9C01C901DF91CF9107
:103EB0001F910F91FF90EF90DF90CF900895E881D0
:103EC000F9810190F081E02D642F19959C01EDCFCF
:103ED000E881F9810190F081E02D6DE219958C0166
:103EE00044275527BA014C195D096E097F09CE0197
:103EF0002AE00E94B41E9801280F391FD6CFEF92F6
:103F0000FF920F931F937B019A010027F7FC009506
:103F1000102FB801A7010E943A1F1F910F91FF9027
:103F2000EF900895CF92DF92EF92FF920F931F933D
:103F30006C017B019A010027F7FC0095102FB80156
:103F4000A7010E943A1F8C01C6010E94941E080F0F
:103F5000191FC8011F910F91FF90EF90DF90CF9034
:103F60000895CF93DF93EC016115710599F0DB01A2
:103F70000D900020E9F71197A61BB70BE881F98196
:103F80000280F381E02DAD0119959C01C901DF91FB
:103F9000CF91089520E030E0C901DF91CF910895DD
:103FA0000F931F93CF93DF93EC0161157105D9F047
:103FB000DB010D900020E9F71197A61BB70BE881F4
:103FC000F9810280F381E02DAD0119958C01CE01BC
:103FD0000E94941E9801280F391FC901DF91CF91CB
:103FE0001F910F91089500E010E0F1CF883098F50F
:103FF000E82FF0E0EE0FFF1FE153F84F718360836D
:104000008330B1F1843040F1853009F44BC0853004
:1040100070F48091690042955295507F5427407FFB
:1040200054278F7C842B80936900EA9A0895863008
:1040300059F1873081F480916A00002456954795A4
:104040000794569547950794542F402D8F73842BD2
:1040500080936A00EF9A08958130E9F1823098F1F7
:10406000809169008C7F842B80936900E89A089581
:1040700080916900440F551F440F551F837F842B87
:1040800080936900E99A089580916A00429552955B
:10409000507F5427407F54278F7C842B80936A0065
:1040A000EE9A0895809169000024569547950794EB
:1040B000569547950794542F402D8F73842B8093EA
:1040C0006900EB9A089580916A008C7F842B80931D
:1040D0006A00EC9A089580916A00440F551F440FBE
:1040E000551F837F842B80936A00ED9A08951F9259
:1040F0000F920FB60F920BB60F9211242F933F938E
:104100004F935F936F937F938F939F93AF93BF93DF
:10411000EF93FF938091D3079091D407892B29F0D7
:10412000E091D307F091D4071995FF91EF91BF91DA
:10413000AF919F918F917F916F915F914F913F913F
:104140002F910F900BBE0F900FBE0F901F901895E0
:104150001F920F920FB60F920BB60F9211242F934E
:104160003F934F935F936F937F938F939F93AF93FF
:10417000BF93EF93FF938091D5079091D607892B3A
:1041800029F0E091D507F091D6071995FF91EF91AD
:10419000BF91AF919F918F917F916F915F914F915F
:1041A0003F912F910F900BBE0F900FBE0F901F905D
:1041B00018951F920F920FB60F920BB60F92112403
:1041C0002F933F934F935F936F937F938F939F931F
:1041D000AF93BF93EF93FF938091D7079091D80748
:1041E000892B29F0E091D707F091D8071995FF9115
:1041F000EF91BF91AF919F918F917F916F915F915F
:104200004F913F912F910F900BBE0F900FBE0F90CB
:104210001F9018951F920F920FB60F920BB60F9228
:1042200011242F933F934F935F936F937F938F93BB
:104230009F93AF93BF93EF93FF938091D907909192
:10424000DA07892B29F0E091D907F091DA0719955F
:10425000FF91EF91BF91AF919F918F917F916F915E
:104260005F914F913F912F910F900BBE0F900FBE1A
:104270000F901F9018951F920F920FB60F920BB6CA
:104280000F9211242F933F934F935F936F937F93DC
:104290008F939F93AF93BF93EF93FF938091CF073B
:1042A0009091D007892B29F0E091CF07F091D007AA
:1042B0001995FF91EF91BF91AF919F918F917F9150
:1042C0006F915F914F913F912F910F900BBE0F9087
:1042D0000FBE0F901F9018951F920F920FB60F925E
:1042E0000BB60F9211242F933F934F935F936F93CD
:1042F0007F938F939F93AF93BF93EF93FF9380919F
:10430000D1079091D207892B29F0E091D107F09144
:10431000D2071995FF91EF91BF91AF919F918F9126
:104320007F916F915F914F913F912F910F900BBEB5
:104330000F900FBE0F901F9018951F920F920FB6FF
:104340000F920BB60F9211242F933F934F935F93CD
:104350006F937F938F939F93AF93BF93EF93FF934D
:104360008091DB079091DC07892B29F0E091DB0736
:10437000F091DC071995FF91EF91BF91AF919F915B
:104380008F917F916F915F914F913F912F910F90FE
:104390000BBE0F900FBE0F901F9018951F920F929B
:1043A0000FB60F920BB60F9211242F933F934F939A
:1043B0005F936F937F938F939F93AF93BF93EF938D
:1043C000FF938091DD079091DE07892B29F0E09122
:1043D000DD07F091DE071995FF91EF91BF91AF9145
:1043E0009F918F917F916F915F914F913F912F910D
:1043F0000F900BBE0F900FBE0F901F9018951F923D
:104400000F920FB60F9211242F933F938F939F9388
:10441000AF93BF938091E3079091E407A091E507E4
:10442000B091E6073091E7070196A11DB11D232F3A
:104430002D5F2D3720F02D570196A11DB11D209322
:10444000E7078093E3079093E407A093E507B09311
:10445000E6078091DF079091E007A091E107B09116
:10446000E2070196A11DB11D8093DF079093E0073D
:10447000A093E107B093E207BF91AF919F918F9115
:104480003F912F910F900FBE0F901F9018958FB7EF
:10449000F8942091E3073091E4074091E5075091AB
:1044A000E6078FBFB901CA0108959FB7F89420911C
:1044B000DF073091E0074091E1075091E20786B5B0
:1044C000A89B06C08F3F21F02F5F3F4F4F4F5F4F9C
:1044D0009FBF542F432F322F2227280F311D411DFC
:1044E000511D220F331F441F551F220F331F441F1E
:1044F000551FB901CA010895EF92FF920F931F93C0
:10450000CF93DF937B018C010E945522E114F104CB
:1045100001051105A9F0EB010E9455226C1B7D0BD2
:10452000685E7340C8F30894E108F10801091109B5
:10453000E114F1040105110519F0C851DC4FECCF6D
:10454000DF91CF911F910F91FF90EF900895789494
:1045500084B5826084BD84B5816084BD85B5826088
:1045600085BD85B5816085BDEEE6F0E08081816026
:104570008083E1E8F0E01082808182608083808126
:1045800081608083E0E8F0E0808181608083E1EBFE
:10459000F0E0808184608083E0EBF0E080818160E6
:1045A0008083E1E9F0E080818260808380818160A6
:1045B0008083E0E9F0E0808181608083E1EAF0E0DF
:1045C000808182608083808181608083E0EAF0E086
:1045D000808181608083E1E2F1E08081826080837C
:1045E000808181608083E0E2F1E08081816080836E
:1045F000EAE7F0E08081846080838081826080834C
:104600008081816080838081806880831092C10076
:104610000895CF93DF93482F50E0CA0188579E4FEB
:10462000FC0134914E5B5E4FFA0184918823B9F00E
:1046300090E0880F991FFC01EC50FF4FA591B491B9
:10464000FC01E25FFE4FC591D491662359F06230C0
:10465000B9F09FB7F8948C91832B8C939FBFDF9117
:10466000CF9108952FB7F8948C91932F909589232B
:104670008C938881892388832FBFDF91CF91089500
:104680002FB7F8948C91932F909589238C938881E0
:10469000832B88832FBFE3CF893009F45EC08A3033
:1046A00070F08D3009F45FC08E30D0F0803109F4A5
:1046B0006CC0813109F463C08F30C9F10895843032
:1046C00009F445C08530B8F08730B9F1883048F535
:1046D0008630A1F78091B0008F778093B000089565
:1046E0008B3009F446C08C30B0F08091A0008F7DF3
:1046F0008093A0000895823031F1833030F481300E
:10470000E9F684B58F7784BD0895809180008F7716
:1047100080938000089580919000877F809390001F
:104720000895809190008F778093900008958091F4
:1047300020018F778093200108958091B0008F7DB4
:104740008093B000089584B58F7D84BD08958091D5
:1047500080008F7D809380000895809190008F7DF0
:104760008093900008958091A000877F8093A0009F
:1047700008958091A0008F778093A0000895809184
:104780002001877F809320010895809120018F7DF3
:10479000809320010895FF920F931F93F62E482FC8
:1047A00050E0CA0182539E4FFC012491CA018857F0
:1047B0009E4FFC0104914E5B5E4FFA011491112350
:1047C00099F02223D1F4E12FF0E0EE0FFF1FE25F1A
:1047D000FE4FA591B4919FB7F894FF2049F48C91B6
:1047E000009580238C939FBF1F910F91FF90089598
:1047F0008C91802B8C939FBFF7CF822F0E944C23EC
:10480000E2CF8F929F92AF92BF92CF92DF92EF92C0
:10481000FF920F931F93CF93DF93A82FB0E0CD01AA
:1048200088579E4FFC018490AE5BBE4FFD01849182
:10483000662309F03BC099246FEFE62E6FEFF62E4A
:104840006FEF062F6FE0162FE222F32204231523C9
:10485000682F70E0660F771F685D7E4F20E030E0C4
:1048600040E050E0FB01A591B49104C02F5F3F4FA1
:104870004F4F5F4F8C9188219816D1F42E153F052C
:104880004007510799F720E030E040E050E0B901DF
:10489000CA01DF91CF911F910F91FF90EF90DF90B0
:1048A000CF90BF90AF909F908F900895982CC4CFD9
:1048B000FB01A591B49104C02F5F3F4F4F4F5F4F55
:1048C0008C918821981631F02E153F05400751072D
:1048D00099F7D9CF8C9188219816B9F5E216F3068D
:1048E0000407150781F2AA24BB246501FB01C591C9
:1048F000D4910CC0D601C501820F931FA41FB51F10
:10490000E816F9060A071B0709F4BDCF0894A11C95
:10491000B11CC11CD11C88818821981659F3C6018D
:10492000B50125E130E040E050E00E94AA249B015F
:10493000AC01205F3F4F4F4F5F4F84E05695479546
:10494000379527958A95D1F7A2CF21E030E040E056
:1049500050E09DCF629FD001739FF001829FE00DD8
:10496000F11D649FE00DF11D929FF00D839FF00DEE
:10497000749FF00D659FF00D9927729FB00DE11D9A
:10498000F91F639FB00DE11DF91FBD01CF01112477
:104990000895A1E21A2EAA1BBB1BFD010DC0AA1F80
:1049A000BB1FEE1FFF1FA217B307E407F50720F098
:1049B000A21BB30BE40BF50B661F771F881F991F13
:1049C0001A9469F760957095809590959B01AC015C
:1049D000BD01CF010895EE0FFF1F0590F491E02D6A
:1049E000199412E0CAE1D2E004C0FE010E94ED2455
:0C49F0002296CC31D107C9F7F894FFCF14
:1049FC005665726D656C686F203D20000900566528
:104A0C00726465203D2000417A756C203D20006C5D
:104A1C006F672E637376003B0043617274E36F53D0
:104A2C00442070726F6E746F2070617261207573A8
:104A3C006F0046616C686120616F20696E69636903
:104A4C00612063617274E36F205344002F002000D7
:104A5C00EC070000FFFFFFFF0000000066027F0371
:104A6C000000000088038E03000000002C05F205F6
:104A7C0044059405B6058C0500000000F412681E70
:104A8C0000000000DF1C681E761CA81C871CD21CB2
:00000001FF
