:100000000C940E010C943B010C943B010C943B01AD
:100010000C943B010C943B010C943B010C943B0170
:100020000C943B010C943B010C943B010C943B0160
:100030000C943B010C943B010C943B010C943B0150
:100040000C943B010C943B010C943B010C943B0140
:100050000C943B010C943B010C943B010C94BC1F91
:100060000C943B010C9465190C94B11A0C943B014F
:100070000C943B010C943B010C943B010C943B0110
:100080000C943B010C943B010C943B010C943B0100
:100090000C94A5190C94F01A0C943B010C943B01A0
:1000A0000C943B010C943B010C943B010C943B01E0
:1000B0000C943B010C943B010C943B010C943B01D0
:1000C0000C943B010C943B010C943B010C94E519FE
:1000D0000C942F1B0C943B010C94251A0C946E1B52
:1000E0000C943B017C3C3E5E2B3D3F2F5B5D3B2CEB
:1000F0002A225C0000002100240027002A002D0095
:100100003000330001010000040107010A01000072
:100110002200250028002B002E00310034000201AF
:100120000000050108010B0100002000230026004B
:1001300029002C002F0032000001000003010601FD
:10014000090105050505070508080808020202025D
:100150000A0A080804040404010101010101010163
:100160000303030303030303040707070C0C0C0C2E
:100170000C0C0C0C02020202060606060606060617
:100180000B0B0B0B0B0B0B0B0102102020080810A4
:1001900020401020408002010201080402010102F7
:1001A00004081020408080402010080402018004D0
:1001B000020180402010080402010804020101022B
:1001C0000408102040800102040810204080000034
:1001D000090A02080B0C0D070603040100000000C9
:1001E000000000000000000000000000000000000F
:1001F0000000000000000000000011100F000000CF
:1002000000000000000000000000000000000000EE
:1002100000000000CE030E06E11CC70311241FBE20
:10022000CFEFD1E2DEBFCDBF00E00CBF12E0A0E017
:10023000B2E0E6E7F5E400E00BBF02C007900D92E4
:10024000A839B107D9F71BBE17E0A8E9B2E001C091
:100250001D92AE3CB107E1F712E0CAE1D2E004C062
:100260002297FE010E94AA22C431D107C9F70E9439
:10027000171E0C94AE220C940000CF93DF93BC01A8
:100280008230910510F462E070E0A091CC07B0914B
:10029000CD07ED01E0E0F0E040E050E021C08881D2
:1002A00099818617970769F48A819B81309719F0A5
:1002B0009383828304C09093CD078093CC07FE0183
:1002C00034C06817790738F44115510519F08417BF
:1002D000950708F4AC01FE018A819B819C01E9012C
:1002E0002097E9F641155105A9F1CA01861B970B24
:1002F000049708F4BA01E0E0F0E02AC08D919C91E7
:10030000119784179507F9F46417750781F412960D
:100310008D919C911397309719F09383828304C039
:100320009093CD078093CC07FD0132964CC0CA0153
:10033000861B970BFD01E80FF91F619371930297DC
:100340008D939C9340C0FD01828193819C01D901D2
:100350001097A1F68091CA079091CB07892B41F4A1
:1003600080916002909161029093CB078093CA07BD
:1003700040916202509163024115510541F44DB71D
:100380005EB780915E0290915F02481B590B2091ED
:10039000CA073091CB07CA01821B930B86179707B8
:1003A00080F0AB014E5F5F4F8417950750F0420F0E
:1003B000531F5093CB074093CA07F9016193719380
:1003C00002C0E0E0F0E0CF01DF91CF910895CF933C
:1003D000DF93009709F450C0EC0122971B821A8228
:1003E000A091CC07B091CD07109709F140E050E003
:1003F000AC17BD0708F1BB83AA83FE01219131919F
:10040000E20FF31FAE17BF0779F48D919C911197FE
:10041000280F391F2E5F3F4F3983288312968D9105
:100420009C9113979B838A834115510571F4D09356
:10043000CD07C093CC0720C012968D919C91139745
:10044000AD01009711F0DC01D3CFFA01D383C28351
:1004500021913191E20FF31FCE17DF0769F48881F4
:100460009981280F391F2E5F3F4FFA013183208376
:100470008A819B8193838283DF91CF910895FB01D1
:10048000DC0104C08D910190801921F4415050404D
:10049000C8F7881B990B0895FC018191861721F0FC
:1004A0008823D9F7992708953197CF010895FB0143
:1004B000DC014150504048F001900D920020C9F7F6
:1004C00001C01D9241505040E0F70895FC018CE6B8
:1004D00092E09183808308950F931F93CF93DF93CE
:1004E0008C01EB01FC01828160E00E948821F8010F
:1004F000848160E00E948821C431D105E9F0C436CE
:10050000D105B1F0229729F0DF91CF911F910F9182
:100510000895F801828160E00E948821F8018481B9
:1005200061E00E948821DF91CF911F910F91089582
:10053000F801828161E0F0CFF801828161E00E94E0
:100540008821F801848160E00E948821DF91CF91A9
:100550001F910F910895FC01662329F4848561E0C1
:100560000E9488210895848560E00E948821089572
:100570000F931F938C01FC01868160E00E9488210B
:10058000F801808561E00E948821F801828560E0A1
:1005900020E432E44FE050E00E94BE21F801628B7B
:1005A000738BCB011F910F9108950F931F938C01B3
:1005B000FC01868161E00E948821F801808561E06C
:1005C0000E948821F801828560E020E432E44FE057
:1005D00050E00E94BE21F801608B718BCB011F910E
:1005E0000F9108950F931F938C01FC01868160E0A9
:1005F0000E948821F801808560E00E948821F8012E
:10060000828560E020E432E44FE050E00E94BE21A9
:10061000F80166877787CB011F910F910895FC0140
:10062000862F6287738760E00E94C6200895FC01D0
:10063000862F6087718761E00E94C6200895FC01C3
:10064000862F6683778361E00E94C6200895FC01AF
:10065000862F6483758361E00E94C6200895FC01A3
:10066000862F6283738361E00E94C6200895FC0197
:10067000862F6487758761E00E94C62008954F9297
:100680005F926F927F928F929F92AF92BF92CF9222
:10069000DF92EF92FF920F931F934C013A012901D1
:1006A0008CE692E0F40191838083C4010E943703B9
:1006B000C401B3010E942F03C401B2010E942703A9
:1006C000C401B8010E941F03C401B7010E941703AF
:1006D000C401B6010E940F03C401B5010E946C025F
:1006E0001F910F91FF90EF90DF90CF90BF90AF9050
:1006F0009F908F907F906F905F904F900895FC0136
:100700008CE692E091838083CF010E942B1E089596
:10071000AF92BF92CF92DF92EF92FF920F931F930F
:100720008130910571F0892B19F46F5F7F4F31F1A2
:100730001F910F91FF90EF90DF90CF90BF90AF90FF
:1007400008956F5F7F4FA1F788E992E00E94D90476
:1007500083EB92E061E370E042E350E023E330E0BA
:1007600004E310E0A5E3EA2EF12CF0E3CF2ED12C28
:10077000E4E6AE2EB12C0E943F03DACF83EB92E089
:100780000E94660288E992E00E94EC04D1CF80E0EA
:1007900090E06FEF7FEF0E948803089581E090E082
:1007A0006FEF7FEF0E9488030895AF92BF92CF92C0
:1007B000DF92EF92FF920F931F93DF93CF93CDB70A
:1007C000DEB76B970FB6F894DEBF0FBECDBF89E3DF
:1007D00097E060E072E00E94771F83EB92E00E9456
:1007E000F202B82EA92E89E397E06B2D7A2D4AE00C
:1007F00050E00E94451F89E397E06CE072E00E94A0
:10080000771F89E397E06EE072E00E94771F83EB29
:1008100092E00E94D502D82EC92E89E397E06D2D73
:100820007C2D4AE050E00E94451F89E397E06CE090
:1008300072E00E94771F89E397E067E172E00E940F
:10084000771F83EB92E00E94B802F82EE92E89E32D
:1008500097E06F2D7E2D4AE050E00E94581F8E01D8
:100860000F5F1F4FC80167EC72E04FE152E023E1D8
:100870000E948C078B819C8190939B0280939A02AB
:100880008D819E81AF81B88580939C0290939D025B
:10089000A0939E02B0939F0289859A85AB85BC8503
:1008A0008093A0029093A102A093A202B093A3020E
:1008B000A4EAB2E0FE013D968DE001900D928150D8
:1008C000E1F78A8D9B8D9093B2028093B102C801AB
:1008D0000E94EC0488E992E00E943105882321F10E
:1008E00088E992E06B2D7A2D4AE050E00E94451F86
:1008F00088E992E067E272E00E94771F88E992E05F
:100900006D2D7C2D4AE050E00E94451F88E992E061
:1009100067E272E00E94771F88E992E06F2D7E2DDA
:100920004AE050E00E94581F88E992E00E9440058A
:1009300060ED77E080E090E00E9439206B960FB682
:10094000F894DEBF0FBECDBFCF91DF911F910F9105
:10095000FF90EF90DF90CF90BF90AF90089589E324
:1009600097E040E855E260E070E00E94AD1B83EB49
:1009700092E061E00E94AB028EE161E00E94C6203D
:1009800084E160E00E94C62087EC92E064E00E946F
:100990003106882339F489E397E062E472E00E942B
:1009A000961F089589E397E069E272E00E94961F1E
:1009B0000895FC011382128288EE93E0A0E0B0E07B
:1009C00084839583A683B78384E792E091838083B1
:1009D000128E118E14860895FC0184E792E09183B3
:1009E00080830895DF93CF930F92CDB7DEB7FC01DC
:1009F0006983A081B18112962D913C911397BE011C
:100A00006F5F7F4F41E050E0F90119950F90CF9152
:100A1000DF910895DC015996ED91FC915A9730973A
:100A2000E1F0238934894589568982859385A48597
:100A3000B585281B390B4A0B5B0B2030B0E83B0710
:100A4000B0E04B07B0E05B0710F4C90108952FEF49
:100A50003FE740E050E0C901089520E030E0C901DF
:100A60000895DC015996ED91FC915A97309731F039
:100A70008581882309F4089581E0089580E0089530
:100A8000CF93DF93EC01898D9A8D009741F00E94FE
:100A90005D0D898D9A8D0E94E7011A8E198EDF9166
:100AA000CF910895FC01818D928D009711F00E94E5
:100AB0000E0D0895DF93CF930F92CDB7DEB7FC01F3
:100AC000818D928D009749F0BE016F5F7F4F41E0AD
:100AD00050E00E943A0E019739F02FEF3FEFC90125
:100AE0000F90CF91DF9108958981282F30E0C901BF
:100AF0000F90CF91DF910895EF92FF920F931F9384
:100B0000DF93CF930F92CDB7DEB77C01DC0159960E
:100B10008D919C915A970097A1F0BE016F5F7F4F16
:100B200041E050E00E943A0E019771F00FEF1FEF85
:100B3000C8010F90CF91DF911F910F91FF90EF901F
:100B4000089500E010E0F4CF8981082F10E0D7016C
:100B50005996ED91FC915A97428553856485758528
:100B60004150504060407040CF010E94450CE0CFA2
:100B7000CF93DF93EC01E98DFA8D309761F013820A
:100B80001282CF010E94E3109C01E98DFA8D8281CF
:100B90009381892B31F081E090E09B838A8320E070
:100BA00030E0C901DF91CF910895EF92FF920F934A
:100BB0001F93CF93DF93EC01162F072F7A011B822F
:100BC0001A8288EE93E0A0E0B0E08C839D83AE8330
:100BD000BF8384E792E0998388838DE190E00E944F
:100BE0003D019A8F898F009791F0DC01812F902F22
:100BF0009C01F9018DE101900D928150E1F7CE0148
:100C00000C96B7014CE050E00E945702188EDF911D
:100C1000CF911F910F91FF90EF9008951092CC0209
:100C20001092CD021092D0021092D20282E090E097
:100C3000A0E0B0E08093D3029093D402A093D502B9
:100C4000B093D6021092EA021092F4021092F302CC
:100C500084E892E09093F2028093F1021092F602FF
:100C600008950F931F93CF93DF93EC01462F61E01C
:100C70000E94330B882339F490E0892FDF91CF91C4
:100C80001F910F9108958E01045F1F4FC801BE018F
:100C900041E00E94DE14882359F0CE018A96B80103
:100CA0000E94E30F90E0882359F081E09827E5CF78
:100CB000C801BE0140E00E94DE148823E9F2EDCFB6
:100CC00091E0F3CF2F923F924F925F926F927F927B
:100CD0008F929F92AF92BF92CF92DF92EF92FF924C
:100CE0000F931F93DF93CF93CDB7DEB7C954D04096
:100CF0000FB6F894DEBF0FBECDBF382E292EFB01F4
:100D00002A012A963FAF2EAF2A9784A595A5998BE5
:100D1000888B54E8652E52E0752E7F866E8686A5F8
:100D20008A8B87A58B8B80A991A9A2A9B3A98C8B4B
:100D30009D8BAE8BBF8B84A995A9A6A9B7A9888FD7
:100D4000998FAA8FBB8F80AD91ADA2ADB3AD8C8FC3
:100D50009D8FAE8FBF8F84AD88A3FD9681919191B9
:100D6000A191B19189A39AA3ABA3BCA381919191C5
:100D7000A191B1918DA39EA3AFA3B8A780819181CA
:100D80009AA789A71EA61DA67CA66BA618AA8201F3
:100D90004EE0C42ED12CCC0EDD1E3BE2A32EB12C96
:100DA000AC0EBD1E4E010894811C911CC8016FE25F
:100DB00070E00E944C029C01009779F0D8018C9160
:100DC0008F3209F07DC00F5F1F4FC8016FE270E0E6
:100DD0000E944C029C01009789F7041915092A9674
:100DE000EEADFFAD2A9711830083E32DF22DD601DE
:100DF00012968D919C911397938382837182608266
:100E000014968C911497848315968C9115978583ED
:100E100016962D913D914D915C91199726833783BC
:100E2000408751871A962D913D914D915C911D9768
:100E300022873387448755871E962D913D914D918A
:100E40005C91519726873787408B518B52968C91B6
:100E50005297828B53962D913D914D915C9156976F
:100E6000238B348B458B568B57962D913D914D910D
:100E70005C915A97278B308F418F528F5B968D9163
:100E80009C915C97948F838F832D922DC75BDF4F4E
:100E90000FB6F894DEBF0FBECDBFCF91DF911F918B
:100EA0000F91FF90EF90DF90CF90BF90AF909F9009
:100EB0008F907F906F905F904F903F902F9008950C
:100EC000422F401B4D3008F04CE0E42EFF24C401BB
:100ED000B801A7010E945702F401EE0DFF1D108218
:100EE000C5010E945D0DC501B601A40121E00E946B
:100EF0003313882349F00E0D1F1DC6010E945D0D9E
:100F0000C50156016C0152CFE32DF22D13821282DE
:100F1000718260821582B8CF2F923F924F925F927A
:100F20006F927F929F92AF92BF92CF92DF92EF9299
:100F3000FF920F931F93DF93CF93CDB7DEB7C657C2
:100F4000D0400FB6F894DEBF0FBECDBFA82E992EAD
:100F50008A01B22EB3E0CB2ED12CCC0EDD1EC60101
:100F60009E012F5F3F4F0E946206E980FA80E00EEB
:100F7000F11EF7018081882309F4C5C0AFE34A2E32
:100F8000512C4C0E5D1EF20111821082F4E86F2E7E
:100F9000F2E07F2E7EAE6DAEE2E42E2E312C2C0ED2
:100FA0003D1EF10110828885882309F48DC082508E
:100FB000823008F47CC08E01035C1F4FC801B6016B
:100FC000A7012B2D0E943313882309F47DC0C6018D
:100FD0000E945D0DF6E0BF2209F0D9C070E5C72E72
:100FE000D12CCC0EDD1E9E01265A3F4FF20180818E
:100FF0009181F9019383828371826082FE01EF5BAC
:10100000FF4F8081F9018483F1018081F90185839B
:10101000FE01ED5BFF4F80819181A281B381F901D7
:1010200086839783A087B187FE01E95BFF4F8081AC
:101030009181A281B381F90182879387A487B587C3
:10104000FE01E55BFF4F80819181A281B381F901AF
:1010500086879787A08BB18BFE01E15BFF4F808174
:10106000F901828BF60180819181A281B381F9011E
:10107000838B948BA58BB68BFE01EC5AFF4F80813E
:101080009181A281B381F901878B908FA18FB28F5B
:10109000FE01E85AFF4F80819181F901948F838F7F
:1010A0008A2D992DB901A7010E94D50511C08E0185
:1010B000035C1F4FC80161EF72E0A7012B2D0E9456
:1010C0003313882309F086CF8A2D992D0E94D904E5
:1010D0008A2D992DCA58DF4F0FB6F894DEBF0FBE88
:1010E000CDBFCF91DF911F910F91FF90EF90DF90D7
:1010F000CF90BF90AF909F907F906F905F904F90F8
:101100003F902F9008958D819E819BA38AA384E8B0
:1011100092E099A388A38F818CA388858DA389856C
:101120009A85AB85BC858EA39FA3A8A7B9A78D85FB
:101130009E85AF85B8898AA79BA7ACA7BDA78989DB
:101140009A89AB89BC898EA79FA7A8ABB9AB8D89BB
:101150008AAB8E899F89A88DB98D8BAB9CABADABCB
:10116000BEAB8A8D9B8DAC8DBD8D8FAB98AFA9AF7B
:10117000BAAF8E8D9F8D9CAF8BAF8A2D992DBE01FE
:10118000605E7F4F4CE552E00E94D505A1CF60E53F
:10119000C62ED12CCC0EDD1EF6014081518162811C
:1011A0007381C8010E94450C1ECFFC01673020F5F9
:1011B000262F30E060FF13C08DB58E7F8DBD8CB5BE
:1011C0008C7F8CBD4CB522FD15C090E036952795DF
:1011D000822F8170842B892B8CBD81E0089566302D
:1011E00059F38DB581608DBD8CB58C7F8CBD4CB5B0
:1011F00022FFEBCF92E0EACF86E1858380E008957D
:10120000FF920F931F93CF93DF938B010E940420D3
:10121000EB01FF24FA94FEBC0DB407FEFDCF8EB5A2
:101220008F3F71F00E9404206C1B7D0B60177107CB
:1012300090F380E0DF91CF911F910F91FF9008957F
:1012400081E0DF91CF911F910F91FF900895FC01F4
:10125000848160E00E9488210895FC01848161E01E
:101260000E9488210895DC016EBDFA0120E030E083
:101270000DB407FEFDCF80818EBD0DB407FEFDCFFE
:1012800081818EBD2E5F3F4F329682E0203038073D
:1012900079F70DB407FEFDCF8FEF8EBD0DB407FEBD
:1012A000FDCF8FEF8EBD0DB407FEFDCF8FEF8EBD4E
:1012B0000DB407FEFDCF8EB51A968C931A978F71D9
:1012C000853049F081E115968C931597CD010E94E8
:1012D0002D0980E0089581E00895FF920F931F93F8
:1012E000CF93DF93EC010E9404208B01FF24FA943A
:1012F000FEBC0DB407FEFDCF8EB58A878F3F99F4F3
:101300000E940420601B710B6D52714088F38FE0C6
:101310008D83CE010E942D0980E0DF91CF911F9136
:101320000F91FF9008958E3F19F08DE08D83F1CFDE
:1013300081E0F3CFCF93DF93EC018E81882309F115
:101340008FEF8EBD8F8198859C012F5F3F4F38872F
:101350002F838150924070F44FEF0DB407FEFDCF04
:101360004EBD2F5F3F4FC901019781509240A8F3B6
:1013700038872F830DB407FEFDCFCE010E942D09C3
:101380001E82DF91CF910895DF92EF92FF920F932B
:101390001F93CF93DF93EC01D62E79018A010E942F
:1013A0009A09CE010E942709CE016CE271E00E94E9
:1013B00000098D2D80648EBD0DB407FEFDCF28E1A0
:1013C00030E0D801C701022E04C0B695A7959795C5
:1013D00087950A94D2F78EBD0DB407FEFDCF285035
:1013E00030408FEF283F380761F7DD20D1F485E9E1
:1013F0008EBD0DB407FEFDCF90E02FEF2EBD0DB4D6
:1014000007FEFDCF8EB587FD09C08A87DF91CF919A
:101410001F910F91FF90EF90DF900895915071F719
:10142000F4CF88E0D81611F487E8E2CF8FEFE0CF51
:10143000CF92DF92EF92FF920F931F93CF93DF93A0
:10144000EC017A018B0169014115510561057105B6
:1014500079F482E18D83CE010E942D0980E0DF9135
:10146000CF911F910F91FF90EF90DF90CF90089553
:101470008B85833039F029E0EE0CFF1C001F111F13
:101480002A95D1F7CE0168E1A80197010E94C4090D
:10149000882319F084E08D83DECFCE016EEFA601A4
:1014A0000E9433098823B9F2CE0168E572E00E94F8
:1014B0000009882319F485E18D83CDCFCE016DE03D
:1014C00020E030E040E050E00E94C409882319F099
:1014D00084E18D83C0CF8FEF8EBD0DB407FEFDCFAD
:1014E0008EB58823A9F7CE010E942D0981E0B7CFE0
:1014F0008F929F92AF92BF92CF92DF92EF92FF9224
:101500000F931F93CF93DF93EC015A016B014901B5
:101510000115110509F47FC0C801820F931F815086
:101520009240E0F48E81882309F077C0A882B982C6
:10153000CA82DB828B85833039F069E0AA0CBB1C40
:10154000CC1CDD1C6A95D1F7CE0161E1A6019501A5
:101550000E94C409882399F083E08D83CE010E9404
:101560002D0980E0DF91CF911F910F91FF90EF90B7
:10157000DF90CF90BF90AF909F908F900895CE0155
:101580000E946D09882351F318861F8281E08E83A3
:1015900020E030E08FEF8EBD28153905A8F4C90191
:1015A0004FEF0DB407FEFDCF4EBD0196881599058E
:1015B000C0F30894811C911C820E931E20953095D7
:1015C000280D391D38872F83D801119789F020E025
:1015D00030E09FEF0DB407FEFDCF8EB5F701E20FAF
:1015E000F31F80839EBD2F5F3F4F2A173B0790F369
:1015F0000DB407FEFDCF8EB5AE0DBF1D8C932F81B0
:101600003885200F311F38872F8389858823B1F0D3
:101610002050324098F481E0A5CF88819981AA8139
:10162000BB8184179507A607B70709F07FCF2F81E5
:1016300038858216930608F0ADCF78CFCE010E9490
:101640009A0981E08FCFEF92FF920F931F93790158
:1016500020E030E000E012E00E94780A1F910F9134
:10166000FF90EF900895BF92CF92DF92EF92FF929A
:101670000F931F93CF93DF93EC01B62E1B86198631
:101680001E821D824C830E9404206B018C8161E0CC
:101690000E94C620CE010E942D0982E360E00E94D4
:1016A000C62083E361E00E94C62084E361E00E94DB
:1016B000C62085E361E00E94C62085E361E00E94C8
:1016C000882183E58CBD8DB58E7F8DBD80E09FEF39
:1016D0009EBD0DB407FEFDCF8F5F8A30C9F7CE01E6
:1016E0000E942709CE0160E020E030E040E050E0B9
:1016F0000E94C409182F8A878130B9F00E94042003
:101700006C197D09615D774068F381E08D83CE01BE
:101710000E942D0980E0DF91CF911F910F91FF90E2
:10172000EF90DF90CF90BF900895CE0168E02AEA55
:1017300031E040E050E00E94C40982FF1FC01B87D7
:10174000EE24FF248701CE0167E320E030E040E093
:1017500050E00E94C409CE0169E2A80197010E94ED
:10176000C4098A878823D1F00E9404206C197D095E
:10177000615D774040F388E08D83C9CF80E02FEF33
:101780002EBD0DB407FEFDCF9EB58F5F8430C1F72F
:101790009A879A3A71F082E08D83B9CF8B85823037
:1017A00081F0CE010E942D09CE016B2D0E94D5083B
:1017B000B2CF82E08B87E12CF12C012DF0E41F2FBA
:1017C000C2CFCE016AE320E030E040E050E00E946A
:1017D000C409882319F086E08D8399CF8FEF8EBDE1
:1017E0000DB407FEFDCF8EB5807C803C59F080E0C3
:1017F0009FEF9EBD0DB407FEFDCF2EB58F5F8330EA
:10180000C1F7CFCF83E08B87F2CFCF93DF93EC018B
:10181000DB0180E090E020E2FD01E80FF91F20836A
:1018200001968B309105C1F757E040E039913323A1
:1018300031F13E3271F084EE90E0FC01019624918A
:10184000222361F03217C9F790E0892FDF91CF9101
:1018500008955A30C9F35AE048E0E8CF5417A0F38E
:10186000313290F33F3780F7832F81568A3108F465
:101870003052FD01E40FF11D30834F5FD7CF90E070
:101880008C91803211F391E0E0CF6F927F928F9232
:101890009F92AF92BF92CF92DF92EF92FF920F93FF
:1018A0001F93CF93DF93EC015A016B012D8122230B
:1018B00049F08B899C89AD89BE8984179507A60755
:1018C000B70780F480E0DF91CF911F910F91FF90D7
:1018D000EF90DF90CF90BF90AF909F908F907F90D0
:1018E0006F900895223009F45CC0A114B104C104C2
:1018F000D10409F466C02A853B854C855D85EB8D56
:10190000FC8D858590E00996215030404040504044
:1019100039014A01082E04C09694879477946794FD
:101920000A94D2F72F5F3F4F4F4F5F4F0894A108A3
:10193000B108C108D1088601750104C01695079544
:10194000F794E7948A95D2F70894A11CB11CC11CA6
:10195000D11CE614F7040805190548F58F89988D00
:10196000A98DBA8D8E839F83A887B98786E0882E3C
:10197000912C8C0E9D1EE114F1040105110589F0D6
:101980004E815F81688579858B8D9C8D94010E9445
:10199000D3160894E108F10801091109882359F7C1
:1019A00091CFAA86BB86CC86DD8681E08CCF2115BF
:1019B00031054105510591F2E618F70808091909A2
:1019C000D5CF1E821F82188619861A861B861C8612
:1019D0001D8681E078CFCF93DF93EC01462F6E8593
:1019E0007F85888999890E949E14882389F08A8935
:1019F000282F30E0220F331F22953295307F322777
:101A0000207F32272E5E3C4FC901DF91CF91089590
:101A100020E030E0C901DF91CF9108950F931F932B
:101A2000CF93DF93EC018D81882351F08C8187FD6A
:101A30000DC00E943C14DF91CF911F910F9108952A
:101A400080E0DF91CF911F910F910895CE0161E069
:101A50000E94EB0C8C01009799F38D81823018F174
:101A60008F89988DF801938F828F8F89988DA98D9A
:101A7000BA8DCD01AA27BB27958B848BE0911003EB
:101A8000F0911103309759F0B8016A5E7F4FC80199
:101A900048961995F801808D918D938B828B8C815E
:101AA0008F778C83C6CF8B899C89AD89BE89F801DD
:101AB000848F958FA68FB78FD3CFCF93DF93EC0111
:101AC0000E940E0D882311F01D8281E0DF91CF91DD
:101AD00008956F927F928F929F92AF92BF92CF9212
:101AE000DF92EF92FF920F931F93DF93CF9300D07B
:101AF0000F92CDB7DEB77C015A016B01DC01159660
:101B00008C9115978130A1F080E00F900F900F908D
:101B10000F90CF91DF911F910F91FF90EF90DF9089
:101B2000CF90BF90AF909F908F907F906F900895CF
:101B300014968C9181FFE8CFF70183899489A58958
:101B4000B68984179507A607B707F0F20097A10595
:101B5000B10509F45BC0F7016284738484849584C1
:101B6000C701B601A5010E94450C882369F2A114A2
:101B7000B104C104D10409F44BC0D70116964D91AC
:101B80005D916D917C9119975B968D919C915C977D
:101B90009E012F5F3F4F0E94D316882309F4B4CFD4
:101BA000D7015B96ED91FC915C9749815A816B81DD
:101BB0007C818789803109F458C088EF9FEFAFEFAF
:101BC000BFE0481759076A077B07C0F1D701539652
:101BD000AD92BD92CD92DC92569714968C9114974B
:101BE000806814968C93C7010E940E0D882309F417
:101BF0008BCFB601A5016A147B048C049D0410F4FC
:101C0000B401A301C7010E94450C7FCF81E07DCFC5
:101C1000D70157964D915D916D917C915A975B9646
:101C20008D919C915C970E944D17882309F46CCF8D
:101C3000F701178A108E118E128EC8CFCF010E9425
:101C40004D17882309F460CFF701468157816085DD
:101C50007185838D948D0FEF1FEF2FEF3FE00E9472
:101C60003416882309F0B2CF4FCF88EF9FEFA0E062
:101C7000B0E0A7CF2F923F924F925F926F927F92E8
:101C80008F929F92AF92BF92CF92DF92EF92FF928C
:101C90000F931F93DF93CF9300D00F92CDB7DEB792
:101CA0006C015C834B83DC011596EC911597EE2358
:101CB00021F014968C9180FD1AC04FEF5FEFCA019E
:101CC0000F900F900F900F90CF91DF911F910F9178
:101CD000FF90EF90DF90CF90BF90AF909F908F904C
:101CE0007F906F905F904F903F902F900895D60116
:101CF00053966D907D908D909C9056971A96ED908E
:101D0000FD900D911C911D978B819C819C0140E061
:101D100050E0D401C3018E199F09A00BB10B8217AB
:101D20009307A407B50708F4C6C0AB81BC81109720
:101D300009F4E4C02B01C60106969A8389833D010C
:101D4000212C52E0352E4FEF842E41E0942E8E2030
:101D50009F20E23009F498C0D6015B96ED91FC918A
:101D60005C97D801C70129E0B695A7959795879507
:101D70002A95D1F7B480BA94B82281149104A9F4B9
:101D8000BB2099F4E114F1040105110509F0B9C073
:101D9000D60157962D913D914D915C915A9716968B
:101DA0002D933D934D935C931997D60116964D91C3
:101DB0005D916D917C911997425050406040704008
:101DC000058404C0440F551F661F771F0A94D2F77D
:101DD00086859785A089B189480F591F6A1F7B1F87
:101DE0004B0D511D611D711D5101A818B9086A14D0
:101DF0007B0408F45301F601848186FD62C0F0E0A3
:101E0000AF16F2E0BF0609F45CC0CB01BA0140E0B6
:101E10000E949E14882309F450CF94012E5E3C4FFB
:101E2000A9014A0D5B1D2417350759F0D201F901AC
:101E300081918D934E175F07D9F7421B530B440EC8
:101E4000551E750100E010E0F60182859385A4859A
:101E5000B585E80EF91E0A1F1B1FD6011A96ED92D2
:101E6000FD920D931C931D976A187B0809F446C0D8
:101E7000D6011596EC914FEF842E41E0942E8E20E2
:101E80009F20E23009F068CFB801A70139E07695CC
:101E90006795579547953A95D1F7D6015B96ED91A1
:101EA000FC915C97828D938DA48DB58D480F591F41
:101EB0006A1F7B1F99CFC3018E199F099C838B8357
:101EC00034CF8091640290916502A0916602B09136
:101ED0006702481759076A077B0709F496CF809174
:101EE0001205909113059401850172010E94780AF0
:101EF000882309F4E2CE4A0C5B1CA3CF4B815C81A2
:101F0000DECED60116964D915D916D917C9119971B
:101F1000CF0129813A810E94D316882309F4CDCEBE
:101F2000D6015B96ED91FC915C973FCFCF92DF920B
:101F3000EF92FF920F931F93DF93CF930F92CDB742
:101F4000DEB78C01FC018581823068F420E030E04E
:101F5000C9010F90CF91DF911F910F91FF90EF90EA
:101F6000DF90CF900895C284D384E484F584C801BF
:101F7000BE016F5F7F4F41E050E00E943A0E019733
:101F800029F7F80182859385A485B5854F96A11D13
:101F9000B11D82879387A487B58775E0F694E7948F
:101FA000D794C7947A95D1F78C2D8F70282F30E075
:101FB000220F331F22953295307F3227207F322720
:101FC0002E5E3C4FC5CF0F931F93CF93DF93EC0151
:101FD0008B018D81882331F4FB018789803141F0A9
:101FE0008032F1F180E0DF91CF911F910F91089540
:101FF00082E08D831F8A188E198E1A8E808D918DA6
:10200000A0E0B0E0880F991FAA1FBB1F880F991F7F
:10201000AA1FBB1F880F991FAA1FBB1F880F991FDC
:10202000AA1FBB1F880F991FAA1FBB1F8B8B9C8BDE
:10203000AD8BBE8B1C8F0B8F81E08C831E821F8229
:10204000188619861A861B861C861D861E861F8684
:10205000188A198A1A8ADF91CF911F910F910895DA
:1020600083E08D83FB01428D538D648D758D4F8B85
:10207000588F698F7A8F9E012D5E3F4FC8010E9455
:10208000AB178823B9F6AECF1F93CF93DF93EC0144
:10209000142FE62FF0E0EE0FFF1FE295F295F07F90
:1020A000FE27E07FFE27EE5EFC4F8385817121F0E5
:1020B000842F827409F044C06A8B809164029091ED
:1020C0006502A0916602B09167028E879F87A88BF8
:1020D000B98B84899589A0E0B0E0BC0155274427DD
:1020E000828D938DA0E0B0E0482B592B6A2B7B2B7F
:1020F0004F8B588F698F7A8F838590E088719070AD
:102100000097E1F4848D958DA68DB78D8B8B9C8B7C
:10211000AD8BBE8B81E08D83812F8F708C831E826F
:102120001F82188619861A861B861C861D8616FD38
:1021300018C081E0DF91CF911F910895409729F059
:1021400080E0DF91CF911F9108959E012D5E3F4F5A
:102150008B8D9C8D0E94AB17882391F384E08D8337
:10216000DBCFCE0140E050E060E070E00E94690DFE
:10217000DF91CF911F910895CF93DF93EC019C01E4
:102180002A5F3F4F8B8D9C8D41E050E060E070E016
:102190000E941B188823A1F08F89988DA98DBA8D74
:1021A0000097A105B10559F48E819F81A885B98555
:1021B0008F8B988FA98FBA8F8C8180688C8381E0F8
:1021C000DF91CF9108952F923F924F925F926F923D
:1021D0007F929F92AF92BF92CF92DF92EF92FF9247
:1021E0000F931F93DF93CF9300D000D0CDB7DEB70E
:1021F0005C01F62EE72E5E834D83DC0115968C91F3
:102200001597813019F181E090E0D50113969C93E8
:102210008E9312971E821D828D819E8126960FB607
:10222000F894DEBF0FBECDBFCF91DF911F910F910C
:10223000FF90EF90DF90CF90BF90AF909F907F90F6
:102240006F905F904F903F902F90089514968C91CF
:1022500081FFD9CF82FD54C1F50142855385648544
:102260007585ED81FE81309709F4C0C08F2D9E2DBC
:102270009C0119012F01D5015B96ED91FC915C97B2
:10228000DB01CA0119E0B695A795979587951A9530
:10229000D1F794809A949822AFEF6A2EA1E07A2E1B
:1022A00064227522992019F56114710401F5D50194
:1022B00016964D915D916D917C911997411551053F
:1022C0006105710509F0F1C057962D913D914D9131
:1022D0005C915A97211531054105510509F404C156
:1022E000D50116962D933D934D935C93199780E0FD
:1022F00092E08619970962018415950508F46C012E
:10230000D5011696ED90FD900D911C9119978EEFC9
:102310009FEFAFEFBFEFE80EF91E0A1F1B1F0584EA
:1023200004C0EE0CFF1C001F111F0A94D2F7868513
:102330009785A089B189E80EF91E0A1F1B1FE90CB9
:10234000F11C011D111D90E0C91692E0D90609F497
:102350006EC06114710479F4F501228533854485DA
:10236000558583899489A589B689281739074A072D
:102370005B0708F07AC0C801B70141E00E949E14D3
:10238000882309F440CFA3014E5E5C4F9A012C0DC7
:102390003D1D4217530789F0D101FA018D918193B8
:1023A0002E173F07D9F7CA01019641E050E0481BBC
:1023B000590B240F351F220E331E4C185D08C60121
:1023C000A0E0B0E0F5014285538564857585480F2E
:1023D000591F6A1F7B1FD5011A964D935D936D930C
:1023E0007C931D974114510409F045CFF501838971
:1023F0009489A589B68984179507A607B70708F0B9
:10240000A3C0D50153964D935D936D937C935697DE
:1024100014968C911497806814968C9383FFFCCE4D
:10242000C5010E940E0D882309F4EDCEF5CE8091F2
:10243000640290916502A0916602B09167028E15C8
:102440009F05A007B10721F1809112059091130516
:10245000B801A70191010E94180A882309F4D3CE7C
:10246000A0E0B2E02A0E3B1EA8CF0E943C148823B5
:1024700009F4C9CEE0926402F0926502009366020C
:1024800010936702809114058160809314057BCFBF
:102490008FEF9FEFAFEFBFEF8093640290936502E1
:1024A000A0936602B0936702CFCFCF019E012F5F4A
:1024B0003F4F0E94D316882309F4ACCE29813A817C
:1024C0004B815C81D5015B96ED91FC915C9787898E
:1024D0008031A9F188EF9FEFAFEFBFE028173907F0
:1024E0004A075B0708F4FCCEC5010E94BC10882394
:1024F00009F489CED5015B96ED91FC915C97F7CEFE
:10250000F5010389148925893689428553856485B7
:102510007585401751076207730709F4A2CEC501FC
:10252000B901A8010E94450C882309F46CCED5019D
:102530001A964D915D916D917C911D9792CE88EF89
:102540009FEFA0E0B0E0CACF8091100390911103FB
:10255000892B69F04D815E81452B21F4D5011496BC
:102560008C915CCFF50184818068848357CFF5011D
:10257000848154CFDF93CF930F92CDB7DEB76983B9
:10258000BE016F5F7F4F41E050E00E94E3100F906B
:10259000CF91DF910895DF92EF92FF920F931F93F7
:1025A000CF93DF93EC010E94BC10882381F1EB8D67
:1025B000FC8D8E819F81A885B985268537854089C8
:1025C00051896585D480DD2071F179018A010894F3
:1025D000E108F108010911090297A109B10904C034
:1025E000880F991FAA1FBB1F6A95D2F7E80EF91E24
:1025F0000A1F1B1F02C0DA9499F0C801B7016D0DC4
:10260000711D811D911D0E947A148823A1F780E01D
:10261000DF91CF911F910F91FF90EF90DF90089580
:10262000EB8DFC8D658520E032E040E050E004C099
:10263000220F331F441F551F6A95D2F78B899C893F
:10264000AD89BE89820F931FA41FB51F8B8B9C8BF6
:10265000AD8BBE8B81E0DF91CF911F910F91FF90E9
:10266000EF90DF9008956F927F928F929F92AF923A
:10267000BF92CF92DF92EF92FF920F931F93DF935F
:10268000CF93CDB7DEB72B970FB6F894DEBF0FBE52
:10269000CDBF4C016B01A22EDC0115968C918823D5
:1026A000B1F080E02B960FB6F894DEBF0FBECDBF21
:1026B000CF91DF911F910F91FF90EF90DF90CF901E
:1026C000BF90AF909F908F907F906F900895CA01B8
:1026D0003E010894611C711CB3010E94050C882303
:1026E00001F3F601838D948DD4015C969C938E93B7
:1026F0005B971682178210861186D6011A961D9254
:102700001D921D921C921D97BB24F601E284F38456
:102710000485158583899489A589B689E816F90603
:102720000A071B0708F044C0C6010E94960FFC016F
:10273000009709F4B6CF85E016950795F794E794CE
:102740008A95D1F71E2D1F7080818823A9F0853EC0
:1027500099F0C301BF014BE050E00E943F02009797
:10276000A1F68A2D8073803309F49BCFC401612FB9
:102770004A2D0E94441096CFBB2099F4D401529662
:102780001C93529720916402309165024091660239
:10279000509167021E962D933D934D935C935197F4
:1027A0008081882319F0BB24B394AFCFBB24B394AA
:1027B0008A2D8271823109F074CFBB2009F049C0A3
:1027C000D60115968C91823009F46BCFC6010E9418
:1027D000CB12882309F465CFF401128A02E113E0D9
:1027E00080E2D8011D928A95E9F7D801F3018BE0C8
:1027F00001900D928150E1F7E0911003F0911103E7
:10280000309781F1B801625F7F4FC80140961995FA
:10281000D80150968D919C91519753969C938E938D
:10282000529759969C938E9358971E968D919C9192
:102830001F9757969C938E9356970E943C1488231B
:1028400009F42FCFC401F40162894A2D0E9444107B
:1028500029CFC40161E00E94EB0C8C01009709F0C4
:10286000BFCF1FCF81E298E2F801918B808B80E08F
:1028700098E097878687CCCF80911405882311F440
:1028800081E0089540916402509165026091660272
:1028900070916702809112059091130522E133E057
:1028A0000E94180A8823D9F0409115055091160509
:1028B0006091170570911805411551056105710565
:1028C00021F41092140581E00895809112059091F1
:1028D000130522E133E00E94180A882311F480E0F6
:1028E0000895109215051092160510921705109272
:1028F0001805E7CFEF92FF920F931F937B018C0196
:102900000E943C148823A9F0E2E1F3E0119285E0F3
:10291000E231F807D9F7E0926402F0926502009381
:1029200066021093670280911405816080931405FC
:1029300081E01F910F91FF90EF900895DF92EF9249
:10294000FF920F931F937B018C01D42E8091640220
:1029500090916502A0916602B09167028E159F0565
:10296000A007B107F9F00E943C14882339F480E0F5
:102970001F910F91FF90EF90DF90089580911205C5
:1029800090911305B801A70122E133E00E94230BC7
:10299000882369F3E0926402F09265020093660274
:1029A00010936702809114058D298093140581E0AE
:1029B0001F910F91FF90EF90DF9008954F925F92DB
:1029C0006F927F928F929F92AF92BF92CF92DF923F
:1029D000EF92FF920F931F93CF93DF934C01142F2D
:1029E0007093130560931205442309F452C04530D7
:1029F00090F080E0DF91CF911F910F91FF90EF90C9
:102A0000DF90CF90BF90AF909F908F907F906F900E
:102A10005F904F90089560E070E080E090E040E0CB
:102A20000E949E14882329F3C12FD0E02197FE0134
:102A3000E295F295F07FFE27E07FFE27EE5EFC4FE9
:102A4000E254FE4F8081EE5BF14090E08F77907012
:102A5000892B79F6E653FE4F80819181A281B38163
:102A600084369105A105B10520F2CC0FDD1FCC0FF6
:102A7000DD1FCC0FDD1FCC0FDD1FC852DB4FA88040
:102A8000B980CA80DB80A114B104C104D10421F44F
:102A9000B0CFAA24BB246501C601B50140E00E9465
:102AA0009E14882309F4A5CF80911D0390911E03E5
:102AB0008050924009F09DCF20912203222309F4F7
:102AC00098CF8091200390912103892B09F491CF15
:102AD00080911F03882309F48CCFF401228B80910D
:102AE0001F0384831586282F30E041E050E0F40175
:102AF0000585CA01002E02C0880F991F0A94E2F7CB
:102B00002817390739F00F5FF401058701500830A5
:102B100070F36FCF209128033091290321153105DF
:102B200009F486C040E050E0F401258336834783F2
:102B30005087E0902003F09021032701662477243A
:102B40004A0C5B1C6C1C7D1C438A548A658A768AFD
:102B50008091230390912403918F808F60912203B1
:102B600070E080E090E00E946722640D751D861D74
:102B7000971DF401628F738F848F958F20912303AB
:102B800030912403220F331F22953295307F322754
:102B9000207F322721503E4F232F3327269540E0B8
:102BA00050E0260F371F481F591F26873787408B55
:102BB000518B8091250390912603009709F441C021
:102BC000A0E0B0E025013601421A530A640A750AF2
:102BD000A3019201280F391F4A1F5B1F04C056959D
:102BE0004795379527950A95D2F7F40121873287C3
:102BF00043875487253FFFE03F07F0E04F07F0E0B1
:102C00005F0740F1255F3F4F4040504040F18091C9
:102C10003E0390913F03A0914003B0914103F40122
:102C2000828F938FA48FB58F80E2878B81E0E2CE75
:102C30002091360330913703409138035091390386
:102C400073CF8091320390913303A0913403B091FC
:102C50003503B8CF8CE0F401878B81E0CBCE80E1E7
:102C6000F401878B81E0C6CE4F925F926F927F9284
:102C70008F929F92AF92BF92CF92DF92EF92FF928C
:102C80000F931F93CF93DF93EC016A017B0128011F
:102C90003901423051056105710508F45BC0898531
:102CA0009A85AB85BC850196A11DB11D841795073A
:102CB000A607B70708F44EC02B893C894D895E8969
:102CC000EF89E03109F461C0C701B60107E09695CC
:102CD0008795779567950A95D1F74B015C01820E30
:102CE000931EA41EB51E8091640290916502A0916E
:102CF0006602B091670288169906AA06BB06E1F53E
:102D0000E03109F447C0F601EF77F070EE0FFF1FD6
:102D1000EE0FFF1FEE5EFC4F408251826282738293
:102D2000809114058160809314058A89823080F037
:102D30008D819E81AF81B885880E991EAA1EBB1E0B
:102D40008092150590921605A0921705B09218056D
:102D500081E001C080E0DF91CF911F910F91FF9042
:102D6000EF90DF90CF90BF90AF909F908F907F902B
:102D70006F905F904F900895C501B40140E00E94AC
:102D80009E14882339F3EF89BBCF99278F2D7E2D91
:102D90006D2DA3CFF601F070EE0FFF1FEE5EFC4F1E
:102DA00051824082BDCFCF92DF92EF92FF920F937C
:102DB0001F93CF93DF93EC017A018B016901898521
:102DC0009A85AB85BC850196A11DB11D8417950719
:102DD000A607B70708F441C02B893C894D895E8955
:102DE000EF89E03109F443C0C801B701F7E09695D7
:102DF000879577956795FA95D1F7260F371F481F66
:102E0000591F8091640290916502A0916602B09171
:102E10006702281739074A075B0741F0CA01B90161
:102E200040E00E949E148823C1F0EF89E03121F137
:102E3000F701EF77F070EE0FFF1FEE0FFF1FEE5E52
:102E4000FC4F80819181A281B381BF70F6018083A4
:102E50009183A283B38381E001C080E0DF91CF91B1
:102E60001F910F91FF90EF90DF90CF9008959927D9
:102E7000812F702F6F2DC1CFF701F070EE0FFF1F64
:102E8000EE5EFC4F80819181A0E0B0E0F60180838E
:102E90009183A283B38381E0E1CFAF92BF92CF92BF
:102EA000DF92EF92FF920F931F93DF93CF9300D0A7
:102EB0000F92CDB7DEB76C017A018B0182E090E012
:102EC000A0E0B0E0F60180839183A283B3835E012A
:102ED0000894A11CB11C09C088EF9FEFAFEFBFE0C1
:102EE000E816F9060A071B0720F5C601B801A70175
:102EF00095010E94D316882361F1C601B801A7018C
:102F000000E010E020E030E00E943416882309F150
:102F1000E980FA800B811C81F60187898031E1F616
:102F200088EF9FEFA0E0B0E0E816F9060A071B075C
:102F3000E0F281E00F900F900F900F90CF91DF9112
:102F40001F910F91FF90EF90DF90CF90BF90AF90C7
:102F5000089580E0EFCF4F925F926F927F928F92B1
:102F60009F92AF92BF92CF92DF92EF92FF920F9318
:102F70001F93DF93CF9300D00F92CDB7DEB76C01D4
:102F800049835A836B837C832901EE24FF248701C4
:102F90003E010894611C711C812CB2E09B2EA12C77
:102FA000B12C09C088EF9FEFAFEFBFE0481759077A
:102FB0006A077B0728F5C60193010E94D316882370
:102FC00029F1D501C401F601058404C0880F991FB9
:102FD000AA1FBB1F0A94D2F7E80EF91E0A1F1B1F77
:102FE00049815A816B817C8187898031D9F688EF4C
:102FF0009FEFA0E0B0E0481759076A077B07D8F2B7
:10300000F201E082F1820283138381E00F900F903E
:103010000F900F90CF91DF911F910F91FF90EF9044
:10302000DF90CF90BF90AF909F908F907F906F90E8
:103030005F904F9008952F923F924F925F926F92C0
:103040007F928F929F92AF92BF92CF92DF92EF9238
:10305000FF920F931F93DF93CF93CDB7DEB76797A0
:103060000FB6F894DEBF0FBECDBF1C014A875B8749
:103070006C877D873F872E87D9010D911D912D91FA
:103080003C91011511052105310509F4D3C0D90181
:10309000C8010196A11DB11D8C8B9D8BAE8BBF8B82
:1030A0001986F10181859285A385B4859C01AD01C6
:1030B0002F5F3F4F4F4F5F4F2D833E834F83588786
:1030C0000097A105B10509F49BC0CC88DD88EE8886
:1030D000FF888824992454018E010F5F1F4F1CC064
:1030E000A70196012F5F3F4F4F4F5F4F2C8B3D8BBA
:1030F0004E8B5F8B0894811C911CA11CB11CF101AB
:1031000081859285A385B48588169906AA06BB0693
:1031100008F076C069017A018D819E81AF81B88502
:103120008C159D05AE05BF0570F492E0492E512C1B
:10313000612C712C4C8A5D8A6E8A7F8A82E0C82E4F
:10314000D12CE12CF12CC101B701A60198010E94FC
:10315000D316882309F454C089819A81AB81BC813C
:103160000097A105B10509F0BBCFA70196012F5F1C
:103170003F4F4F4F5F4FDA01C9014C885D886E8821
:103180007F8884199509A609B7094A845B846C84F1
:103190007D8484159505A605B70509F0ABCFC1015F
:1031A000A601B7010FEF1FEF2FEF3FE00E9434168B
:1031B000882331F14C885D886E887F884C145D04CB
:1031C0006E047F0468F04DC02C893D894E895F896B
:1031D000281539054A055B0508F043C075016401EF
:1031E00046015701089481089108A108B108C1015E
:1031F000B501A401970186010E943416882321F7A6
:1032000080E067960FB6F894DEBF0FBECDBFCF91BA
:10321000DF911F910F91FF90EF90DF90CF90BF90C3
:10322000AF909F908F907F906F905F904F903F9066
:103230002F900895DC014D905D906D907C904C8AAC
:103240005D8A6E8A7F8A19862A853B854C855D85D5
:10325000213031054105510509F023CF31E039878F
:1032600020CFAE85BF854D915D916D917C914115CB
:10327000510561057105F1F44C885D886E887F8881
:10328000AE85BF854D925D926D927C921397B98504
:10329000BB2371F02C893D894E895F892F5F3F4F99
:1032A0004F4F5F4FD1012D933D934D935C931397F7
:1032B00081E0A7CFC1010C891D892E893F890E9419
:1032C00034168823C9F69CCF08951F920F920FB62B
:1032D0000F920BB60F9211242F933F934F938F931E
:1032E0009F93EF93FF938091C00082FD2AC040918D
:1032F000C6002091590530915A052F5F3F4F2F731B
:10330000307080915B0590915C052817390759F062
:10331000E0915905F0915A05E75EFA4F40833093EA
:103320005A0520935905FF91EF919F918F914F91ED
:103330003F912F910F900BBE0F900FBE0F901F90DB
:1033400018958091C600EFCF08951F920F920FB687
:103350000F920BB60F9211242F933F934F938F939D
:103360009F93EF93FF938091C80082FD2AC0409104
:10337000CE002091E1053091E2052F5F3F4F2F7382
:1033800030708091E3059091E4052817390759F0D2
:10339000E091E105F091E205EF55FA4F408330935B
:1033A000E2052093E105FF91EF919F918F914F915D
:1033B0003F912F910F900BBE0F900FBE0F901F905B
:1033C00018958091CE00EFCF08951F920F920FB6FF
:1033D0000F920BB60F9211242F933F934F938F931D
:1033E0009F93EF93FF938091D00082FD2AC040917C
:1033F000D6002091690630916A062F5F3F4F2F73E8
:10340000307080916B0690916C062817390759F03F
:10341000E0916906F0916A06E75DF94F40833093C9
:103420006A0620936906FF91EF919F918F914F91CA
:103430003F912F910F900BBE0F900FBE0F901F90DA
:1034400018958091D600EFCF08951F920F920FB676
:103450000F920BB60F9211242F933F934F938F939C
:103460009F93EF93FF938091300182FD2AC040919A
:1034700036012091F1063091F2062F5F3F4F2F73F6
:1034800030708091F3069091F4062817390759F0AF
:10349000E091F106F091F206EF54F94F408330933A
:1034A000F2062093F106FF91EF919F918F914F913A
:1034B0003F912F910F900BBE0F900FBE0F901F905A
:1034C000189580913601EFCFE0914507F0914607BE
:1034D000E05CFF4F8191919120813181821B930BA0
:1034E0008F739070892BD1F5E0916707F091680791
:1034F000E05CFF4F8191919120813181821B930B80
:103500008F739070892B39F5E0918907F0918A07C4
:10351000E05CFF4F8191919120813181821B930B5F
:103520008F739070892BA1F4E091AB07F091AC07F9
:10353000E05CFF4F8191919120813181821B930B3F
:103540008F739070892B09F408950E94241A0895AE
:103550000E94E419E9CF0E94A419D6CF0E946419F1
:10356000C3CF1F920F920FB60F920BB60F9211247A
:103570002F933F938F939F93EF93FF9320919D05FC
:1035800030919E0580919F059091A00528173907DD
:1035900009F1E0919F05F091A005E35AFA4F2081CF
:1035A00080919F059091A00501968F7390709093E4
:1035B000A00580939F052093C600FF91EF919F91F6
:1035C0008F913F912F910F900BBE0F900FBE0F90D8
:1035D0001F9018958091C1008F7D8093C100EDCF21
:1035E0001F920F920FB60F920BB60F9211242F93CA
:1035F0003F938F939F93EF93FF93209125063091F4
:10360000260680912706909128062817390709F188
:10361000E0912706F0912806EB51FA4F2081809126
:1036200027069091280601968F7390709093280634
:10363000809327062093CE00FF91EF919F918F9169
:103640003F912F910F900BBE0F900FBE0F901F90C8
:1036500018958091C9008F7D8093C900EDCF1F928E
:103660000F920FB60F920BB60F9211242F933F9328
:103670008F939F93EF93FF932091AD063091AE0609
:103680008091AF069091B0062817390709F1E091B3
:10369000AF06F091B006E359F94F20818091AF0653
:1036A0009091B00601968F7390709093B0068093BE
:1036B000AF062093D600FF91EF919F918F913F919C
:1036C0002F910F900BBE0F900FBE0F901F9018956B
:1036D0008091D1008F7D8093D100EDCF1F920F920A
:1036E0000FB60F920BB60F9211242F933F938F9327
:1036F0009F93EF93FF932091350730913607809188
:103700003707909138072817390709F1E0913707F3
:10371000F0913807EB50F94F208180913707909155
:10372000380701968F73907090933807809337070E
:1037300020933601FF91EF919F918F913F912F91AF
:103740000F900BBE0F900FBE0F901F901895809199
:1037500031018F7D80933101EDCFDF92EF92FF92A7
:103760000F931F93CF93DF93EC017A018B01DD243C
:10377000403081EE580780E0680780E0780721F14B
:10378000DD24D394EC89FD8981E090E008A002C09B
:10379000880F991F0A94E2F7808360E079E08DE357
:1037A00090E0A80197010E948622215030404040BD
:1037B0005040569547953795279580E1203038073A
:1037C000D0F0DD20C1F0DD24EC89FD89108260E8B5
:1037D00074E88EE190E0A80197010E9486222150B2
:1037E000304040405040569547953795279580E1A9
:1037F0002030380730F7E889F9893083EA89FB8976
:10380000208319A2EE89FF89408121E030E0C901BF
:103810000C8C02C0880F991F0A94E2F7482B408352
:10382000EE89FF894081C9010D8C02C0880F991F64
:103830000A94E2F7482B4083EE89FF894081C90151
:103840000E8C02C0880F991F0A94E2F7482B408320
:10385000EE89FF8980810F8C02C0220F331F0A94EA
:10386000E2F7209528232083DF91CF911F910F91BC
:10387000FF90EF90DF900895DC011C96ED91FC9194
:103880001D97E05CFF4F2191319180819181281B30
:10389000390B2F733070C9010895DC011C96ED912E
:1038A000FC911D97E05CFF4F20813181E054F04096
:1038B000DF01AE5BBF4F8D919C911197281739079F
:1038C00049F08D919C91E80FF91F8081282F30E0FD
:1038D000C90108952FEF3FEFC9010895DC011C963F
:1038E000ED91FC911D97E05CFF4F20813181E05408
:1038F000F040DF01AE5BBF4F8D919C91119728176F
:10390000390791F08D919C911197E80FF91F208153
:103910008D919C91119701968F73907011969C9345
:103920008E9330E0C90108952FEF3FEFC90108954C
:10393000FC0181A1882311F411A20895A489B589FD
:103940008C9186FFFDCF11A20895CF93DF93EC01F8
:10395000AE85BF85AD01405C5F4FFA0120813181AA
:103960002F5F3F4F2F733070FD01EE5BFF4F808163
:10397000918128173907D9F3FA0180819181A80F25
:10398000B91F6C93EE85FF85E05CFF4F3183208388
:10399000EE89FF89208181E090E00F8C02C0880FC2
:1039A000991F0A94E2F7282B208381E089A3EC89F0
:1039B000FD8980818064808381E090E0DF91CF91F8
:1039C00008951F9310923C0710923B0728EE33E0B6
:1039D00040E050E020933D0730933E0740933F077F
:1039E000509340076CE872E070933A076093390790
:1039F00089E195E090934607809345078DE595E032
:103A0000909348078093470785EC90E090934A078E
:103A10008093490784EC90E090934C0780934B0788
:103A200080EC90E090934E0780934D0781EC90E0FE
:103A30009093500780934F0782EC90E09093520749
:103A40008093510786EC90E090935407809353073E
:103A500014E010935507B3E0B0935607A7E0A09386
:103A60005707F5E0F0935807E1E0E093590710920B
:103A70005E0710925D0720935F07309360074093C5
:103A800061075093620770935C0760935B0781EA5C
:103A900095E0909368078093670785EE95E0909393
:103AA0006A07809369078DEC90E090936C07809390
:103AB0006B078CEC90E090936E0780936D0788EC19
:103AC00090E09093700780936F0789EC90E090935B
:103AD0007207809371078AEC90E09093740780934B
:103AE00073078EEC90E090937607809375071093A0
:103AF0007707B0937807A0937907F0937A07E0935C
:103B00007B071092800710927F07209381073093E4
:103B10008207409383075093840770937E076093D6
:103B20007D0789E296E090938A07809389078DE666
:103B300096E090938C0780938B0785ED90E09093AF
:103B40008E0780938D0784ED90E09093900780938B
:103B50008F0780ED90E0909392078093910781ED1D
:103B600090E0909394078093930782ED90E0909378
:103B700096078093950786ED90E090939807809341
:103B8000970710939907B0939A07A0939B07F09318
:103B90009C07E0939D071092A2071092A107209323
:103BA000A3073093A4074093A5075093A6077093EB
:103BB000A00760939F0781EB96E09093AC078093FA
:103BC000AB0785EF96E09093AE078093AD0785E352
:103BD00091E09093B0078093AF0784E391E09093D6
:103BE000B2078093B10780E391E09093B40780938C
:103BF000B30781E391E09093B6078093B50782E322
:103C000091E09093B8078093B70786E391E0909393
:103C1000BA078093B9071093BB07B093BC07A09372
:103C2000BD07F093BE07E093BF071F9108950E9460
:103C300064200E94AF040E94D50384E69AE1892B98
:103C400029F00E94641A0E94D503FBCF0E94D5037D
:103C50000E94D503FBCF0E94E7010895CF92DF9227
:103C6000EF92FF920F931F93CF93DF937C016B0131
:103C7000EA0141155105D9F000E010E0D6016D913F
:103C80006D01D701ED91FC910190F081E02DC7010C
:103C90001995080F191F219789F7C801DF91CF9156
:103CA0001F910F91FF90EF90DF90CF90089500E06B
:103CB00010E0F3CFEF92FF920F931F938C01DC0182
:103CC000ED91FC910190F081E02D6DE019957C0162
:103CD000D801ED91FC910190F081E02DC8016AE0DE
:103CE00019959C012E0D3F1DC9011F910F91FF9049
:103CF000EF9008954F925F927F928F929F92AF9232
:103D0000BF92CF92DF92EF92FF920F931F93DF93B8
:103D1000CF93CDB7DEB7A1970FB6F894DEBF0FBE35
:103D2000CDBF2C01742ECB01223008F460C0822E4E
:103D30009924AA24BB2419A221E2C22ED12CCC0E94
:103D4000DD1E0BC0405DF6014083E114F104010566
:103D5000110501F17E2C5F2DC801672D752FA5017E
:103D600094010E94862279018A01C801B701A50148
:103D700094010E946722472D461B0894C108D10870
:103D80004A3004F3495CF6014083E114F104010573
:103D9000110501F7C114D10481F1D6010D90002065
:103DA000E9F71197AC19BD09F20180819181FC01FD
:103DB00022813381C201B601AD01F90119959C013F
:103DC000C901A1960FB6F894DEBF0FBECDBFCF914B
:103DD000DF911F910F91FF90EF90DF90CF90BF90F8
:103DE000AF909F908F907F905F904F9008953AE0B2
:103DF000832E912CA12CB12C9ECF20E030E0E0CF7F
:103E0000CF92DF92EF92FF920F931F93CF93DF93A6
:103E1000EC016A017B0121153105B9F02A30310529
:103E200039F477FD1BC02AE00E947A1E9C0103C072
:103E30000E947A1E9C01C901DF91CF911F910F91C1
:103E4000FF90EF90DF90CF900895E881F981019085
:103E5000F081E02D642F19959C01EDCFE881F98167
:103E60000190F081E02D6DE219958C0144275527D2
:103E7000BA014C195D096E097F09CE012AE00E9442
:103E80007A1E9801280F391FD6CFEF92FF920F9319
:103E90001F937B019A010027F7FC0095102FB801B2
:103EA000A7010E94001F1F910F91FF90EF900895AE
:103EB000CF92DF92EF92FF920F931F936C017B01E1
:103EC0009A010027F7FC0095102FB801A7010E9466
:103ED000001F8C01C6010E945A1E080F191FC8013D
:103EE0001F910F91FF90EF90DF90CF900895CF93A7
:103EF000DF93EC016115710599F0DB010D90002055
:103F0000E9F71197A61BB70BE881F9810280F381CD
:103F1000E02DAD0119959C01C901DF91CF91089564
:103F200020E030E0C901DF91CF9108950F931F93F6
:103F3000CF93DF93EC0161157105D9F0DB010D9092
:103F40000020E9F71197A61BB70BE881F9810280E1
:103F5000F381E02DAD0119958C01CE010E945A1E0E
:103F60009801280F391FC901DF91CF911F910F913F
:103F7000089500E010E0F1CF1F920F920FB60F925C
:103F800011242F933F938F939F93AF93BF9380916F
:103F9000C5079091C607A091C707B091C807309197
:103FA000C9070196A11DB11D232F2D5F2D3720F0CC
:103FB0002D570196A11DB11D2093C9078093C507F8
:103FC0009093C607A093C707B093C8078091C10715
:103FD0009091C207A091C307B091C4070196A11D9B
:103FE000B11D8093C1079093C207A093C307B093FC
:103FF000C407BF91AF919F918F913F912F910F90E7
:104000000FBE0F901F9018958FB7F8942091C50799
:104010003091C6074091C7075091C8078FBFB901BB
:10402000CA0108959FB7F8942091C1073091C20743
:104030004091C3075091C40786B5A89B06C08F3F27
:1040400021F02F5F3F4F4F4F5F4F9FBF542F432FA4
:10405000322F2227280F311D411D511D220F331FE2
:10406000441F551F220F331F441F551FB901CA019A
:104070000895EF92FF920F931F93CF93DF937B01ED
:104080008C010E941220E114F10401051105A9F030
:10409000EB010E9412206C1B7D0B685E7340C8F31D
:1040A0000894E108F10801091109E114F10401057E
:1040B000110519F0C851DC4FECCFDF91CF911F9162
:1040C0000F91FF90EF900895789484B5826084BD3D
:1040D00084B5816084BD85B5826085BD85B581600C
:1040E00085BDEEE6F0E0808181608083E1E8F0E06C
:1040F0001082808182608083808181608083E0E89B
:10410000F0E0808181608083E1EBF0E08081846079
:104110008083E0EBF0E0808181608083E1E9F0E082
:10412000808182608083808181608083E0E9F0E02B
:10413000808181608083E1EAF0E080818260808319
:10414000808181608083E0EAF0E08081816080830B
:10415000E1E2F1E080818260808380818160808300
:10416000E0E2F1E0808181608083EAE7F0E0808135
:10417000846080838081826080838081816080838D
:104180008081806880831092C1000895CF93DF936F
:10419000482F50E0CA0188579E4FFC0134914E5B76
:1041A0005E4FFA0184918823B9F090E0880F991F3F
:1041B000FC01EC50FF4FA591B491FC01E25FFE4F72
:1041C000C591D491662359F06230B9F09FB7F89445
:1041D0008C91832B8C939FBFDF91CF9108952FB744
:1041E000F8948C91932F909589238C9388818923BF
:1041F00088832FBFDF91CF9108952FB7F8948C91CA
:10420000932F909589238C938881832B88832FBF4C
:10421000E3CF893009F45EC08A3070F08D3009F444
:104220005FC08E30D0F0803109F46CC0813109F468
:1042300063C08F30C9F10895843009F445C08530DA
:10424000B8F08730B9F1883048F58630A1F7809111
:10425000B0008F778093B00008958B3009F446C08A
:104260008C30B0F08091A0008F7D8093A0000895E5
:10427000823031F1833030F48130E9F684B58F77C4
:1042800084BD0895809180008F7780938000089589
:1042900080919000877F8093900008958091900096
:1042A0008F77809390000895809120018F7780937D
:1042B000200108958091B0008F7D8093B000089513
:1042C00084B58F7D84BD0895809180008F7D80931B
:1042D00080000895809190008F7D809390000895D4
:1042E0008091A000877F8093A00008958091A00016
:1042F0008F778093A000089580912001877F80931D
:1043000020010895809120018F7D809320010895E0
:10431000FF920F931F93F62E482F50E0CA0182534D
:104320009E4FFC012491CA0188579E4FFC010491C5
:104330004E5B5E4FFA011491112399F02223D1F4C0
:10434000E12FF0E0EE0FFF1FE25FFE4FA591B49169
:104350009FB7F894FF2049F48C91009580238C93AB
:104360009FBF1F910F91FF9008958C91802B8C938C
:104370009FBFF7CF822F0E940921E2CF8F929F9299
:10438000AF92BF92CF92DF92EF92FF920F931F9363
:10439000CF93DF93A82FB0E0CD0188579E4FFC014B
:1043A0008490AE5BBE4FFD018491662309F03BC053
:1043B00099246FEFE62E6FEFF62E6FEF062F6FE06A
:1043C000162FE222F32204231523682F70E0660FD4
:1043D000771F685D7E4F20E030E040E050E0FB0159
:1043E000A591B49104C02F5F3F4F4F4F5F4F8C9109
:1043F00088219816D1F42E153F054007510799F7EB
:1044000020E030E040E050E0B901CA01DF91CF91F7
:104410001F910F91FF90EF90DF90CF90BF90AF90E2
:104420009F908F900895982CC4CFFB01A591B491D3
:1044300004C02F5F3F4F4F4F5F4F8C9188219816DC
:1044400031F02E153F054007510799F7D9CF8C91D0
:1044500088219816B9F5E216F3060407150781F2CC
:10446000AA24BB246501FB01C591D4910CC0D601DF
:10447000C501820F931FA41FB51FE816F9060A078E
:104480001B0709F4BDCF0894A11CB11CC11CD11C91
:1044900088818821981659F3C601B50125E130E0DD
:1044A00040E050E00E9467229B01AC01205F3F4F3B
:1044B0004F4F5F4F84E056954795379527958A95DE
:1044C000D1F7A2CF21E030E040E050E09DCF629FE5
:1044D000D001739FF001829FE00DF11D649FE00DFC
:1044E000F11D929FF00D839FF00D749FF00D659F5D
:1044F000F00D9927729FB00DE11DF91F639FB00D5C
:10450000E11DF91FBD01CF0111240895A1E21A2E6A
:10451000AA1BBB1BFD010DC0AA1FBB1FEE1FFF1F67
:10452000A217B307E407F50720F0A21BB30BE40BB7
:10453000F50B661F771F881F991F1A9469F76095FE
:104540007095809590959B01AC01BD01CF010895B8
:10455000EE0FFF1F0590F491E02D199412E0CAE1CF
:10456000D2E004C0FE010E94AA222296CC31D107DB
:06457000C9F7F894FFCF2B
:104576005665726D656C686F203D200009005665B2
:10458600726465203D2000417A756C203D20006CE8
:104596006F672E637376003B0043617274E36F535B
:1045A600442070726F6E746F207061726120757333
:1045B6006F0046616C686120616F20696E6963698E
:1045C600612063617274E36F205344002F00200062
:1045D600CE070000FFFFFFFF0000000066027F031A
:1045E60000000000F204B8050A055A057C055205CC
:1045F60000000000BA122E1E00000000A51C2E1E90
:084606003C1C6E1C4D1C981CAD
:00000001FF
