:100000000C940E010C9457200C9488200C94B92069
:100010000C94EA200C941B210C944C210C947D210F
:100020000C94AE210C943B010C943B010C943B01CD
:100030000C943B010C943B010C943B010C943B0150
:100040000C943B010C943B010C943B010C943B0140
:100050000C943B010C943B010C943B010C94DF216C
:100060000C943B010C947A190C94C61A0C943B0125
:100070000C943B010C943B010C943B010C943B0110
:100080000C943B010C943B010C943B010C943B0100
:100090000C94BA190C94051B0C943B010C943B0175
:1000A0000C943B010C943B010C943B010C943B01E0
:1000B0000C943B010C943B010C943B010C943B01D0
:1000C0000C943B010C943B010C943B010C94FA19E9
:1000D0000C94441B0C943B010C943A1A0C94831B13
:1000E0000C943B017C3C3E5E2B3D3F2F5B5D3B2CEB
:1000F0002A225C0000002100240027002A002D0095
:100100003000330001010000040107010A01000072
:100110002200250028002B002E00310034000201AF
:100120000000050108010B0100002000230026004B
:1001300029002C002F0032000001000003010601FD
:10014000090105050505070508080808020202025D
:100150000A0A080804040404010101010101010163
:100160000303030303030303040707070C0C0C0C2E
:100170000C0C0C0C02020202060606060606060617
:100180000B0B0B0B0B0B0B0B0102102020080810A4
:1001900020401020408002010201080402010102F7
:1001A00004081020408080402010080402018004D0
:1001B000020180402010080402010804020101022B
:1001C0000408102040800102040810204080000034
:1001D000090A02080B0C0D070603040100000000C9
:1001E000000000000000000000000000000000000F
:1001F0000000000000000000000011100F000000CF
:1002000000000000000000000000000000000000EE
:1002100000000000CF032806FB1CC80311241FBEEA
:10022000CFEFD1E2DEBFCDBF00E00CBF12E0A0E017
:10023000B2E0ECEBF9E400E00BBF02C007900D92D6
:10024000A63AB107D9F71BBE17E0A6EAB2E001C093
:100250001D92A23FB107E1F712E0CAE1D2E004C06B
:100260002297FE010E94CD24C431D107C9F70E9414
:10027000311E0C94D1240C940000CF93DF93BC0169
:100280008230910510F462E070E0A091F007B09127
:10029000F107ED01E0E0F0E040E050E021C08881AE
:1002A00099818617970769F48A819B81309719F0A5
:1002B0009383828304C09093F1078093F007FE013B
:1002C00034C06817790738F44115510519F08417BF
:1002D000950708F4AC01FE018A819B819C01E9012C
:1002E0002097E9F641155105A9F1CA01861B970B24
:1002F000049708F4BA01E0E0F0E02AC08D919C91E7
:10030000119784179507F9F46417750781F412960D
:100310008D919C911397309719F09383828304C039
:100320009093F1078093F007FD0132964CC0CA010B
:10033000861B970BFD01E80FF91F619371930297DC
:100340008D939C9340C0FD01828193819C01D901D2
:100350001097A1F68091EE079091EF07892B41F459
:1003600080916002909161029093EF078093EE0775
:1003700040916202509163024115510541F44DB71D
:100380005EB780915E0290915F02481B590B2091ED
:10039000EE073091EF07CA01821B930B8617970770
:1003A00080F0AB014E5F5F4F8417950750F0420F0E
:1003B000531F5093EF074093EE07F9016193719338
:1003C00002C0E0E0F0E0CF01DF91CF910895CF933C
:1003D000DF93009709F450C0EC0122971B821A8228
:1003E000A091F007B091F107109709F140E050E0BB
:1003F000AC17BD0708F1BB83AA83FE01219131919F
:10040000E20FF31FAE17BF0779F48D919C911197FE
:10041000280F391F2E5F3F4F3983288312968D9105
:100420009C9113979B838A834115510571F4D09356
:10043000F107C093F00720C012968D919C911397FD
:10044000AD01009711F0DC01D3CFFA01D383C28351
:1004500021913191E20FF31FCE17DF0769F48881F4
:100460009981280F391F2E5F3F4FFA013183208376
:100470008A819B8193838283DF91CF910895FB01D1
:10048000DC0104C08D910190801921F4415050404D
:10049000C8F7881B990B0895FC018191861721F0FC
:1004A0008823D9F7992708953197CF010895FB0143
:1004B000DC014150504048F001900D920020C9F7F6
:1004C00001C01D9241505040E0F70895FC018CE6B8
:1004D00092E09183808308950F931F938C01FC0118
:1004E000828160E00E94AB23F801848161E00E9478
:1004F000AB231F910F910895FC01662329F4848595
:1005000061E00E94AB230895848560E00E94AB23E4
:1005100008950F931F938C01FC01868160E00E9477
:10052000AB23F801808561E00E94AB23F80182854E
:1005300060E020E432E44FE050E00E94E123F80163
:10054000628B738BCB011F910F9108950F931F93B3
:100550008C01FC01868161E00E94AB23F80180855B
:1005600061E00E94AB23F801828560E020E432E480
:100570004FE050E00E94E123F801608B718BCB01CA
:100580001F910F9108950F931F938C01FC01868199
:1005900060E00E94AB23F801808560E00E94AB23FD
:1005A000F801828560E020E432E44FE050E00E94F0
:1005B000E123F80166877787CB011F910F9108959A
:1005C000FC01862F6287738760E00E94E92208950C
:1005D000FC01862F6087718761E00E94E9220895FF
:1005E000FC01862F6683778361E00E94E9220895EB
:1005F000FC01862F6483758361E00E94E9220895DF
:10060000FC01862F6283738361E00E94E9220895D2
:10061000FC01862F6487758761E00E94E9220895B6
:100620004F925F926F927F928F929F92AF92BF9202
:10063000CF92DF92EF92FF920F931F934C013A01FA
:1006400029018CE692E0F40191838083C4010E9429
:100650000803C401B3010E940003C401B2010E9457
:10066000F802C401B8010E94F002C401B7010E945F
:10067000E802C401B6010E94E002C401B5010E9473
:100680006C021F910F91FF90EF90DF90CF90BF9081
:10069000AF909F908F907F906F905F904F90089554
:1006A000FC018CE692E091838083CF010E94451E7D
:1006B0000895FC0184E792E0918380830895FC0112
:1006C00084E792E091838083CF010E94451E0895C4
:1006D000FC01828160E00E94AB230895FC01862F1B
:1006E0006283738361E00E94E9220895FC0184E73C
:1006F00092E091838083CF010E946E030895AF92B0
:10070000BF92CF92DF92EF92FF920F931F938130AF
:10071000910571F0892B19F46F5F7F4F61F11F9183
:100720000F91FF90EF90DF90CF90BF90AF90089522
:100730006F5F7F4FA1F786EA92E00E94F30481EC9D
:1007400092E061E370E042E350E023E330E004E351
:1007500010E0A5E3EA2EF12CF0E3CF2ED12CE2E05D
:10076000AE2EB12C0E94100385ED92E06EE170E098
:100770000E947603D4CF85ED92E00E94590381EC6C
:1007800092E00E94660286EA92E00E940605C7CFC8
:1007900080E090E06FEF7FEF0E947F03089581E09B
:1007A00090E06FEF7FEF0E947F03089564EF71E0A8
:1007B00080E090E00E945C2208958DE497E040E89C
:1007C00055E260E070E026E00E94C21B81EC92E0FE
:1007D00061E00E947C0281EC92E062E070E00E94A5
:1007E0006C0285ED92E00E9468038FEF90E0909399
:1007F000DA028093D90280E067E174E043E050E0E0
:100800000E94D61F8BED92E064E00E944B06882385
:1008100039F48DE497E069E172E00E94B01F089519
:100820008DE497E060E072E00E94B01F0895AF92FF
:10083000BF92CF92DF92EF92FF920F931F93DF93BD
:10084000CF93CDB7DEB76B970FB6F894DEBF0FBE70
:10085000CDBF85ED92E00E9468038DE497E063E3ED
:1008600072E00E94911F81EC92E00E94C302B82EB8
:10087000A92E8DE497E06B2D7A2D4AE050E00E947E
:100880005F1F8DE497E06FE372E00E94911F8DE49B
:1008900097E061E472E00E94911F81EC92E00E9477
:1008A000A602D82EC92E8DE497E06D2D7C2D4AE04E
:1008B00050E00E945F1F8DE497E06FE372E00E94BA
:1008C000911F8DE497E06AE472E00E94911F81EC31
:1008D00092E00E948902F82EE92E8DE497E06F2DB8
:1008E0007E2D4AE050E00E94721F8E010F5F1F4F65
:1008F000C8016BED72E042E552E023E10E94A107DE
:100900008B819C819093A9028093A8028D819E8106
:10091000AF81B8858093AA029093AB02A093AC02FA
:10092000B093AD0289859A85AB85BC858093AE0274
:100930009093AF02A093B002B093B102A2EBB2E0E9
:10094000FE013D968DE001900D928150E1F78A8D78
:100950009B8D9093C0028093BF02C8010E94060540
:1009600086EA92E00E944B05882321F186EA92E014
:100970006B2D7A2D4AE050E00E945F1F86EA92E0DC
:100980006AE572E00E94911F86EA92E06D2D7C2D4F
:100990004AE050E00E945F1F86EA92E06AE572E05A
:1009A0000E94911F86EA92E06F2D7E2D4AE050E072
:1009B0000E94721F86EA92E00E945A056B960FB65B
:1009C000F894DEBF0FBECDBFCF91DF911F910F9185
:1009D000FF90EF90DF90CF90BF90AF90089580E0B0
:1009E00090E008950895FC011382128288EE93E04E
:1009F000A0E0B0E084839583A683B7838CE792E080
:100A000091838083128E118E14860895FC018CE7E9
:100A100092E0918380830895DF93CF930F92CDB7B7
:100A2000DEB7FC016983A081B18112962D913C91C2
:100A30001397BE016F5F7F4F41E050E0F9011995B8
:100A40000F90CF91DF910895DC015996ED91FC91C3
:100A50005A973097E1F023893489458956898285F0
:100A60009385A485B585281B390B4A0B5B0B203079
:100A7000B0E83B07B0E04B07B0E05B0710F4C901FA
:100A800008952FEF3FE740E050E0C901089520E0CE
:100A900030E0C9010895DC015996ED91FC915A9717
:100AA000309731F08581882309F4089581E0089515
:100AB00080E00895CF93DF93EC01898D9A8D0097A4
:100AC00041F00E94720D898D9A8D0E94E7011A8E65
:100AD000198EDF91CF910895FC01818D928D009741
:100AE00011F00E94230D0895DF93CF930F92CDB79D
:100AF000DEB7FC01818D928D009749F0BE016F5FDA
:100B00007F4F41E050E00E944F0E019739F02FEFE8
:100B10003FEFC9010F90CF91DF9108958981282F70
:100B200030E0C9010F90CF91DF910895EF92FF92CD
:100B30000F931F93DF93CF930F92CDB7DEB77C0156
:100B4000DC0159968D919C915A970097A1F0BE01B6
:100B50006F5F7F4F41E050E00E944F0E019771F0B0
:100B60000FEF1FEFC8010F90CF91DF911F910F91F1
:100B7000FF90EF90089500E010E0F4CF8981082FF6
:100B800010E0D7015996ED91FC915A974285538513
:100B9000648575854150504060407040CF010E948F
:100BA0005A0CE0CFCF93DF93EC01E98DFA8D3097AB
:100BB00061F013821282CF010E94F8109C01E98D2E
:100BC000FA8D82819381892B31F081E090E09B83C3
:100BD0008A8320E030E0C901DF91CF910895EF9240
:100BE000FF920F931F93CF93DF93EC01162F072FE4
:100BF0007A011B821A8288EE93E0A0E0B0E08C8339
:100C00009D83AE83BF838CE792E0998388838DE1D7
:100C100090E00E943D019A8F898F009791F0DC014E
:100C2000812F902F9C01F9018DE101900D9281504F
:100C3000E1F7CE010C96B7014CE050E00E9457025C
:100C4000188EDF91CF911F910F91FF90EF90089533
:100C50001092E0021092E1021092E4021092E60279
:100C600082E090E0A0E0B0E08093E7029093E80299
:100C7000A093E902B093EA021092FE0210920803D8
:100C8000109207038EE892E0909306038093050389
:100C900010920A0308950F931F93CF93DF93EC01F3
:100CA000462F61E00E94480B882331F480E0DF91F9
:100CB000CF911F910F9108958E01045F1F4FC801BE
:100CC000BE0141E00E94F314882349F0CE018A96C8
:100CD000B8010E94F80F882351F381E0E8CFC801E2
:100CE000BE0140E00E94F314882301F3EFCF2F925E
:100CF0003F924F925F926F927F928F929F92AF92AC
:100D0000BF92CF92DF92EF92FF920F931F93DF93E8
:100D1000CF93CDB7DEB7C954D0400FB6F894DEBF3D
:100D20000FBECDBF382E292EFB012A012A963FAFD8
:100D30002EAF2A9784A595A5998B888B5EE8652EA2
:100D400052E0752E7F866E8686A58A8B87A58B8B53
:100D500080A991A9A2A9B3A98C8B9D8BAE8BBF8BC7
:100D600084A995A9A6A9B7A9888F998FAA8FBB8FA7
:100D700080AD91ADA2ADB3AD8C8F9D8FAE8FBF8F87
:100D800084AD88A3FD9681919191A191B19189A3A0
:100D90009AA3ABA3BCA381919191A191B1918DA391
:100DA0009EA3AFA3B8A7808191819AA789A71EA609
:100DB0001DA67CA66BA618AA82014EE0C42ED12CDB
:100DC000CC0EDD1E3BE2A32EB12CAC0EBD1E4E019F
:100DD0000894811C911CC8016FE270E00E944C02D3
:100DE0009C01009779F0D8018C918F3209F07DC079
:100DF0000F5F1F4FC8016FE270E00E944C029C0120
:100E0000009789F7041915092A96EEADFFAD2A97C8
:100E100011830083E32DF22DD60112968D919C91C2
:100E20001397938382837182608214968C911497B6
:100E3000848315968C911597858316962D913D91F7
:100E40004D915C91199726833783408751871A9675
:100E50002D913D914D915C911D9722873387448759
:100E600055871E962D913D914D915C915197268706
:100E70003787408B518B52968C915297828B539629
:100E80002D913D914D915C915697238B348B458BE1
:100E9000568B57962D913D914D915C915A97278B8A
:100EA000308F418F528F5B968D919C915C97948F80
:100EB000838F832D922DC75BDF4F0FB6F894DEBF73
:100EC0000FBECDBFCF91DF911F910F91FF90EF909B
:100ED000DF90CF90BF90AF909F908F907F906F905A
:100EE0005F904F903F902F900895422F401B4D30C0
:100EF00008F04CE0E42EFF24C401B801A7010E94D1
:100F00005702F401EE0DFF1D1082C5010E94720D03
:100F1000C501B601A40121E00E944813882349F0CD
:100F20000E0D1F1DC6010E94720DC50156016C01F8
:100F300052CFE32DF22D13821282718260821582CC
:100F4000B8CF2F923F924F925F926F927F929F9273
:100F5000AF92BF92CF92DF92EF92FF920F931F93C7
:100F6000DF93CF93CDB7DEB7C657D0400FB6F89416
:100F7000DEBF0FBECDBFA82E992E8A01B22EB3E0E0
:100F8000CB2ED12CCC0EDD1EC6019E012F5F3F4F14
:100F90000E947706E980FA80E00EF11EF701808159
:100FA000882309F4C5C0AFE34A2E512C4C0E5D1EB8
:100FB000F20111821082FEE86F2EF2E07F2E7EAEEB
:100FC0006DAEE2E42E2E312C2C0E3D1EF10110826E
:100FD0008885882309F48DC08250823008F47CC053
:100FE0008E01035C1F4FC801B601A7012B2D0E9483
:100FF0004813882309F47DC0C6010E94720DF6E0F3
:10100000BF2209F0D9C070E5C72ED12CCC0EDD1E51
:101010009E01265A3F4FF20180819181F90193830D
:10102000828371826082FE01EF5BFF4F8081F90154
:101030008483F1018081F9018583FE01ED5BFF4F1F
:1010400080819181A281B381F90186839783A087F2
:10105000B187FE01E95BFF4F80819181A281B3815D
:10106000F90182879387A487B587FE01E55BFF4F6F
:1010700080819181A281B381F90186879787A08BB6
:10108000B18BFE01E15BFF4F8081F901828BF6019C
:1010900080819181A281B381F901838B948BA58B8F
:1010A000B68BFE01EC5AFF4F80819181A281B38102
:1010B000F901878B908FA18FB28FFE01E85AFF4F05
:1010C00080819181F901948F838F8A2D992DB901A7
:1010D000A7010E94EF0511C08E01035C1F4FC801DC
:1010E00065E073E0A7012B2D0E944813882309F0C7
:1010F00086CF8A2D992D0E94F3048A2D992DCA58E6
:10110000DF4F0FB6F894DEBF0FBECDBFCF91DF919A
:101110001F910F91FF90EF90DF90CF90BF90AF9015
:101120009F907F906F905F904F903F902F90089589
:101130008D819E819BA38AA38EE892E099A388A3C8
:101140008F818CA388858DA389859A85AB85BC8585
:101150008EA39FA3A8A7B9A78D859E85AF85B889C3
:101160008AA79BA7ACA7BDA789899A89AB89BC89A7
:101170008EA79FA7A8ABB9AB8D898AAB8E899F89B3
:10118000A88DB98D8BAB9CABADABBEAB8A8D9B8D67
:10119000AC8DBD8D8FAB98AFA9AFBAAF8E8D9F8D43
:1011A0009CAF8BAF8A2D992DBE01605E7F4F4CE5C1
:1011B00052E00E94EF05A1CF60E5C62ED12CCC0EE7
:1011C000DD1EF6014081518162817381C8010E9458
:1011D0005A0C1ECFFC01673020F5262F30E060FF4F
:1011E00013C08DB58E7F8DBD8CB58C7F8CBD4CB5FD
:1011F00022FD15C090E036952795822F8170842BB3
:10120000892B8CBD81E00895663059F38DB58160DE
:101210008DBD8CB58C7F8CBD4CB522FFEBCF92E0A1
:10122000EACF86E1858380E00895FF920F931F93B4
:10123000CF93DF938B010E942722EB01FF24FA94C6
:10124000FEBC0DB407FEFDCF8EB58F3F71F00E943E
:1012500027226C1B7D0B6017710790F380E0DF91F4
:10126000CF911F910F91FF90089581E0DF91CF9171
:101270001F910F91FF900895FC01848160E00E940E
:10128000AB230895FC01848161E00E94AB230895A3
:10129000DC016EBDFA0120E030E00DB407FEFDCFA9
:1012A00080818EBD0DB407FEFDCF81818EBD2E5F86
:1012B0003F4F329682E02030380779F70DB407FEB1
:1012C000FDCF8FEF8EBD0DB407FEFDCF8FEF8EBD2E
:1012D0000DB407FEFDCF8FEF8EBD0DB407FEFDCF21
:1012E0008EB51A968C931A978F71853049F081E1EB
:1012F00015968C931597CD010E94420980E00895C0
:1013000081E00895FF920F931F93CF93DF93EC0139
:101310000E9427228B01FF24FA94FEBC0DB407FE25
:10132000FDCF8EB58A878F3F99F40E942722601BDC
:10133000710B6D52714088F38FE08D83CE010E9456
:10134000420980E0DF91CF911F910F91FF900895A6
:101350008E3F19F08DE08D83F1CF81E0F3CFCF93F5
:10136000DF93EC018E81882309F18FEF8EBD8F8191
:1013700098859C012F5F3F4F38872F838150924083
:1013800070F44FEF0DB407FEFDCF4EBD2F5F3F4F02
:10139000C901019781509240A8F338872F830DB47B
:1013A00007FEFDCFCE010E9442091E82DF91CF9140
:1013B0000895DF92EF92FF920F931F93CF93DF93E5
:1013C000EC01D62E79018A010E94AF09CE010E945C
:1013D0003C09CE016CE271E00E9415098D2D8064FC
:1013E0008EBD0DB407FEFDCF28E130E0D801C70166
:1013F000022E04C0B695A795979587950A94D2F7C3
:101400008EBD0DB407FEFDCF285030408FEF283F32
:10141000380761F7DD20D1F485E98EBD0DB407FEF4
:10142000FDCF90E02FEF2EBD0DB407FEFDCF8EB5A2
:1014300087FD09C08A87DF91CF911F910F91FF909F
:10144000EF90DF900895915071F7F4CF88E0D816AF
:1014500011F487E8E2CF8FEFE0CFCF92DF92EF92E7
:10146000FF920F931F93CF93DF93EC017A018B01CF
:101470006901411551056105710579F482E18D839A
:10148000CE010E94420980E0DF91CF911F910F9120
:10149000FF90EF90DF90CF9008958B85833039F0E7
:1014A00029E0EE0CFF1C001F111F2A95D1F7CE0179
:1014B00068E1A80197010E94D909882319F084E006
:1014C0008D83DECFCE016EEFA6010E9448098823EE
:1014D000B9F2CE0168E572E00E941509882319F47B
:1014E00085E18D83CDCFCE016DE020E030E040E09E
:1014F00050E00E94D909882319F084E18D83C0CF80
:101500008FEF8EBD0DB407FEFDCF8EB58823A9F7F2
:10151000CE010E94420981E0B7CF8F929F92AF9295
:10152000BF92CF92DF92EF92FF920F931F93CF93D0
:10153000DF93EC015A016B0149010115110509F412
:101540007FC0C801820F931F81509240E0F48E81CA
:10155000882309F077C0A882B982CA82DB828B8592
:10156000833039F069E0AA0CBB1CCC1CDD1C6A95E9
:10157000D1F7CE0161E1A60195010E94D909882326
:1015800099F083E08D83CE010E94420980E0DF91D3
:10159000CF911F910F91FF90EF90DF90CF90BF9070
:1015A000AF909F908F900895CE010E94820988236A
:1015B00051F318861F8281E08E8320E030E08FEFA8
:1015C0008EBD28153905A8F4C9014FEF0DB407FEEB
:1015D000FDCF4EBD019688159905C0F30894811C76
:1015E000911C820E931E20953095280D391D388749
:1015F0002F83D801119789F020E030E09FEF0DB4E0
:1016000007FEFDCF8EB5F701E20FF31F80839EBD6D
:101610002F5F3F4F2A173B0790F30DB407FEFDCF16
:101620008EB5AE0DBF1D8C932F813885200F311FD5
:1016300038872F8389858823B1F02050324098F471
:1016400081E0A5CF88819981AA81BB818417950704
:10165000A607B70709F07FCF2F813885821693063A
:1016600008F0ADCF78CFCE010E94AF0981E08FCFD7
:10167000EF92FF920F931F93790120E030E000E09A
:1016800012E00E948D0A1F910F91FF90EF90089534
:10169000BF92CF92DF92EF92FF920F931F93CF935F
:1016A000DF93EC01B62E1B8619861E821D824C83A9
:1016B0000E9427226B018C8161E00E94E922CE0109
:1016C0000E94420982E360E00E94E92283E361E034
:1016D0000E94E92284E361E00E94E92285E361E05F
:1016E0000E94E92285E361E00E94AB2383E58CBD83
:1016F0008DB58E7F8DBD80E09FEF9EBD0DB407FE42
:10170000FDCF8F5F8A30C9F7CE010E943C09CE0120
:1017100060E020E030E040E050E00E94D909182F5E
:101720008A878130B9F00E9427226C197D09615D9A
:10173000774068F381E08D83CE010E94420980E00A
:10174000DF91CF911F910F91FF90EF90DF90CF909D
:10175000BF900895CE0168E02AEA31E040E050E011
:101760000E94D90982FF1FC01B87EE24FF24870136
:10177000CE0167E320E030E040E050E00E94D9096C
:10178000CE0169E2A80197010E94D9098A878823BE
:10179000D1F00E9427226C197D09615D774040F3EA
:1017A00088E08D83C9CF80E02FEF2EBD0DB407FEFA
:1017B000FDCF9EB58F5F8430C1F79A879A3A71F05A
:1017C00082E08D83B9CF8B85823081F0CE010E947B
:1017D0004209CE016B2D0E94EA08B2CF82E08B87CE
:1017E000E12CF12C012DF0E41F2FC2CFCE016AE3D2
:1017F00020E030E040E050E00E94D909882319F051
:1018000086E08D8399CF8FEF8EBD0DB407FEFDCF9F
:101810008EB5807C803C59F080E09FEF9EBD0DB47A
:1018200007FEFDCF2EB58F5F8330C1F7CFCF83E0AA
:101830008B87F2CFCF93DF93EC01DB0180E090E068
:1018400020E2FD01E80FF91F208301968B309105FE
:10185000C1F757E040E03991332331F13E3271F066
:1018600084EE90E0FC0101962491222361F032176E
:10187000C9F790E0892FDF91CF9108955A30C9F3CD
:101880005AE048E0E8CF5417A0F3313290F33F37E5
:1018900080F7832F81568A3108F43052FD01E40F1E
:1018A000F11D30834F5FD7CF90E08C91803211F3E0
:1018B00091E0E0CF6F927F928F929F92AF92BF9212
:1018C000CF92DF92EF92FF920F931F93CF93DF930C
:1018D000EC015A016B012D81222349F08B899C89EF
:1018E000AD89BE8984179507A607B70780F480E005
:1018F000DF91CF911F910F91FF90EF90DF90CF90EC
:10190000BF90AF909F908F907F906F9008952230FE
:1019100009F45CC0A114B104C104D10409F466C087
:101920002A853B854C855D85EB8DFC8D858590E01A
:101930000996215030404040504039014A01082E5C
:1019400004C096948794779467940A94D2F72F5F93
:101950003F4F4F4F5F4F0894A108B108C108D1080D
:101960008601750104C016950795F794E7948A954A
:10197000D2F70894A11CB11CC11CD11CE614F704B9
:101980000805190548F58F89988DA98DBA8D8E8324
:101990009F83A887B98786E0882E912C8C0E9D1E88
:1019A000E114F1040105110589F04E815F8168851C
:1019B00079858B8D9C8D94010E94E8160894E1082E
:1019C000F10801091109882359F791CFAA86BB862E
:1019D000CC86DD8681E08CCF21153105410551058E
:1019E00091F2E618F70808091909D5CF1E821F825F
:1019F000188619861A861B861C861D8681E078CF7C
:101A0000CF93DF93EC01462F6E857F858889998976
:101A10000E94B314882389F08A89282F30E0220F8E
:101A2000331F22953295307F3227207F32272A5D5F
:101A30003C4FC901DF91CF91089520E030E0C9010A
:101A4000DF91CF9108950F931F93CF93DF93EC0114
:101A50008D81882351F08C8187FD0DC00E94511427
:101A6000DF91CF911F910F91089580E0DF91CF9189
:101A70001F910F910895CE0161E00E94000D8C012D
:101A8000009799F38D81823018F18F89988DF80134
:101A9000938F828F8F89988DA98DBA8DCD01AA27BA
:101AA000BB27958B848BE0912403F091250330971D
:101AB00059F0B8016A5E7F4FC80148961995F80140
:101AC000808D918D938B828B8C818F778C83C6CF09
:101AD0008B899C89AD89BE89F801848F958FA68FEB
:101AE000B78FD3CFCF93DF93EC010E94230D8823D0
:101AF00011F01D8281E0DF91CF9108956F927F9266
:101B00008F929F92AF92BF92CF92DF92EF92FF920D
:101B10000F931F93DF93CF9300D00F92CDB7DEB713
:101B20007C015A016B01DC0115968C91159781306F
:101B3000A1F080E00F900F900F900F90CF91DF9168
:101B40001F910F91FF90EF90DF90CF90BF90AF90DB
:101B50009F908F907F906F90089514968C9181FF45
:101B6000E8CFF70183899489A589B68984179507F9
:101B7000A607B707F0F20097A105B10509F45BC00D
:101B8000F7016284738484849584C701B601A5013A
:101B90000E945A0C882369F2A114B104C104D10433
:101BA00009F44BC0D70116964D915D916D917C91D2
:101BB00019975B968D919C915C979E012F5F3F4F8B
:101BC0000E94E816882309F4B4CFD7015B96ED9103
:101BD000FC915C9749815A816B817C818789803136
:101BE00009F458C088EF9FEFAFEFBFE048175907DF
:101BF0006A077B07C0F1D7015396AD92BD92CD9293
:101C0000DC92569714968C911497806814968C9356
:101C1000C7010E94230D882309F48BCFB601A501CB
:101C20006A147B048C049D0410F4B401A301C70161
:101C30000E945A0C7FCF81E07DCFD70157964D91FE
:101C40005D916D917C915A975B968D919C915C977B
:101C50000E946217882309F46CCFF701178A108E4F
:101C6000118E128EC8CFCF010E946217882309F40B
:101C700060CFF7014681578160857185838D948D92
:101C80000FEF1FEF2FEF3FE00E944916882309F066
:101C9000B2CF4FCF88EF9FEFA0E0B0E0A7CF2F9259
:101CA0003F924F925F926F927F928F929F92AF92EC
:101CB000BF92CF92DF92EF92FF920F931F93DF9329
:101CC000CF9300D00F92CDB7DEB76C015C834B830E
:101CD000DC011596EC911597EE2321F014968C916A
:101CE00080FD1AC04FEF5FEFCA010F900F900F9069
:101CF0000F90CF91DF911F910F91FF90EF90DF90A8
:101D0000CF90BF90AF909F908F907F906F905F909B
:101D10004F903F902F900895D60153966D907D90EF
:101D20008D909C9056971A96ED90FD900D911C9178
:101D30001D978B819C819C0140E050E0D401C30140
:101D40008E199F09A00BB10B82179307A407B50743
:101D500008F4C6C0AB81BC81109709F4E4C02B0124
:101D6000C60106969A8389833D01212C52E0352EC7
:101D70004FEF842E41E0942E8E209F20E23009F414
:101D800098C0D6015B96ED91FC915C97D801C70194
:101D900029E0B695A795979587952A95D1F7B480B0
:101DA000BA94B82281149104A9F4BB2099F4E114E7
:101DB000F1040105110509F0B9C0D60157962D911E
:101DC0003D914D915C915A9716962D933D934D936D
:101DD0005C931997D60116964D915D916D917C910A
:101DE00019974250504060407040058404C0440F31
:101DF000551F661F771F0A94D2F786859785A0899D
:101E0000B189480F591F6A1F7B1F4B0D511D611D62
:101E1000711D5101A818B9086A147B0408F4530114
:101E2000F601848186FD62C0F0E0AF16F2E0BF06E5
:101E300009F45CC0CB01BA0140E00E94B3148823CE
:101E400009F450CF94012A5D3C4FA9014A0D5B1D56
:101E50002417350759F0D201F90181918D934E175E
:101E60005F07D9F7421B530B440E551E750100E066
:101E700010E0F60182859385A485B585E80EF91EEC
:101E80000A1F1B1FD6011A96ED92FD920D931C930B
:101E90001D976A187B0809F446C0D6011596EC9187
:101EA0004FEF842E41E0942E8E209F20E23009F0E7
:101EB00068CFB801A70139E07695679557954795A2
:101EC0003A95D1F7D6015B96ED91FC915C97828DA6
:101ED000938DA48DB58D480F591F6A1F7B1F99CF15
:101EE000C3018E199F099C838B8334CF8091640238
:101EF00090916502A0916602B09167024817590758
:101F00006A077B0709F496CF8091260590912705F3
:101F10009401850172010E948D0A882309F4E2CEA2
:101F20004A0C5B1CA3CF4B815C81DECED60116969A
:101F30004D915D916D917C911997CF0129813A81E5
:101F40000E94E816882309F4CDCED6015B96ED9168
:101F5000FC915C973FCFCF92DF92EF92FF920F936D
:101F60001F93DF93CF930F92CDB7DEB78C01FC01A7
:101F70008581823068F420E030E0C9010F90CF9174
:101F8000DF911F910F91FF90EF90DF90CF90089518
:101F9000C284D384E484F584C801BE016F5F7F4F9F
:101FA00041E050E00E944F0E019729F7F801828529
:101FB0009385A485B5854F96A11DB11D8287938712
:101FC000A487B58775E0F694E794D794C7947A957B
:101FD000D1F78C2D8F70282F30E0220F331F2295E0
:101FE0003295307F3227207F32272A5D3C4FC5CF84
:101FF0000F931F93CF93DF93EC018B018D81882387
:1020000031F4FB018789803141F08032F1F180E0C9
:10201000DF91CF911F910F91089582E08D831F8AE8
:10202000188E198E1A8E808D918DA0E0B0E0880FE9
:10203000991FAA1FBB1F880F991FAA1FBB1F880FBC
:10204000991FAA1FBB1F880F991FAA1FBB1F880FAC
:10205000991FAA1FBB1F8B8B9C8BAD8BBE8B1C8FBC
:102060000B8F81E08C831E821F82188619861A8648
:102070001B861C861D861E861F86188A198A1A8A48
:10208000DF91CF911F910F91089583E08D83FB0124
:10209000428D538D648D758D4F8B588F698F7A8FDC
:1020A0009E012D5E3F4FC8010E94C0178823B9F6DC
:1020B000AECF1F93CF93DF93EC01142FE62FF0E008
:1020C000EE0FFF1FE295F295F07FFE27E07FFE27DF
:1020D000EA5DFC4F8385817121F0842F827409F0C1
:1020E00044C06A8B8091640290916502A09166025F
:1020F000B09167028E879F87A88BB98B8489958959
:10210000A0E0B0E0BC0155274427828D938DA0E06C
:10211000B0E0482B592B6A2B7B2B4F8B588F698F44
:102120007A8F838590E0887190700097E1F4848DB8
:10213000958DA68DB78D8B8B9C8BAD8BBE8B81E0E7
:102140008D83812F8F708C831E821F821886198643
:102150001A861B861C861D8616FD18C081E0DF913D
:10216000CF911F910895409729F080E0DF91CF91A2
:102170001F9108959E012D5E3F4F8B8D9C8D0E9477
:10218000C017882391F384E08D83DBCFCE0140E03C
:1021900050E060E070E00E947E0DDF91CF911F91D2
:1021A0000895CF93DF93EC019C012A5F3F4F8B8D05
:1021B0009C8D41E050E060E070E00E943018882380
:1021C000A1F08F89988DA98DBA8D0097A105B105D1
:1021D00059F48E819F81A885B9858F8B988FA98F9F
:1021E000BA8F8C8180688C8381E0DF91CF910895D4
:1021F0002F923F924F925F926F927F929F92AF92F7
:10220000BF92CF92DF92EF92FF920F931F93DF93D3
:10221000CF9300D000D0CDB7DEB75C01F62EE72E0D
:102220005E834D83DC0115968C911597813019F1F1
:1022300081E090E0D50113969C938E9312971E82B5
:102240001D828D819E8126960FB6F894DEBF0FBE4B
:10225000CDBFCF91DF911F910F91FF90EF90DF9055
:10226000CF90BF90AF909F907F906F905F904F9076
:102270003F902F90089514968C9181FFD9CF82FDC5
:1022800054C1F5014285538564857585ED81FE81D4
:10229000309709F4C0C08F2D9E2D9C0119012F018C
:1022A000D5015B96ED91FC915C97DB01CA0119E0C9
:1022B000B695A795979587951A95D1F794809A9496
:1022C0009822AFEF6A2EA1E07A2E6422752299201F
:1022D00019F56114710401F5D50116964D915D91C2
:1022E0006D917C911997411551056105710509F0B2
:1022F000F1C057962D913D914D915C915A972115C2
:1023000031054105510509F404C1D50116962D93F7
:102310003D934D935C93199780E092E0861997095D
:1023200062018415950508F46C01D5011696ED90AF
:10233000FD900D911C9119978EEF9FEFAFEFBFEFBE
:10234000E80EF91E0A1F1B1F058404C0EE0CFF1CBB
:10235000001F111F0A94D2F786859785A089B1893D
:10236000E80EF91E0A1F1B1FE90CF11C011D111DAF
:1023700090E0C91692E0D90609F46EC061147104A8
:1023800079F4F501228533854485558583899489BF
:10239000A589B689281739074A075B0708F07AC06C
:1023A000C801B70141E00E94B314882309F440CF6B
:1023B000A3014A5D5C4F9A012C0D3D1D4217530746
:1023C00089F0D101FA018D9181932E173F07D9F73A
:1023D000CA01019641E050E0481B590B240F351FFC
:1023E000220E331E4C185D08C601A0E0B0E0F501D6
:1023F0004285538564857585480F591F6A1F7B1F69
:10240000D5011A964D935D936D937C931D9741145E
:10241000510409F045CFF50183899489A589B689CE
:1024200084179507A607B70708F0A3C0D5015396F0
:102430004D935D936D937C93569714968C9114975E
:10244000806814968C9383FFFCCEC5010E94230DF7
:10245000882309F4EDCEF5CE809164029091650257
:10246000A0916602B09167028E159F05A007B10783
:1024700021F18091260590912705B801A7019101CE
:102480000E942D0A882309F4D3CEA0E0B2E02A0EE0
:102490003B1EA8CF0E945114882309F4C9CEE092B4
:1024A0006402F092650200936602109367028091C5
:1024B00028058160809328057BCF8FEF9FEFAFEFDA
:1024C000BFEF8093640290936502A0936602B0937D
:1024D0006702CFCFCF019E012F5F3F4F0E94E816CA
:1024E000882309F4ACCE29813A814B815C81D501E6
:1024F0005B96ED91FC915C9787898031A9F188EF1B
:102500009FEFAFEFBFE0281739074A075B0708F4D2
:10251000FCCEC5010E94D110882309F489CED501D3
:102520005B96ED91FC915C97F7CEF50103891489D8
:1025300025893689428553856485758540175107FD
:102540006207730709F4A2CEC501B901A8010E9470
:102550005A0C882309F46CCED5011A964D915D91E1
:102560006D917C911D9792CE88EF9FEFA0E0B0E037
:10257000CACF8091240390912503892B69F04D8166
:102580005E81452B21F4D50114968C915CCFF50129
:1025900084818068848357CFF501848154CFDF9391
:1025A000CF930F92CDB7DEB76983BE016F5F7F4FC8
:1025B00041E050E00E94F8100F90CF91DF91089514
:1025C000DF92EF92FF920F931F93CF93DF93EC0173
:1025D0000E94D110882381F1EB8DFC8D8E819F812B
:1025E000A885B98526853785408951896585D48038
:1025F000DD2071F179018A010894E108F1080109EF
:1026000011090297A109B10904C0880F991FAA1FD7
:10261000BB1F6A95D2F7E80EF91E0A1F1B1F02C0E6
:10262000DA9499F0C801B7016D0D711D811D911DDE
:102630000E948F148823A1F780E0DF91CF911F9132
:102640000F91FF90EF90DF900895EB8DFC8D6585E5
:1026500020E032E040E050E004C0220F331F441F6E
:10266000551F6A95D2F78B899C89AD89BE89820FE7
:10267000931FA41FB51F8B8B9C8BAD8BBE8B81E0F2
:10268000DF91CF911F910F91FF90EF90DF90089510
:102690006F927F928F929F92AF92BF92CF92DF9272
:1026A000EF92FF920F931F93DF93CF93CDB7DEB7D7
:1026B0002B970FB6F894DEBF0FBECDBF4C016B0158
:1026C000A22EDC0115968C918823B1F080E02B9628
:1026D0000FB6F894DEBF0FBECDBFCF91DF911F9133
:1026E0000F91FF90EF90DF90CF90BF90AF909F90B1
:1026F0008F907F906F900895CA013E010894611CED
:10270000711CB3010E941A0C882301F3F601838D1A
:10271000948DD4015C969C938E935B97168217825E
:1027200010861186D6011A961D921D921D921C923A
:102730001D97BB24F601E284F38404851585838903
:102740009489A589B689E816F9060A071B0708F0D7
:1027500044C0C6010E94AB0FFC01009709F4B6CF3C
:1027600085E016950795F794E7948A95D1F71E2D85
:102770001F7080818823A9F0853E99F0C301BF01B5
:102780004BE050E00E943F020097A1F68A2D807333
:10279000803309F49BCFC401612F4A2D0E94591048
:1027A00096CFBB2099F4D40152961C935297209156
:1027B00064023091650240916602509167021E9654
:1027C0002D933D934D935C9351978081882319F00D
:1027D000BB24B394AFCFBB24B3948A2D82718231D2
:1027E00009F074CFBB2009F049C0D60115968C9131
:1027F000823009F46BCFC6010E94E012882309F4ED
:1028000065CFF401128A06E213E080E2D8011D923E
:102810008A95E9F7D801F3018BE001900D92815080
:10282000E1F7E0912403F0912503309781F1B8019D
:10283000625F7F4FC80140961995D80150968D91DF
:102840009C91519753969C938E93529759969C9333
:102850008E9358971E968D919C911F9757969C9397
:102860008E9356970E945114882309F42FCFC401E8
:10287000F40162894A2D0E94591029CFC40161E0F8
:102880000E94000D8C01009709F0BFCF1FCF81E29D
:1028900098E2F801918B808B80E098E0978786879B
:1028A000CCCF80912805882311F481E008954091D0
:1028B0006402509165026091660270916702809196
:1028C00026059091270526E233E00E942D0A8823F1
:1028D000D9F04091290550912A0560912B057091FE
:1028E0002C05411551056105710521F4109228054B
:1028F00081E00895809126059091270526E233E036
:102900000E942D0A882311F480E008951092290571
:1029100010922A0510922B0510922C05E7CFEF920A
:10292000FF920F931F937B018C010E945114882307
:10293000A9F0E6E2F3E0119285E0E632F807D9F774
:10294000E0926402F09265020093660210936702BF
:102950008091280581608093280581E01F910F9167
:10296000FF90EF900895DF92EF92FF920F931F93E5
:102970007B018C01D42E8091640290916502A0911C
:102980006602B09167028E159F05A007B107F9F0A6
:102990000E945114882339F480E01F910F91FF9019
:1029A000EF90DF9008958091260590912705B8015A
:1029B000A70126E233E00E94380B882369F3E092F6
:1029C0006402F092650200936602109367028091A0
:1029D00028058D298093280581E01F910F91FF9094
:1029E000EF90DF9008954F925F926F927F928F9257
:1029F0009F92AF92BF92CF92DF92EF92FF920F938E
:102A00001F93CF93DF934C01142F7093270560938E
:102A10002605442309F452C0453090F080E0DF9150
:102A2000CF911F910F91FF90EF90DF90CF90BF90CB
:102A3000AF909F908F907F906F905F904F90089590
:102A400060E070E080E090E040E00E94B3148823F2
:102A500029F3C12FD0E02197FE01E295F295F07F96
:102A6000FE27E07FFE27EA5DFC4FE254FE4F8081A7
:102A7000EE5BF14090E08F779070892B79F6E6530A
:102A8000FE4F80819181A281B38184369105A10599
:102A9000B10520F2CC0FDD1FCC0FDD1FCC0FDD1FE9
:102AA000CC0FDD1FC451DB4FA880B980CA80DB800A
:102AB000A114B104C104D10421F4B0CFAA24BB24D1
:102AC0006501C601B50140E00E94B314882309F4F2
:102AD000A5CF80913103909132038050924009F04C
:102AE0009DCF20913603222309F498CF809134039F
:102AF00090913503892B09F491CF8091330388237A
:102B000009F48CCFF401228B8091330384831586E2
:102B1000282F30E041E050E0F4010585CA01002E85
:102B200002C0880F991F0A94E2F72817390739F075
:102B30000F5FF40105870150083070F36FCF2091CB
:102B40003C0330913D032115310509F486C040E076
:102B500050E0F4012583368347835087E0903403A7
:102B6000F09035032701662477244A0C5B1C6C1C0B
:102B70007D1C438A548A658A768A809137039091B6
:102B80003803918F808F6091360370E080E090E091
:102B90000E948A24640D751D861D971DF401628FA5
:102BA000738F848F958F2091370330913803220FD4
:102BB000331F22953295307F3227207F32272150D4
:102BC0003E4F232F3327269540E050E0260F371F36
:102BD000481F591F26873787408B518B80913903B7
:102BE00090913A03009709F441C0A0E0B0E02501BC
:102BF0003601421A530A640A750AA3019201280F8A
:102C0000391F4A1F5B1F04C0569547953795279576
:102C10000A95D2F7F4012187328743875487253FED
:102C2000FFE03F07F0E04F07F0E05F0740F1255F6E
:102C30003F4F4040504040F18091520390915303E8
:102C4000A0915403B0915503F401828F938FA48F08
:102C5000B58F80E2878B81E0E2CE20914A033091EC
:102C60004B0340914C0350914D0373CF8091460329
:102C700090914703A0914803B0914903B8CF8CE0ED
:102C8000F401878B81E0CBCE80E1F401878B81E07A
:102C9000C6CE4F925F926F927F928F929F92AF9229
:102CA000BF92CF92DF92EF92FF920F931F93CF9339
:102CB000DF93EC016A017B012801390142305105A3
:102CC0006105710508F45BC089859A85AB85BC8573
:102CD0000196A11DB11D84179507A607B70708F433
:102CE0004EC02B893C894D895E89EF89E03109F41A
:102CF00061C0C701B60107E09695879577956795FE
:102D00000A95D1F74B015C01820E931EA41EB51EDD
:102D10008091640290916502A0916602B091670271
:102D200088169906AA06BB06E1F5E03109F447C00A
:102D3000F601EF77F070EE0FFF1FEE0FFF1FEA5D59
:102D4000FC4F4082518262827382809128058160AB
:102D5000809328058A89823080F08D819E81AF81A1
:102D6000B885880E991EAA1EBB1E809229059092D6
:102D70002A05A0922B05B0922C0581E001C080E0CD
:102D8000DF91CF911F910F91FF90EF90DF90CF9047
:102D9000BF90AF909F908F907F906F905F904F907B
:102DA0000895C501B40140E00E94B314882339F3AB
:102DB000EF89BBCF99278F2D7E2D6D2DA3CFF601E7
:102DC000F070EE0FFF1FEA5DFC4F51824082BDCFD5
:102DD000CF92DF92EF92FF920F931F93CF93DF93E7
:102DE000EC017A018B01690189859A85AB85BC85E7
:102DF0000196A11DB11D84179507A607B70708F412
:102E000041C02B893C894D895E89EF89E03109F405
:102E100043C0C801B701F7E0969587957795679508
:102E2000FA95D1F7260F371F481F591F809164026A
:102E300090916502A0916602B09167022817390748
:102E40004A075B0741F0CA01B90140E00E94B31490
:102E50008823C1F0EF89E03121F1F701EF77F070BD
:102E6000EE0FFF1FEE0FFF1FEA5DFC4F8081918187
:102E7000A281B381BF70F60180839183A283B38363
:102E800081E001C080E0DF91CF911F910F91FF9011
:102E9000EF90DF90CF9008959927812F702F6F2D9D
:102EA000C1CFF701F070EE0FFF1FEA5DFC4F80818C
:102EB0009181A0E0B0E0F60180839183A283B38387
:102EC00081E0E1CFAF92BF92CF92DF92EF92FF927B
:102ED0000F931F93DF93CF9300D00F92CDB7DEB740
:102EE0006C017A018B0182E090E0A0E0B0E0F60195
:102EF00080839183A283B3835E010894A11CB11CDB
:102F000009C088EF9FEFAFEFBFE0E816F9060A07A8
:102F10001B0720F5C601B801A70195010E94E8161C
:102F2000882361F1C601B801A70100E010E020E0AC
:102F300030E00E944916882309F1E980FA800B816C
:102F40001C81F60187898031E1F688EF9FEFA0E0D0
:102F5000B0E0E816F9060A071B07E0F281E00F90DF
:102F60000F900F900F90CF91DF911F910F91FF90D5
:102F7000EF90DF90CF90BF90AF90089580E0EFCFBB
:102F80004F925F926F927F928F929F92AF92BF9279
:102F9000CF92DF92EF92FF920F931F93DF93CF9325
:102FA00000D00F92CDB7DEB76C0149835A836B8393
:102FB0007C832901EE24FF2487013E010894611CD3
:102FC000711C812CB2E09B2EA12CB12C09C088EF82
:102FD0009FEFAFEFBFE0481759076A077B0728F557
:102FE000C60193010E94E816882329F1D501C40186
:102FF000F601058404C0880F991FAA1FBB1F0A94FD
:10300000D2F7E80EF91E0A1F1B1F49815A816B81F6
:103010007C8187898031D9F688EF9FEFA0E0B0E00E
:10302000481759076A077B07D8F2F201E082F1825C
:103030000283138381E00F900F900F900F90CF9138
:10304000DF911F910F91FF90EF90DF90CF90BF9095
:10305000AF909F908F907F906F905F904F9008956A
:103060002F923F924F925F926F927F928F929F9298
:10307000AF92BF92CF92DF92EF92FF920F931F9386
:10308000DF93CF93CDB7DEB767970FB6F894DEBF67
:103090000FBECDBF1C014A875B876C877D873F874A
:1030A0002E87D9010D911D912D913C91011511058E
:1030B0002105310509F4D3C0D901C8010196A11D2C
:1030C000B11D8C8B9D8BAE8BBF8B1986F1018185D9
:1030D0009285A385B4859C01AD012F5F3F4F4F4F73
:1030E0005F4F2D833E834F8358870097A105B1051D
:1030F00009F49BC0CC88DD88EE88FF888824992459
:1031000054018E010F5F1F4F1CC0A70196012F5F56
:103110003F4F4F4F5F4F2C8B3D8B4E8B5F8B0894F7
:10312000811C911CA11CB11CF10181859285A38594
:10313000B48588169906AA06BB0608F076C0690110
:103140007A018D819E81AF81B8858C159D05AE0574
:10315000BF0570F492E0492E512C612C712C4C8AE1
:103160005D8A6E8A7F8A82E0C82ED12CE12CF12CF8
:10317000C101B701A60198010E94E816882309F44D
:1031800054C089819A81AB81BC810097A105B105AA
:1031900009F0BBCFA70196012F5F3F4F4F4F5F4F05
:1031A000DA01C9014C885D886E887F888419950989
:1031B000A609B7094A845B846C847D8484159505CF
:1031C000A605B70509F0ABCFC101A601B7010FEF06
:1031D0001FEF2FEF3FE00E944916882331F14C8802
:1031E0005D886E887F884C145D046E047F0468F0EF
:1031F0004DC02C893D894E895F89281539054A05BE
:103200005B0508F043C0750164014601570108944D
:1032100081089108A108B108C101B501A401970175
:1032200086010E944916882321F780E067960FB631
:10323000F894DEBF0FBECDBFCF91DF911F910F91EC
:10324000FF90EF90DF90CF90BF90AF909F908F90C6
:103250007F906F905F904F903F902F900895DC018A
:103260004D905D906D907C904C8A5D8A6E8A7F8ACD
:1032700019862A853B854C855D85213031054105C0
:10328000510509F023CF31E0398720CFAE85BF85C6
:103290004D915D916D917C914115510561057105CF
:1032A000F1F44C885D886E887F88AE85BF854D922D
:1032B0005D926D927C921397B985BB2371F02C8936
:1032C0003D894E895F892F5F3F4F4F4F5F4FD1013F
:1032D0002D933D934D935C93139781E0A7CFC1014C
:1032E0000C891D892E893F890E9449168823C9F6B9
:1032F0009CCF08951F920F920FB60F920BB60F92AC
:1033000011242F933F934F938F939F93EF93FF93AA
:103310008091C00082FD2AC04091C60020916D05B9
:1033200030916E052F5F3F4F2F73307080916F0586
:10333000909170052817390759F0E0916D05F091CB
:103340006E05E35DFA4F408330936E0520936D0563
:10335000FF91EF919F918F914F913F912F910F90FE
:103360000BBE0F900FBE0F901F9018958091C60056
:10337000EFCF08951F920F920FB60F920BB60F92D8
:1033800011242F933F934F938F939F93EF93FF932A
:103390008091C80082FD2AC04091CE002091F505A1
:1033A0003091F6052F5F3F4F2F7330708091F705F6
:1033B0009091F8052817390759F0E091F505F0913B
:1033C000F605EB54FA4F40833093F6052093F5054C
:1033D000FF91EF919F918F914F913F912F910F907E
:1033E0000BBE0F900FBE0F901F9018958091CE00CE
:1033F000EFCF08951F920F920FB60F920BB60F9258
:1034000011242F933F934F938F939F93EF93FF93A9
:103410008091D00082FD2AC04091D60020917D0687
:1034200030917E062F5F3F4F2F73307080917F0663
:10343000909180062817390759F0E0917D06F091A8
:103440007E06E35CF94F408330937E0620937D0631
:10345000FF91EF919F918F914F913F912F910F90FD
:103460000BBE0F900FBE0F901F9018958091D60045
:10347000EFCF08951F920F920FB60F920BB60F92D7
:1034800011242F933F934F938F939F93EF93FF9329
:103490008091300182FD2AC04091360120910507BC
:1034A000309106072F5F3F4F2F73307080910707D1
:1034B000909108072817390759F0E0910507F09116
:1034C0000607EB53F94F4083309306072093050717
:1034D000FF91EF919F918F914F913F912F910F907D
:1034E0000BBE0F900FBE0F901F9018958091360164
:1034F000EFCFE0915907F0915A07E05CFF4F8191BF
:10350000919120813181821B930B8F739070892B55
:10351000D1F5E0917B07F0917C07E05CFF4F819152
:10352000919120813181821B930B8F739070892B35
:1035300039F5E0919D07F0919E07E05CFF4F819186
:10354000919120813181821B930B8F739070892B15
:10355000A1F4E091BF07F091C007E05CFF4F8191BB
:10356000919120813181821B930B8F739070892BF5
:1035700009F408950E94391A08950E94F919E9CFB3
:103580000E94B919D6CF0E947919C3CF1F920F920A
:103590000FB60F920BB60F9211242F933F938F9378
:1035A0009F93EF93FF932091B1053091B2058091E5
:1035B000B3059091B4052817390709F1E091B305D7
:1035C000F091B405EF58FA4F20818091B3059091A6
:1035D000B40501968F7390709093B4058093B305F2
:1035E0002093C600FF91EF919F918F913F912F9172
:1035F0000F900BBE0F900FBE0F901F9018958091EB
:10360000C1008F7D8093C100EDCF1F920F920FB646
:103610000F920BB60F9211242F933F938F939F938A
:10362000EF93FF932091390630913A0680913B0643
:1036300090913C062817390709F1E0913B06F0917B
:103640003C06E750FA4F208180913B0690913C0662
:1036500001968F73907090933C0680933B06209365
:10366000CE00FF91EF919F918F913F912F910F90FD
:103670000BBE0F900FBE0F901F9018958091C90040
:103680008F7D8093C900EDCF1F920F920FB60F92DE
:103690000BB60F9211242F933F938F939F93EF9329
:1036A000FF932091C1063091C2068091C30690918C
:1036B000C4062817390709F1E091C306F091C40642
:1036C000EF57F94F20818091C3069091C40601966F
:1036D0008F7390709093C4068093C3062093D60096
:1036E000FF91EF919F918F913F912F910F900BBE82
:1036F0000F900FBE0F901F9018958091D1008F7D75
:103700008093D100EDCF1F920F920FB60F920BB6A0
:103710000F9211242F933F938F939F93EF93FF93D7
:103720002091490730914A0780914B0790914C07AF
:103730002817390709F1E0914B07F0914C07E75F33
:10374000F84F208180914B0790914C0701968F7321
:10375000907090934C0780934B0720933601FF9114
:10376000EF919F918F913F912F910F900BBE0F90F2
:103770000FBE0F901F901895809131018F7D80931F
:103780003101EDCFCF92DF92EF92FF920F931F9313
:10379000CF93DF93EC017A018B01C22EDD24403000
:1037A00081EE580780E0680780E0780721F1DD248A
:1037B000D394EC89FD8981E090E008A002C0880FD5
:1037C000991F0A94E2F7808360E079E08DE390E04E
:1037D000A80197010E94A924215030404040504048
:1037E000569547953795279580E120303807D0F0DA
:1037F000DD20C1F0DD24EC89FD89108260E874E8E9
:103800008EE190E0A80197010E94A9242150304048
:1038100040405040569547953795279580E1203098
:10382000380730F7E889F9893083EA89FB892083F2
:10383000E88DF98DC082EE89FF89408121E030E07A
:10384000C9010C8C02C0880F991F0A94E2F7482B1B
:103850004083EE89FF894081C9010D8C02C0880F29
:10386000991F0A94E2F7482B4083EE89FF89408133
:10387000C9010E8C02C0880F991F0A94E2F7482BE9
:103880004083EE89FF8980810F8C02C0220F331F95
:103890000A94E2F7209528232083DF91CF911F918E
:1038A0000F91FF90EF90DF90CF900895DC011C9670
:1038B000ED91FC911D97E05CFF4F2191319180814A
:1038C0009181281B390B2F733070C9010895DC01D9
:1038D0001C96ED91FC911D97E05CFF4F208131819A
:1038E000E054F040DF01AE5BBF4F8D919C9111978A
:1038F0002817390749F08D919C91E80FF91F8081B5
:10390000282F30E0C90108952FEF3FEFC901089536
:10391000DC011C96ED91FC911D97E05CFF4F20812E
:103920003181E054F040DF01AE5BBF4F8D919C913F
:1039300011972817390791F08D919C911197E80FF5
:10394000F91F20818D919C91119701968F73907032
:1039500011969C938E9330E0C90108952FEF3FEFAD
:10396000C9010895FC0181A1882311F411A20895D1
:10397000A489B5898C9186FFFDCF11A20895CF93BC
:10398000DF93EC01AE85BF85AD01405C5F4FFA016E
:10399000208131812F5F3F4F2F733070FD01EE5B2F
:1039A000FF4F8081918128173907D9F3FA0180816F
:1039B0009181A80FB91F6C93EE85FF85E05CFF4FE6
:1039C00031832083EE89FF89208181E090E00F8C94
:1039D00002C0880F991F0A94E2F7282B208381E008
:1039E00089A3EC89FD8980818064808381E090E0F7
:1039F000DF91CF9108951F931092500710924F07B7
:103A000028EE33E040E050E0209351073093520716
:103A100040935307509354076AE972E070934E073E
:103A200060934D078DE295E090935A078093590774
:103A300081E795E090935C0780935B0785EC90E0CD
:103A400090935E0780935D0784EC90E0909360070D
:103A500080935F0780EC90E090936207809361070A
:103A600081EC90E0909364078093630782EC90E090
:103A7000909366078093650786EC90E090936807C3
:103A80008093670714E010936907B3E0B0936A0767
:103A9000A7E0A0936B07F5E0F0936C07E1E0E093FB
:103AA0006D0710927207109271072093730730937D
:103AB000740740937507509376077093700760936F
:103AC0006F0785EB95E090937C0780937B0789EFE8
:103AD00095E090937E0780937D078DEC90E0909326
:103AE000800780937F078CEC90E09093820780930F
:103AF000810788EC90E0909384078093830789EC9A
:103B000090E090938607809385078AEC90E09093ED
:103B10008807809387078EEC90E090938A078093C4
:103B2000890710938B07B0938C07A0938D07F093B0
:103B30008E07E0938F0710929407109293072093BB
:103B40009507309396074093970750939807709383
:103B50009207609391078DE396E090939E07809380
:103B60009D0781E896E09093A00780939F0785EDDD
:103B700090E09093A2078093A10784ED90E090934A
:103B8000A4078093A30780ED90E09093A60780930D
:103B9000A50781ED90E09093A8078093A70782ED99
:103BA00090E09093AA078093A90786ED90E0909308
:103BB000AC078093AB071093AD07B093AE07A0930B
:103BC000AF07F093B007E093B1071092B6071092D9
:103BD000B5072093B7073093B8074093B9075093C0
:103BE000BA077093B4076093B30785EC96E090939F
:103BF000C0078093BF0789E097E09093C207809346
:103C0000C10785E391E09093C4078093C30784E3E1
:103C100091E09093C6078093C50780E391E090936D
:103C2000C8078093C70781E391E09093CA07809308
:103C3000C90782E391E09093CC078093CB0786E39A
:103C400091E09093CE078093CD071093CF07B09368
:103C5000D007A093D107F093D207E093D3071F9129
:103C600008950E9487220E94DD030E94D60389E7FF
:103C70009AE1892B29F00E94791A0E94D603FBCF82
:103C80000E94D6030E94D603FBCF0E94E70108954D
:103C9000CF92DF92EF92FF920F931F93CF93DF9318
:103CA0007C016B01EA0141155105D9F000E010E0FB
:103CB000D6016D916D01D701ED91FC910190F081DC
:103CC000E02DC7011995080F191F219789F7C80121
:103CD000DF91CF911F910F91FF90EF90DF90CF90E8
:103CE000089500E010E0F3CFEF92FF920F931F933F
:103CF0008C01DC01ED91FC910190F081E02D6DE0F3
:103D000019957C01D801ED91FC910190F081E02D95
:103D1000C8016AE019959C012E0D3F1DC9011F9134
:103D20000F91FF90EF9008954F925F927F928F9244
:103D30009F92AF92BF92CF92DF92EF92FF920F933A
:103D40001F93DF93CF93CDB7DEB7A1970FB6F8944B
:103D5000DEBF0FBECDBF2C01742ECB01223008F484
:103D600060C0822E9924AA24BB2419A221E2C22E6B
:103D7000D12CCC0EDD1E0BC0405DF6014083E1145A
:103D8000F1040105110501F17E2C5F2DC801672D9D
:103D9000752FA50194010E94A92479018A01C80107
:103DA000B701A50194010E948A24472D461B08945F
:103DB000C108D1084A3004F3495CF6014083E1149C
:103DC000F1040105110501F7C114D10481F1D601F7
:103DD0000D900020E9F71197AC19BD09F20180811F
:103DE0009181FC0122813381C201B601AD01F9014B
:103DF00019959C01C901A1960FB6F894DEBF0FBEBC
:103E0000CDBFCF91DF911F910F91FF90EF90DF9089
:103E1000CF90BF90AF909F908F907F905F904F908A
:103E200008953AE0832E912CA12CB12C9ECF20E056
:103E300030E0E0CFCF92DF92EF92FF920F931F938B
:103E4000CF93DF93EC016A017B0121153105B9F0B5
:103E50002A30310539F477FD1BC02AE00E94941EF8
:103E60009C0103C00E94941E9C01C901DF91CF9167
:103E70001F910F91FF90EF90DF90CF900895E88110
:103E8000F9810190F081E02D642F19959C01EDCF0F
:103E9000E881F9810190F081E02D6DE219958C01A6
:103EA00044275527BA014C195D096E097F09CE01D7
:103EB0002AE00E94941E9801280F391FD6CFEF9256
:103EC000FF920F931F937B019A010027F7FC009547
:103ED000102FB801A7010E941A1F1F910F91FF9088
:103EE000EF900895CF92DF92EF92FF920F931F937E
:103EF0006C017B019A010027F7FC0095102FB80197
:103F0000A7010E941A1F8C01C6010E94741E080F8F
:103F1000191FC8011F910F91FF90EF90DF90CF9074
:103F20000895CF93DF93EC016115710599F0DB01E2
:103F30000D900020E9F71197A61BB70BE881F981D6
:103F40000280F381E02DAD0119959C01C901DF913B
:103F5000CF91089520E030E0C901DF91CF9108951D
:103F60000F931F93CF93DF93EC0161157105D9F087
:103F7000DB010D900020E9F71197A61BB70BE88134
:103F8000F9810280F381E02DAD0119958C01CE01FC
:103F90000E94741E9801280F391FC901DF91CF912B
:103FA0001F910F91089500E010E0F1CF883098F54F
:103FB000E82FF0E0EE0FFF1FEB52F84F71836083A4
:103FC0008330B1F1843040F1853009F44BC0853045
:103FD00070F48091690042955295507F5427407F3C
:103FE00054278F7C842B80936900EA9A0895863049
:103FF00059F1873081F480916A00002456954795E5
:104000000794569547950794542F402D8F73842B12
:1040100080936A00EF9A08958130E9F1823098F137
:10402000809169008C7F842B80936900E89A0895C1
:1040300080916900440F551F440F551F837F842BC7
:1040400080936900E99A089580916A00429552959B
:10405000507F5427407F54278F7C842B80936A00A5
:10406000EE9A08958091690000245695479507942B
:10407000569547950794542F402D8F73842B80932A
:104080006900EB9A089580916A008C7F842B80935D
:104090006A00EC9A089580916A00440F551F440FFE
:1040A000551F837F842B80936A00ED9A08951F9299
:1040B0000F920FB60F920BB60F9211242F933F93CE
:1040C0004F935F936F937F938F939F93AF93BF9320
:1040D000EF93FF938091D9079091DA07892B29F00C
:1040E000E091D907F091DA071995FF91EF91BF910F
:1040F000AF919F918F917F916F915F914F913F9180
:104100002F910F900BBE0F900FBE0F901F90189520
:104110001F920F920FB60F920BB60F9211242F938E
:104120003F934F935F936F937F938F939F93AF933F
:10413000BF93EF93FF938091DB079091DC07892B6E
:1041400029F0E091DB07F091DC071995FF91EF91E1
:10415000BF91AF919F918F917F916F915F914F919F
:104160003F912F910F900BBE0F900FBE0F901F909D
:1041700018951F920F920FB60F920BB60F92112443
:104180002F933F934F935F936F937F938F939F935F
:10419000AF93BF93EF93FF938091DD079091DE077C
:1041A000892B29F0E091DD07F091DE071995FF9149
:1041B000EF91BF91AF919F918F917F916F915F919F
:1041C0004F913F912F910F900BBE0F900FBE0F900C
:1041D0001F9018951F920F920FB60F920BB60F9269
:1041E00011242F933F934F935F936F937F938F93FC
:1041F0009F93AF93BF93EF93FF938091DF079091CD
:10420000E007892B29F0E091DF07F091E00719958D
:10421000FF91EF91BF91AF919F918F917F916F919E
:104220005F914F913F912F910F900BBE0F900FBE5A
:104230000F901F9018951F920F920FB60F920BB60A
:104240000F9211242F933F934F935F936F937F931C
:104250008F939F93AF93BF93EF93FF938091D50775
:104260009091D607892B29F0E091D507F091D607D8
:104270001995FF91EF91BF91AF919F918F917F9190
:104280006F915F914F913F912F910F900BBE0F90C7
:104290000FBE0F901F9018951F920F920FB60F929E
:1042A0000BB60F9211242F933F934F935F936F930D
:1042B0007F938F939F93AF93BF93EF93FF938091DF
:1042C000D7079091D807892B29F0E091D707F09173
:1042D000D8071995FF91EF91BF91AF919F918F9161
:1042E0007F916F915F914F913F912F910F900BBEF6
:1042F0000F900FBE0F901F9018951F920F920FB640
:104300000F920BB60F9211242F933F934F935F930D
:104310006F937F938F939F93AF93BF93EF93FF938D
:104320008091E1079091E207892B29F0E091E10764
:10433000F091E2071995FF91EF91BF91AF919F9195
:104340008F917F916F915F914F913F912F910F903E
:104350000BBE0F900FBE0F901F9018951F920F92DB
:104360000FB60F920BB60F9211242F933F934F93DA
:104370005F936F937F938F939F93AF93BF93EF93CD
:10438000FF938091E3079091E407892B29F0E09156
:10439000E307F091E4071995FF91EF91BF91AF9179
:1043A0009F918F917F916F915F914F913F912F914D
:1043B0000F900BBE0F900FBE0F901F9018951F927D
:1043C0000F920FB60F9211242F933F938F939F93C9
:1043D000AF93BF938091E9079091EA07A091EB0713
:1043E000B091EC073091ED070196A11DB11D232F6F
:1043F0002D5F2D3720F02D570196A11DB11D209363
:10440000ED078093E9079093EA07A093EB07B09339
:10441000EC078091E5079091E607A091E707B0913E
:10442000E8070196A11DB11D8093E5079093E6076B
:10443000A093E707B093E807BF91AF919F918F9149
:104440003F912F910F900FBE0F901F9018958FB72F
:10445000F8942091E9073091EA074091EB075091D9
:10446000EC078FBFB901CA0108959FB7F894209156
:10447000E5073091E6074091E7075091E80786B5D8
:10448000A89B06C08F3F21F02F5F3F4F4F4F5F4FDC
:104490009FBF542F432F322F2227280F311D411D3C
:1044A000511D220F331F441F551F220F331F441F5E
:1044B000551FB901CA010895EF92FF920F931F9300
:1044C000CF93DF937B018C010E943522E114F1042C
:1044D00001051105A9F0EB010E9435226C1B7D0B33
:1044E000685E7340C8F30894E108F10801091109F6
:1044F000E114F1040105110519F0C851DC4FECCFAE
:10450000DF91CF911F910F91FF90EF9008957894D4
:1045100084B5826084BD84B5816084BD85B58260C8
:1045200085BD85B5816085BDEEE6F0E08081816066
:104530008083E1E8F0E01082808182608083808166
:1045400081608083E0E8F0E0808181608083E1EB3E
:10455000F0E0808184608083E0EBF0E08081816026
:104560008083E1E9F0E080818260808380818160E6
:104570008083E0E9F0E0808181608083E1EAF0E01F
:10458000808182608083808181608083E0EAF0E0C6
:10459000808181608083E1E2F1E0808182608083BC
:1045A000808181608083E0E2F1E0808181608083AE
:1045B000EAE7F0E08081846080838081826080838C
:1045C0008081816080838081806880831092C100B7
:1045D0000895CF93DF93482F50E0CA0188579E4F2C
:1045E000FC0134914E5B5E4FFA0184918823B9F04F
:1045F00090E0880F991FFC01EC50FF4FA591B491FA
:10460000FC01E25FFE4FC591D491662359F0623000
:10461000B9F09FB7F8948C91832B8C939FBFDF9157
:10462000CF9108952FB7F8948C91932F909589236B
:104630008C938881892388832FBFDF91CF91089540
:104640002FB7F8948C91932F909589238C93888120
:10465000832B88832FBFE3CF893009F45EC08A3073
:1046600070F08D3009F45FC08E30D0F0803109F4E5
:104670006CC0813109F463C08F30C9F10895843072
:1046800009F445C08530B8F08730B9F1883048F575
:104690008630A1F78091B0008F778093B0000895A5
:1046A0008B3009F446C08C30B0F08091A0008F7D33
:1046B0008093A0000895823031F1833030F481304E
:1046C000E9F684B58F7784BD0895809180008F7757
:1046D00080938000089580919000877F8093900060
:1046E0000895809190008F77809390000895809135
:1046F00020018F778093200108958091B0008F7DF5
:104700008093B000089584B58F7D84BD0895809115
:1047100080008F7D809380000895809190008F7D30
:104720008093900008958091A000877F8093A000DF
:1047300008958091A0008F778093A00008958091C4
:104740002001877F809320010895809120018F7D33
:10475000809320010895FF920F931F93F62E482F08
:1047600050E0CA0182539E4FFC012491CA01885730
:104770009E4FFC0104914E5B5E4FFA011491112390
:1047800099F02223D1F4E12FF0E0EE0FFF1FE25F5A
:10479000FE4FA591B4919FB7F894FF2049F48C91F6
:1047A000009580238C939FBF1F910F91FF900895D8
:1047B0008C91802B8C939FBFF7CF822F0E942C234C
:1047C000E2CF8F929F92AF92BF92CF92DF92EF9201
:1047D000FF920F931F93CF93DF93A82FB0E0CD01EB
:1047E00088579E4FFC018490AE5BBE4FFD018491C3
:1047F000662309F03BC099246FEFE62E6FEFF62E8B
:104800006FEF062F6FE0162FE222F3220423152309
:10481000682F70E0660F771F685D7E4F20E030E004
:1048200040E050E0FB01A591B49104C02F5F3F4FE1
:104830004F4F5F4F8C9188219816D1F42E153F056C
:104840004007510799F720E030E040E050E0B9011F
:10485000CA01DF91CF911F910F91FF90EF90DF90F0
:10486000CF90BF90AF909F908F900895982CC4CF19
:10487000FB01A591B49104C02F5F3F4F4F4F5F4F95
:104880008C918821981631F02E153F05400751076D
:1048900099F7D9CF8C9188219816B9F5E216F306CD
:1048A0000407150781F2AA24BB246501FB01C59109
:1048B000D4910CC0D601C501820F931FA41FB51F50
:1048C000E816F9060A071B0709F4BDCF0894A11CD6
:1048D000B11CC11CD11C88818821981659F3C601CE
:1048E000B50125E130E040E050E00E948A249B01C0
:1048F000AC01205F3F4F4F4F5F4F84E05695479587
:10490000379527958A95D1F7A2CF21E030E040E096
:1049100050E09DCF629FD001739FF001829FE00D18
:10492000F11D649FE00DF11D929FF00D839FF00D2E
:10493000749FF00D659FF00D9927729FB00DE11DDA
:10494000F91F639FB00DE11DF91FBD01CF011124B7
:104950000895A1E21A2EAA1BBB1BFD010DC0AA1FC0
:10496000BB1FEE1FFF1FA217B307E407F50720F0D8
:10497000A21BB30BE40BF50B661F771F881F991F53
:104980001A9469F760957095809590959B01AC019C
:10499000BD01CF010895EE0FFF1F0590F491E02DAA
:1049A000199412E0CAE1D2E004C0FE010E94CD24B5
:0C49B0002296CC31D107C9F7F894FFCF54
:1049BC0043617274E36F53442070726F6E746F2096
:1049CC00706172612075736F0046616C6861206163
:1049DC006F20696E696369612063617274E36F2093
:1049EC005344005665726D656C686F203D2000095C
:1049FC00005665726465203D2000417A756C203D3F
:104A0C0020006C6F672E637376003B002F00200034
:104A1C00F2070000FFFFFFFF0000000066025003DA
:104A2C000000000059035F03000000000C05D205D4
:104A3C00EF046C0524057405960500000000CF12E8
:104A4C00481EEF04F20400000000BF1C481E561C58
:064A5C00881C671CB21C5F
:00000001FF
