:100000000C9405010C9432010C9432010C943201D1
:100010000C9432010C9432010C9432010C94320194
:100020000C9432010C9432010C9432010C94320184
:100030000C9432010C9432010C9432010C94320174
:100040000C9432010C9432010C9432010C94320164
:100050000C9432010C9432010C9432010C94090A74
:100060000C9432010C94D8030C9424050C943201A6
:100070000C9432010C9432010C9432010C94320134
:100080000C9432010C9432010C9432010C94320124
:100090000C9418040C9463050C9432010C943201F6
:1000A0000C9432010C9432010C9432010C94320104
:1000B0000C9432010C9432010C9432010C943201F4
:1000C0000C9432010C9432010C9432010C945804BB
:1000D0000C94A2050C9432010C9498040C94E10544
:1000E0000C94320100002100240027002A002D007A
:1000F0003000330001010000040107010A01000083
:100100002200250028002B002E00310034000201BF
:100110000000050108010B0100002000230026005B
:1001200029002C002F00320000010000030106010D
:10013000090105050505070508080808020202026D
:100140000A0A080804040404010101010101010173
:100150000303030303030303040707070C0C0C0C3E
:100160000C0C0C0C02020202060606060606060627
:100170000B0B0B0B0B0B0B0B0102102020080810B4
:100180002040102040800201020108040201010207
:1001900004081020408080402010080402018004E0
:1001A000020180402010080402010804020101023B
:1001B0000408102040800102040810204080000044
:1001C000090A02080B0C0D070603040100000000D9
:1001D000000000000000000000000000000000001F
:1001E0000000000000000000000011100F000000DF
:1001F00000000000000000000000000000000000FF
:100200000000000078035407710311241FBECFEFD4
:10021000D1E2DEBFCDBF00E00CBF12E0A0E0B2E053
:10022000E4EFF9E100E00BBF02C007900D92AE339E
:10023000B107D9F71BBE15E0AEE3B2E001C01D92D5
:10024000A530B107E1F712E0C8E0D2E004C0229780
:10025000FE010E94E90CC430D107C9F70E948A0848
:100260000C94ED0C0C940000CF93DF93BC01823012
:10027000910510F462E070E0A0910305B0910405CF
:10028000ED01E0E0F0E040E050E021C0888199819C
:100290008617970769F48A819B81309719F09383B9
:1002A000828304C09093040580930305FE0134C04B
:1002B0006817790738F44115510519F08417950727
:1002C00008F4AC01FE018A819B819C01E901209721
:1002D000E9F641155105A9F1CA01861B970B049750
:1002E00008F4BA01E0E0F0E02AC08D919C911197EA
:1002F00084179507F9F46417750781F412968D91A8
:100300009C911397309719F09383828304C0909344
:10031000040580930305FD0132964CC0CA01861B7B
:10032000970BFD01E80FF91F6193719302978D936D
:100330009C9340C0FD01828193819C01D90110975B
:10034000A1F68091010590910205892B41F48091DD
:100350002102909122029093020580930105409121
:100360002302509124024115510541F44DB75EB767
:1003700080911F0290912002481B590B209101058A
:1003800030910205CA01821B930B8617970780F0F4
:10039000AB014E5F5F4F8417950750F0420F531F1C
:1003A0005093020540930105F9016193719302C0D6
:1003B000E0E0F0E0CF01DF91CF910895CF93DF939C
:1003C000009709F450C0EC0122971B821A82A09179
:1003D0000305B0910405109709F140E050E0AC1717
:1003E000BD0708F1BB83AA83FE0121913191E20F81
:1003F000F31FAE17BF0779F48D919C911197280FC9
:10040000391F2E5F3F4F3983288312968D919C911F
:1004100013979B838A834115510571F4D09304058A
:10042000C093030520C012968D919C911397AD0146
:10043000009711F0DC01D3CFFA01D383C28321915D
:100440003191E20FF31FCE17DF0769F4888199819C
:10045000280F391F2E5F3F4FFA01318320838A8195
:100460009B8193838283DF91CF910895FC0189E280
:1004700092E09183808308950F931F93CF93DF932E
:100480008C01EB01FC01828160E00E94C70BF80146
:10049000848160E00E94C70BC431D105E9F0C43605
:1004A000D105B1F0229729F0DF91CF911F910F91E3
:1004B0000895F801828160E00E94C70BF8018481F1
:1004C00061E00E94C70BDF91CF911F910F910895BA
:1004D000F801828161E0F0CFF801828161E00E9441
:1004E000C70BF801848160E00E94C70BDF91CF91B8
:1004F0001F910F9108950F931F938C01FC0186812A
:1005000060E00E94C70BF801808561E00E94C70B84
:10051000F801828560E020E432E44FE050E00E9480
:10052000FD0BF801608B718BCB011F910F9108952A
:100530000F931F938C01FC01868161E00E94C70B21
:10054000F801808561E00E94C70BF801828560E0B8
:1005500020E432E44FE050E00E94FD0BF801668792
:100560007787CB011F910F9108950F931F938C01F3
:10057000FC01868160E00E94C70BF801808560E085
:100580000E94C70BF801828560E020E432E44FE06E
:1005900050E00E94FD0BF80164877587CB011F9125
:1005A0000F910895FC01862F6287738760E00E9497
:1005B000050B0895FC01862F6087718761E00E941A
:1005C000050B0895FC01862F6683778361E00E9406
:1005D000050B0895FC01862F6483758361E00E94FA
:1005E000050B0895FC01862F6283738361E00E94EE
:1005F000050B08956F927F928F929F92AF92BF9258
:10060000CF92DF92EF92FF920F931F935C014A010A
:10061000390189E292E0F50191838083C5010E944E
:10062000F202C501B4010E94EA02C501B3010E94B1
:10063000E202C501B8010E94DA02C501B7010E94B9
:10064000D202C501B6010E943C021F910F91FF909A
:10065000EF90DF90CF90BF90AF909F908F907F9062
:100660006F900895FC0189E292E091838083CF012D
:100670000E949E080895CF92DF92EF92FF920F930F
:100680001F938130910561F0892B19F46F5F7F4FC3
:10069000E9F01F910F91FF90EF90DF90CF900895B8
:1006A0006F5F7F4FB1F78EE392E064E070E045E06A
:1006B00050E026E030E007E010E0F8E0EF2EF12C0B
:1006C000E4E1CE2ED12C0E94FA02E3CF8EE392E039
:1006D0000E9436021F910F91FF90EF90DF90CF9014
:1006E000089580E090E06FEF7FEF0E943B03089554
:1006F00081E090E06FEF7FEF0E943B030895CF927F
:10070000DF92EF92FF920F931F9300E714E0C8016E
:1007100060E072E00E94EA09BEE3EB2EB2E0FB2E3D
:10072000C7010E94B502BC01C8014AE050E00E9426
:10073000B809ACE0CA2EA2E0DA2EC801B6010E94C8
:10074000EA09C8016EE072E00E94EA09C7010E944E
:100750009802BC01C8014AE050E00E94B809C801F3
:10076000B6010E94EA09C80167E172E00E94EA0945
:10077000C7010E947B02BC01C8014AE050E00E9410
:10078000CB0964EF71E080E090E00E94780A1F914D
:100790000F91FF90EF90DF90CF90089580E794E065
:1007A00040E855E260E070E00E9420060895089558
:1007B0001F920F920FB60F920BB60F9211242F9328
:1007C0003F934F938F939F93EF93FF938091C0003C
:1007D00082FD2AC04091C600209190023091910282
:1007E0002F5F3F4F2F733070809192029091930250
:1007F0002817390759F0E0919002F0919102E05BDF
:10080000FD4F40833093910220939002FF91EF912E
:100810009F918F914F913F912F910F900BBE0F9011
:100820000FBE0F901F9018958091C600EFCF0895CE
:100830001F920F920FB60F920BB60F9211242F93A7
:100840003F934F938F939F93EF93FF938091C800B3
:1008500082FD2AC04091CE002091180330911903E7
:100860002F5F3F4F2F73307080911A0390911B03BD
:100870002817390759F0E0911803F0911903E8524D
:10088000FD4F40833093190320931803FF91EF919C
:100890009F918F914F913F912F910F900BBE0F9091
:1008A0000FBE0F901F9018958091CE00EFCF089546
:1008B0001F920F920FB60F920BB60F9211242F9327
:1008C0003F934F938F939F93EF93FF938091D0002B
:1008D00082FD2AC04091D6002091A0033091A1034F
:1008E0002F5F3F4F2F7330708091A2039091A3032D
:1008F0002817390759F0E091A003F091A103E05ABD
:10090000FC4F40833093A1032093A003FF91EF910C
:100910009F918F914F913F912F910F900BBE0F9010
:100920000FBE0F901F9018958091D600EFCF0895BD
:100930001F920F920FB60F920BB60F9211242F93A6
:100940003F934F938F939F93EF93FF938091300149
:1009500082FD2AC04091360120912804309129045B
:100960002F5F3F4F2F73307080912A0490912B049A
:100970002817390759F0E0912804F0912904E8512B
:10098000FC4F40833093290420932804FF91EF917A
:100990009F918F914F913F912F910F900BBE0F9090
:1009A0000FBE0F901F90189580913601EFCFE09108
:1009B0007C04F0917D04E05CFF4F81919191208156
:1009C0003181821B930B8F739070892BD1F5E0914D
:1009D0009E04F0919F04E05CFF4F819191912081F2
:1009E0003181821B930B8F739070892B39F5E091C5
:1009F000C004F091C104E05CFF4F8191919120818E
:100A00003181821B930B8F739070892BA1F4E0913D
:100A1000E204F091E304E05CFF4F81919191208129
:100A20003181821B930B8F739070892B09F4089589
:100A30000E94970408950E945704E9CF0E9417046A
:100A4000D6CF0E94D703C3CF1F920F920FB60F923B
:100A50000BB60F9211242F933F938F939F93EF9395
:100A6000FF932091D4023091D5028091D6029091CB
:100A7000D7022817390709F1E091D602F091D70281
:100A8000EC56FD4F20818091D6029091D7020196BD
:100A90008F7390709093D7028093D6022093C600F4
:100AA000FF91EF919F918F913F912F910F900BBEEE
:100AB0000F900FBE0F901F9018958091C1008F7DF1
:100AC0008093C100EDCF1F920F920FB60F920BB61D
:100AD0000F9211242F933F938F939F93EF93FF9344
:100AE00020915C0330915D0380915E0390915F03E0
:100AF0002817390709F1E0915E03F0915F03E45E86
:100B0000FC4F208180915E0390915F0301968F736B
:100B1000907090935F0380935E032093CE00FF91CB
:100B2000EF919F918F913F912F910F900BBE0F905E
:100B30000FBE0F901F9018958091C9008F7D8093F4
:100B4000C900EDCF1F920F920FB60F920BB60F9206
:100B500011242F933F938F939F93EF93FF932091B3
:100B6000E4033091E5038091E6039091E7032817B1
:100B7000390709F1E091E603F091E703EC55FC4FEA
:100B800020818091E6039091E70301968F73907026
:100B90009093E7038093E6032093D600FF91EF91B3
:100BA0009F918F913F912F910F900BBE0F900FBE91
:100BB0000F901F9018958091D1008F7D8093D10068
:100BC000EDCF1F920F920FB60F920BB60F9211241A
:100BD0002F933F938F939F93EF93FF9320916C04F8
:100BE00030916D0480916E0490916F04281739073D
:100BF00009F1E0916E04F0916F04E45DFB4F2081F8
:100C000080916E0490916F0401968F739070909311
:100C10006F0480936E0420933601FF91EF919F91B2
:100C20008F913F912F910F900BBE0F900FBE0F90A1
:100C30001F901895809131018F7D80933101EDCF08
:100C4000DF92EF92FF920F931F93CF93DF93EC010C
:100C50007A018B01DD24403081EE580780E068077F
:100C600080E0780721F1DD24D394EC89FD8981E0CF
:100C700090E008A002C0880F991F0A94E2F78083D1
:100C800060E079E08DE390E0A80197010E94C50C37
:100C90002150304040405040569547953795279514
:100CA00080E120303807D0F0DD20C1F0DD24EC8970
:100CB000FD89108260E874E88EE190E0A801970158
:100CC0000E94C50C215030404040504056954795F9
:100CD0003795279580E12030380730F7E889F98982
:100CE0003083EA89FB89208319A2EE89FF8940813C
:100CF00021E030E0C9010C8C02C0880F991F0A94D2
:100D0000E2F7482B4083EE89FF894081C9010D8CB1
:100D100002C0880F991F0A94E2F7482B4083EE899E
:100D2000FF894081C9010E8C02C0880F991F0A9467
:100D3000E2F7482B4083EE89FF8980810F8C02C047
:100D4000220F331F0A94E2F7209528232083DF9196
:100D5000CF911F910F91FF90EF90DF900895DC01EC
:100D60001C96ED91FC911D97E05CFF4F2191319114
:100D700080819181281B390B2F733070C901089530
:100D8000DC011C96ED91FC911D97E05CFF4F2081EA
:100D90003181E054F040DF01AE5BBF4F8D919C91FB
:100DA00011972817390749F08D919C91E80FF91F89
:100DB0008081282F30E0C90108952FEF3FEFC9014E
:100DC0000895DC011C96ED91FC911D97E05CFF4FAE
:100DD00020813181E054F040DF01AE5BBF4F8D9147
:100DE0009C9111972817390791F08D919C9111973B
:100DF000E80FF91F20818D919C91119701968F73B7
:100E0000907011969C938E9330E0C90108952FEF56
:100E10003FEFC9010895FC0181A1882311F411A2BB
:100E20000895A489B5898C9186FFFDCF11A20895FC
:100E3000CF93DF93EC01AE85BF85AD01405C5F4F82
:100E4000FA01208131812F5F3F4F2F733070FD01F8
:100E5000EE5BFF4F8081918128173907D9F3FA01A2
:100E600080819181A80FB91F6C93EE85FF85E05CAE
:100E7000FF4F31832083EE89FF89208181E090E05C
:100E80000F8C02C0880F991F0A94E2F7282B208349
:100E900081E089A3EC89FD8980818064808381E081
:100EA00090E0DF91CF9108951F93109273041092F8
:100EB000720428EE33E040E050E020937404309355
:100EC0007504409376045093770461E372E0709365
:100ED00071046093700480E592E090937D048093A8
:100EE0007C0484E992E090937F0480937E0485ECF7
:100EF00090E0909381048093800484EC90E0909340
:100F000083048093820480EC90E090938504809326
:100F1000840481EC90E0909387048093860482ECB3
:100F200090E0909389048093880486EC90E09093FD
:100F30008B0480938A0414E010938C04B3E0B09384
:100F40008D04A7E0A0938E04F5E0F0938F04E1E018
:100F5000E0939004109295041092940420939604C8
:100F6000309397044093980450939904709393049A
:100F70006093920488ED92E090939F0480939E0486
:100F80008CE193E09093A1048093A0048DEC90E019
:100F90009093A3048093A2048CEC90E09093A5041A
:100FA0008093A40488EC90E09093A7048093A60417
:100FB00089EC90E09093A9048093A8048AEC90E0D7
:100FC0009093AB048093AA048EEC90E09093AD04D0
:100FD0008093AC041093AE04B093AF04A093B0041C
:100FE000F093B104E093B2041092B7041092B604E7
:100FF0002093B8043093B9044093BA045093BB04CF
:101000007093B5046093B40480E693E09093C104B8
:101010008093C00484EA93E09093C3048093C20455
:1010200085ED90E09093C5048093C40484ED90E036
:101030009093C7048093C60480ED90E09093C90418
:101040008093C80481ED90E09093CB048093CA0410
:1010500082ED90E09093CD048093CC0486ED90E0F7
:101060009093CF048093CE041093D004B093D10416
:10107000A093D204F093D304E093D4041092D90443
:101080001092D8042093DA043093DB044093DC04FC
:101090005093DD047093D7046093D60488EE93E0F8
:1010A0009093E3048093E2048CE294E09093E5044F
:1010B0008093E40485E391E09093E7048093E60451
:1010C00084E391E09093E9048093E80480E391E065
:1010D0009093EB048093EA0481E391E09093ED0414
:1010E0008093EC0482E391E09093EF048093EE040C
:1010F00086E391E09093F1048093F0041093F2045E
:10110000B093F304A093F404F093F504E093F60491
:101110001F9108950E94A30A0E94CE030E947F039C
:1011200087ED94E0892B29F00E94D7040E947F0369
:10113000FBCF0E947F030E947F03FBCF0E94DE0152
:101140000895CF92DF92EF92FF920F931F93CF9368
:10115000DF937C016B01EA0141155105D9F000E0F4
:1011600010E0D6016D916D01D701ED91FC910190D8
:10117000F081E02DC7011995080F191F219789F7F4
:10118000C801DF91CF911F910F91FF90EF90DF90F9
:10119000CF90089500E010E0F3CFEF92FF920F930D
:1011A0001F938C01DC01ED91FC910190F081E02D09
:1011B0006DE019957C01D801ED91FC910190F081D1
:1011C000E02DC8016AE019959C012E0D3F1DC90153
:1011D0001F910F91FF90EF9008954F925F927F9231
:1011E0008F929F92AF92BF92CF92DF92EF92FF9237
:1011F0000F931F93DF93CF93CDB7DEB7A1970FB6B1
:10120000F894DEBF0FBECDBF2C01742ECB0122306F
:1012100008F460C0822E9924AA24BB2419A221E2DA
:10122000C22ED12CCC0EDD1E0BC0405DF6014083DA
:10123000E114F1040105110501F17E2C5F2DC801B7
:10124000672D752FA50194010E94C50C79018A01B3
:10125000C801B701A50194010E94A60C472D461BA9
:101260000894C108D1084A3004F3495CF601408370
:10127000E114F1040105110501F7C114D10481F154
:10128000D6010D900020E9F71197AC19BD09F201C4
:1012900080819181FC0122813381C201B601AD01BF
:1012A000F90119959C01C901A1960FB6F894DEBF0A
:1012B0000FBECDBFCF91DF911F910F91FF90EF90A7
:1012C000DF90CF90BF90AF909F908F907F905F9076
:1012D0004F9008953AE0832E912CA12CB12C9ECFF3
:1012E00020E030E0E0CFCF92DF92EF92FF920F93B9
:1012F0001F93CF93DF93EC016A017B012115310528
:10130000B9F02A30310539F477FD1BC02AE00E947C
:10131000ED089C0103C00E94ED089C01C901DF910A
:10132000CF911F910F91FF90EF90DF90CF90089594
:10133000E881F9810190F081E02D642F19959C01DD
:10134000EDCFE881F9810190F081E02D6DE21995F2
:101350008C0144275527BA014C195D096E097F0994
:10136000CE012AE00E94ED089801280F391FD6CF40
:10137000EF92FF920F931F937B019A010027F7FCD6
:101380000095102FB801A7010E9473091F910F91BA
:10139000FF90EF900895CF92DF92EF92FF920F931C
:1013A0001F936C017B019A010027F7FC0095102F19
:1013B000B801A7010E9473098C01C6010E94CD08E3
:1013C000080F191FC8011F910F91FF90EF90DF9038
:1013D000CF900895CF93DF93EC016115710599F0DB
:1013E000DB010D900020E9F71197A61BB70BE881F0
:1013F000F9810280F381E02DAD0119959C01C901AD
:10140000DF91CF91089520E030E0C901DF91CF91C5
:1014100008951F920F920FB60F9211242F933F93AE
:101420008F939F93AF93BF938091FC049091FD04A1
:10143000A091FE04B091FF04309100050196A11D1A
:10144000B11D232F2D5F2D3720F02D570196A11DA3
:10145000B11D209300058093FC049093FD04A0939C
:10146000FE04B093FF048091F8049091F904A091D8
:10147000FA04B091FB040196A11DB11D8093F804FC
:101480009093F904A093FA04B093FB04BF91AF9139
:101490009F918F913F912F910F900FBE0F901F90B2
:1014A00018959FB7F8942091F8043091F904409171
:1014B000FA045091FB0486B5A89B06C08F3F21F02B
:1014C0002F5F3F4F4F4F5F4F9FBF542F432F322F00
:1014D0002227280F311D411D511D220F331F441F8C
:1014E000551F220F331F441F551FB901CA0108950C
:1014F000EF92FF920F931F93CF93DF937B018C01A9
:101500000E94510AE114F10401051105A9F0EB0153
:101510000E94510A6C1B7D0B685E7340C8F30894EF
:10152000E108F10801091109E114F10401051105AF
:1015300019F0C851DC4FECCFDF91CF911F910F9183
:10154000FF90EF900895789484B5826084BD84B54F
:10155000816084BD85B5826085BD85B5816085BDAE
:10156000EEE6F0E0808181608083E1E8F0E01082C7
:10157000808182608083808181608083E0E8F0E008
:10158000808181608083E1EBF0E0808184608083F2
:10159000E0EBF0E0808181608083E1E9F0E0808130
:1015A00082608083808181608083E0E9F0E08081D7
:1015B00081608083E1EAF0E08081826080838081C5
:1015C00081608083E0EAF0E0808181608083E1E2F5
:1015D000F1E0808182608083808181608083E0E2AD
:1015E000F1E0808181608083EAE7F0E080818460BF
:1015F000808380818260808380818160808380811C
:10160000806880831092C1000895CF93DF93482FA4
:1016100050E0CA0188589E4FFC0134914E5C5E4FE9
:10162000FA0184918823B9F090E0880F991FFC019A
:10163000EC51FF4FA591B491FC01E250FF4FC591D1
:10164000D491662359F06230B9F09FB7F8948C9129
:10165000832B8C939FBFDF91CF9108952FB7F89480
:101660008C91932F909589238C93888189238883EB
:101670002FBFDF91CF9108952FB7F8948C91932FBE
:10168000909589238C938881832B88832FBFE3CF08
:10169000893009F45EC08A3070F08D3009F45FC083
:1016A0008E30D0F0803109F46CC0813109F463C010
:1016B0008F30C9F10895843009F445C08530B8F001
:1016C0008730B9F1883048F58630A1F78091B000B5
:1016D0008F778093B00008958B3009F446C08C302A
:1016E000B0F08091A0008F7D8093A000089582309B
:1016F00031F1833030F48130E9F684B58F7784BDE1
:101700000895809180008F77809380000895809164
:101710009000877F809390000895809190008F774C
:10172000809390000895809120018F77809320010D
:1017300008958091B0008F7D8093B000089584B5A6
:101740008F7D84BD0895809180008F7D809380007F
:101750000895809190008F7D8093900008958091EE
:10176000A000877F8093A00008958091A0008F77CC
:101770008093A000089580912001877F80932001AD
:101780000895809120018F7D809320010895FF921C
:101790000F931F93F62E482F50E0CA0182549E4F9C
:1017A000FC012491CA0188589E4FFC0104914E5CB3
:1017B0005E4FFA011491112399F02223D1F4E12F05
:1017C000F0E0EE0FFF1FE250FF4FA591B4919FB7DD
:1017D000F894FF2049F48C91009580238C939FBF4F
:1017E0001F910F91FF9008958C91802B8C939FBF38
:1017F000F7CF822F0E94480BE2CF8F929F92AF9239
:10180000BF92CF92DF92EF92FF920F931F93CF93ED
:10181000DF93A82FB0E0CD0188589E4FFC01849043
:10182000AE5CBE4FFD018491662309F03BC0992454
:101830006FEFE62E6FEFF62E6FEF062F6FE0162F8D
:10184000E222F32204231523682F70E0660F771F2E
:10185000685E7E4F20E030E040E050E0FB01A59163
:10186000B49104C02F5F3F4F4F4F5F4F8C91882141
:101870009816D1F42E153F054007510799F720E03F
:1018800030E040E050E0B901CA01DF91CF911F91F3
:101890000F91FF90EF90DF90CF90BF90AF909F900F
:1018A0008F900895982CC4CFFB01A591B49104C0EA
:1018B0002F5F3F4F4F4F5F4F8C918821981631F02B
:1018C0002E153F054007510799F7D9CF8C918821F4
:1018D0009816B9F5E216F3060407150781F2AA2453
:1018E000BB246501FB01C591D4910CC0D601C50193
:1018F000820F931FA41FB51FE816F9060A071B07DE
:1019000009F4BDCF0894A11CB11CC11CD11C888155
:101910008821981659F3C601B50125E130E040E071
:1019200050E00E94A60C9B01AC01205F3F4F4F4F3F
:101930005F4F84E056954795379527958A95D1F75F
:10194000A2CF21E030E040E050E09DCF629FD00187
:10195000739FF001829FE00DF11D649FE00DF11D6A
:10196000929FF00D839FF00D749FF00D659FF00D19
:101970009927729FB00DE11DF91F639FB00DE11D06
:10198000F91FBD01CF0111240895A1E21A2EAA1B4F
:10199000BB1BFD010DC0AA1FBB1FEE1FFF1FA2171F
:1019A000B307E407F50720F0A21BB30BE40BF50B1C
:1019B000661F771F881F991F1A9469F760957095A5
:1019C000809590959B01AC01BD01CF010895EE0F6C
:1019D000FF1F0590F491E02D199412E0C8E0D2E0C9
:1019E00004C0FE010E94E90C2296CA30D107C9F753
:0419F000F894FFCF99
:1019F4005665726D656C686F203D20000900566560
:101A0400726465203D2000417A756C203D200020E1
:101A1400000505000000000000360232030000004B
:0E1A2400001807A108AF06E106C0060B070078
:00000001FF
