:100000000C9405010C9432010C9432010C943201D1
:100010000C9432010C9432010C9432010C94320194
:100020000C9432010C9432010C9432010C94320184
:100030000C9432010C9432010C9432010C94320174
:100040000C9432010C9432010C9432010C94320164
:100050000C9432010C9432010C9432010C942C0A51
:100060000C9432010C94FB030C9447050C94320160
:100070000C9432010C9432010C9432010C94320134
:100080000C9432010C9432010C9432010C94320124
:100090000C943B040C9486050C9432010C943201B0
:1000A0000C9432010C9432010C9432010C94320104
:1000B0000C9432010C9432010C9432010C943201F4
:1000C0000C9432010C9432010C9432010C947B0498
:1000D0000C94C5050C9432010C94BB040C940406DA
:1000E0000C94320100002100240027002A002D007A
:1000F0003000330001010000040107010A01000083
:100100002200250028002B002E00310034000201BF
:100110000000050108010B0100002000230026005B
:1001200029002C002F00320000010000030106010D
:10013000090105050505070508080808020202026D
:100140000A0A080804040404010101010101010173
:100150000303030303030303040707070C0C0C0C3E
:100160000C0C0C0C02020202060606060606060627
:100170000B0B0B0B0B0B0B0B0102102020080810B4
:100180002040102040800201020108040201010207
:1001900004081020408080402010080402018004E0
:1001A000020180402010080402010804020101023B
:1001B0000408102040800102040810204080000044
:1001C000090A02080B0C0D070603040100000000D9
:1001D000000000000000000000000000000000001F
:1001E0000000000000000000000011100F000000DF
:1001F00000000000000000000000000000000000FF
:1002000000000000960377078F0311241FBECFEF75
:10021000D1E2DEBFCDBF00E00CBF12E0A0E0B2E053
:10022000EAE3FAE100E00BBF02C007900D92AE33A3
:10023000B107D9F71BBE15E0AEE3B2E001C01D92D5
:10024000A730B107E1F712E0C8E0D2E004C022977E
:10025000FE010E940C0DC430D107C9F70E94AD0801
:100260000C94100D0C940000CF93DF93BC018230EE
:10027000910510F462E070E0A0910505B0910605CB
:10028000ED01E0E0F0E040E050E021C0888199819C
:100290008617970769F48A819B81309719F09383B9
:1002A000828304C09093060580930505FE0134C047
:1002B0006817790738F44115510519F08417950727
:1002C00008F4AC01FE018A819B819C01E901209721
:1002D000E9F641155105A9F1CA01861B970B049750
:1002E00008F4BA01E0E0F0E02AC08D919C911197EA
:1002F00084179507F9F46417750781F412968D91A8
:100300009C911397309719F09383828304C0909344
:10031000060580930505FD0132964CC0CA01861B77
:10032000970BFD01E80FF91F6193719302978D936D
:100330009C9340C0FD01828193819C01D90110975B
:10034000A1F68091030590910405892B41F48091D9
:10035000210290912202909304058093030540911D
:100360002302509124024115510541F44DB75EB767
:1003700080911F0290912002481B590B2091030588
:1003800030910405CA01821B930B8617970780F0F2
:10039000AB014E5F5F4F8417950750F0420F531F1C
:1003A0005093040540930305F9016193719302C0D2
:1003B000E0E0F0E0CF01DF91CF910895CF93DF939C
:1003C000009709F450C0EC0122971B821A82A09179
:1003D0000505B0910605109709F140E050E0AC1713
:1003E000BD0708F1BB83AA83FE0121913191E20F81
:1003F000F31FAE17BF0779F48D919C911197280FC9
:10040000391F2E5F3F4F3983288312968D919C911F
:1004100013979B838A834115510571F4D093060588
:10042000C093050520C012968D919C911397AD0144
:10043000009711F0DC01D3CFFA01D383C28321915D
:100440003191E20FF31FCE17DF0769F4888199819C
:10045000280F391F2E5F3F4FFA01318320838A8195
:100460009B8193838283DF91CF910895FC0189E280
:1004700092E09183808308950F931F93CF93DF932E
:100480008C01EB01FC01828160E00E94EA0BF80123
:10049000848160E00E94EA0BC431D105E9F0C436E2
:1004A000D105B1F0229729F0DF91CF911F910F91E3
:1004B0000895F801828160E00E94EA0BF8018481CE
:1004C00061E00E94EA0BDF91CF911F910F91089597
:1004D000F801828161E0F0CFF801828161E00E9441
:1004E000EA0BF801848160E00E94EA0BDF91CF9172
:1004F0001F910F910895FC01662329F4848561E022
:100500000E94EA0B0895848560E00E94EA0B08953A
:100510000F931F938C01FC01868160E00E94EA0B1F
:10052000F801808561E00E94EA0BF801828560E0B5
:1005300020E432E44FE050E00E94200CF801628B8E
:10054000738BCB011F910F9108950F931F938C0113
:10055000FC01868161E00E94EA0BF801808561E080
:100560000E94EA0BF801828560E020E432E44FE06B
:1005700050E00E94200CF801608B718BCB011F9121
:100580000F9108950F931F938C01FC01868160E009
:100590000E94EA0BF801808560E00E94EA0BF801F6
:1005A000828560E020E432E44FE050E00E94200CBD
:1005B000F80166877787CB011F910F910895FC01A1
:1005C000862F6287738760E00E94280B0895FC01E4
:1005D000862F6087718761E00E94280B0895FC01D7
:1005E000862F6683778361E00E94280B0895FC01C3
:1005F000862F6483758361E00E94280B0895FC01B7
:10060000862F6283738361E00E94280B0895FC01AA
:10061000862F6487758761E00E94280B08954F92AA
:100620005F926F927F928F929F92AF92BF92CF9282
:10063000DF92EF92FF920F931F934C013A01290131
:1006400089E292E0F40191838083C4010E94070350
:10065000C401B3010E94FF02C401B2010E94F7026B
:10066000C401B8010E94EF02C401B7010E94E70271
:10067000C401B6010E94DF02C401B5010E943C0220
:100680001F910F91FF90EF90DF90CF90BF90AF90B0
:100690009F908F907F906F905F904F900895FC0196
:1006A00089E292E091838083CF010E94C10808957E
:1006B000AF92BF92CF92DF92EF92FF920F931F9370
:1006C0008130910571F0892B19F46F5F7F4F11F123
:1006D0001F910F91FF90EF90DF90CF90BF90AF9060
:1006E00008956F5F7F4FA1F78EE392E061E370E0C2
:1006F00042E350E023E330E004E310E0A5E3EA2E18
:10070000F12CF0E3CF2ED12CE4E1AE2EB12C0E94DF
:100710000F03DECF8EE392E00E943602D9CF80E055
:1007200090E06FEF7FEF0E945803089581E090E022
:100730006FEF7FEF0E9458030895CF92DF92EF9200
:10074000FF920F931F9302E714E0C80160E072E08C
:100750000E940D0A8EE3E82E82E0F82EC7010E9467
:10076000C202BC01C8014AE050E00E94DB09BCE0C3
:10077000CB2EB2E0DB2EC801B6010E940D0AC801E3
:100780006EE072E00E940D0AC7010E94A502BC0142
:10079000C8014AE050E00E94DB09C801B6010E948E
:1007A0000D0AC80167E172E00E940D0AC7010E94AC
:1007B0008802BC01C8014AE050E00E94EE0960EDE9
:1007C00077E080E090E00E949B0A1F910F91FF90DC
:1007D000EF90DF90CF90089582E794E040E855E2F3
:1007E00060E070E00E9443068EE392E061E00E94C8
:1007F0007B02089508951F920F920FB60F920BB6C9
:100800000F9211242F933F934F938F939F93EF93C6
:10081000FF938091C00082FD2AC04091C6002091C4
:100820009202309193022F5F3F4F2F73307080916F
:100830009402909195022817390759F0E09192029D
:10084000F0919302EE5AFD4F408330939302209330
:100850009202FF91EF919F918F914F913F912F9134
:100860000F900BBE0F900FBE0F901F9018958091A8
:10087000C600EFCF08951F920F920FB60F920BB6DE
:100880000F9211242F933F934F938F939F93EF9346
:10089000FF938091C80082FD2AC04091CE00209134
:1008A0001A0330911B032F5F3F4F2F7330708091DD
:1008B0001C0390911D032817390759F0E0911A0382
:1008C000F0911B03E652FD4F408330931B032093AE
:1008D0001A03FF91EF919F918F914F913F912F912B
:1008E0000F900BBE0F900FBE0F901F901895809128
:1008F000CE00EFCF08951F920F920FB60F920BB656
:100900000F9211242F933F934F938F939F93EF93C5
:10091000FF938091D00082FD2AC04091D6002091A3
:10092000A2033091A3032F5F3F4F2F73307080914C
:10093000A4039091A5032817390759F0E091A20369
:10094000F091A303EE59FC4F40833093A30320930F
:10095000A203FF91EF919F918F914F913F912F9122
:100960000F900BBE0F900FBE0F901F9018958091A7
:10097000D600EFCF08951F920F920FB60F920BB6CD
:100980000F9211242F933F934F938F939F93EF9345
:10099000FF938091300182FD2AC040913601209161
:1009A0002A0430912B042F5F3F4F2F7330708091BA
:1009B0002C0490912D042817390759F0E0912A044E
:1009C000F0912B04E651FC4F408330932B0420938D
:1009D0002A04FF91EF919F918F914F913F912F9119
:1009E0000F900BBE0F900FBE0F901F901895809127
:1009F0003601EFCFE0917E04F0917F04E05CFF4F81
:100A00008191919120813181821B930B8F73907022
:100A1000892BD1F5E091A004F091A104E05CFF4F97
:100A20008191919120813181821B930B8F73907002
:100A3000892B39F5E091C204F091C304E05CFF4FCB
:100A40008191919120813181821B930B8F739070E2
:100A5000892BA1F4E091E404F091E504E05CFF4F00
:100A60008191919120813181821B930B8F739070C2
:100A7000892B09F408950E94BA0408950E947A040B
:100A8000E9CF0E943A04D6CF0E94FA03C3CF1F9247
:100A90000F920FB60F920BB60F9211242F933F9324
:100AA0008F939F93EF93FF932091D6023091D702BB
:100AB0008091D8029091D9022817390709F1E09165
:100AC000D802F091D902EA56FD4F20818091D802D8
:100AD0009091D90201968F7390709093D902809370
:100AE000D8022093C600FF91EF919F918F913F9183
:100AF0002F910F900BBE0F900FBE0F901F90189567
:100B00008091C1008F7D8093C100EDCF1F920F9225
:100B10000FB60F920BB60F9211242F933F938F9322
:100B20009F93EF93FF9320915E0330915F03809139
:100B30006003909161032817390709F1E091600380
:100B4000F0916103E25EFC4F2081809160039091FF
:100B5000610301968F73907090936103809360039B
:100B60002093CE00FF91EF919F918F913F912F9114
:100B70000F900BBE0F900FBE0F901F901895809195
:100B8000C9008F7D8093C900EDCF1F920F920FB6E1
:100B90000F920BB60F9211242F933F938F939F9335
:100BA000EF93FF932091E6033091E7038091E803F0
:100BB0009091E9032817390709F1E091E803F091D2
:100BC000E903EA55FC4F20818091E8039091E90305
:100BD00001968F7390709093E9038093E8032093BC
:100BE000D600FF91EF919F918F913F912F910F90A0
:100BF0000BBE0F900FBE0F901F9018958091D100E3
:100C00008F7D8093D100EDCF1F920F920FB60F9280
:100C10000BB60F9211242F933F938F939F93EF93D3
:100C2000FF9320916E0430916F0480917004909135
:100C300071042817390709F1E0917004F0917104EB
:100C4000E25DFB4F208180917004909171040196C8
:100C50008F73907090937104809370042093360189
:100C6000FF91EF919F918F913F912F910F900BBE2C
:100C70000F900FBE0F901F901895809131018F7DBE
:100C800080933101EDCFDF92EF92FF920F931F938C
:100C9000CF93DF93EC017A018B01DD24403081EEAC
:100CA000580780E0680780E0780721F1DD24D394BD
:100CB000EC89FD8981E090E008A002C0880F991FAF
:100CC0000A94E2F7808360E079E08DE390E0A80188
:100CD00097010E94E80C215030404040504056950A
:100CE00047953795279580E120303807D0F0DD20F3
:100CF000C1F0DD24EC89FD89108260E874E88EE1A2
:100D000090E0A80197010E94E80C2150304040403B
:100D10005040569547953795279580E12030380704
:100D200030F7E889F9893083EA89FB89208319A2A1
:100D3000EE89FF89408121E030E0C9010C8C02C0BE
:100D4000880F991F0A94E2F7482B4083EE89FF89A8
:100D50004081C9010D8C02C0880F991F0A94E2F7E7
:100D6000482B4083EE89FF894081C9010E8C02C067
:100D7000880F991F0A94E2F7482B4083EE89FF8978
:100D800080810F8C02C0220F331F0A94E2F7209556
:100D900028232083DF91CF911F910F91FF90EF9037
:100DA000DF900895DC011C96ED91FC911D97E05CAD
:100DB000FF4F2191319180819181281B390B2F7335
:100DC0003070C9010895DC011C96ED91FC911D97CE
:100DD000E05CFF4F20813181E054F040DF01AE5BE9
:100DE000BF4F8D919C9111972817390749F08D912C
:100DF0009C91E80FF91F8081282F30E0C9010895E8
:100E00002FEF3FEFC9010895DC011C96ED91FC9195
:100E10001D97E05CFF4F20813181E054F040DF01FD
:100E2000AE5BBF4F8D919C9111972817390791F0B8
:100E30008D919C911197E80FF91F20818D919C91C4
:100E4000119701968F73907011969C938E9330E05A
:100E5000C90108952FEF3FEFC9010895FC0181A159
:100E6000882311F411A20895A489B5898C9186FF75
:100E7000FDCF11A20895CF93DF93EC01AE85BF851E
:100E8000AD01405C5F4FFA01208131812F5F3F4F00
:100E90002F733070FD01EE5BFF4F80819181281729
:100EA0003907D9F3FA0180819181A80FB91F6C939A
:100EB000EE85FF85E05CFF4F31832083EE89FF895B
:100EC000208181E090E00F8C02C0880F991F0A9466
:100ED000E2F7282B208381E089A3EC89FD898081BA
:100EE0008064808381E090E0DF91CF9108951F932B
:100EF000109275041092740428EE33E040E050E044
:100F000020937604309377044093780450937904C7
:100F100061E372E0709373046093720482E592E07F
:100F200090937F0480937E0486E992E090938104FD
:100F30008093800485EC90E09093830480938204F6
:100F400084EC90E0909385048093840480EC90E09E
:100F5000909387048093860481EC90E090938904B9
:100F60008093880482EC90E090938B0480938A04B1
:100F700086EC90E090938D0480938C0414E01093A1
:100F80008E04B3E0B0938F04A7E0A0939004F5E043
:100F9000F0939104E1E0E093920410929704109290
:100FA0009604209398043093990440939A045093A4
:100FB0009B0470939504609394048AED92E090935F
:100FC000A1048093A0048EE193E09093A304809306
:100FD000A2048DEC90E09093A5048093A4048CEC83
:100FE00090E09093A7048093A60488EC90E09093FF
:100FF000A9048093A80489EC90E09093AB048093BB
:10100000AA048AEC90E09093AD048093AC048EEC3B
:1010100090E09093AF048093AE041093B004B0932B
:10102000B104A093B204F093B304E093B40410921B
:10103000B9041092B8042093BA043093BB044093CF
:10104000BC045093BD047093B7046093B60482E669
:1010500093E09093C3048093C20486EA93E0909354
:10106000C5048093C40485ED90E09093C7048093F9
:10107000C60484ED90E09093C9048093C80480ED89
:1010800090E09093CB048093CA0481ED90E090931C
:10109000CD048093CC0482ED90E09093CF048093B4
:1010A000CE0486ED90E09093D1048093D004109309
:1010B000D204B093D304A093D404F093D504E09366
:1010C000D6041092DB041092DA042093DC043093EF
:1010D000DD044093DE045093DF047093D9046093E1
:1010E000D8048AEE93E09093E5048093E4048EE2C2
:1010F00094E09093E7048093E60485E391E0909375
:10110000E9048093E80484E391E09093EB048093F6
:10111000EA0480E391E09093ED048093EC0481E392
:1011200091E09093EF048093EE0482E391E090933A
:10113000F1048093F00486E391E09093F3048093AC
:10114000F2041093F404B093F504A093F604F09322
:10115000F704E093F8041F9108950E94C60A0E94C4
:10116000EC030E949D038AEF94E0892B29F00E94F2
:10117000FA040E949D03FBCF0E949D030E949D03E1
:10118000FBCF0E94DE010895CF92DF92EF92FF9293
:101190000F931F93CF93DF937C016B01EA014115FD
:1011A0005105D9F000E010E0D6016D916D01D70135
:1011B000ED91FC910190F081E02DC7011995080F88
:1011C000191F219789F7C801DF91CF911F910F91C6
:1011D000FF90EF90DF90CF90089500E010E0F3CF04
:1011E000EF92FF920F931F938C01DC01ED91FC9124
:1011F0000190F081E02D6DE019957C01D801ED9111
:10120000FC910190F081E02DC8016AE019959C01E4
:101210002E0D3F1DC9011F910F91FF90EF90089572
:101220004F925F927F928F929F92AF92BF92CF9296
:10123000DF92EF92FF920F931F93DF93CF93CDB77F
:10124000DEB7A1970FB6F894DEBF0FBECDBF2C015D
:10125000742ECB01223008F460C0822E9924AA2477
:10126000BB2419A221E2C22ED12CCC0EDD1E0BC054
:10127000405DF6014083E114F1040105110501F11F
:101280007E2C5F2DC801672D752FA50194010E944A
:10129000E80C79018A01C801B701A50194010E94F7
:1012A000C90C472D461B0894C108D1084A3004F3E5
:1012B000495CF6014083E114F1040105110501F7D1
:1012C000C114D10481F1D6010D900020E9F71197E6
:1012D000AC19BD09F20180819181FC012281338129
:1012E000C201B601AD01F90119959C01C901A19690
:1012F0000FB6F894DEBF0FBECDBFCF91DF911F9127
:101300000F91FF90EF90DF90CF90BF90AF909F90A4
:101310008F907F905F904F9008953AE0832E912CAC
:10132000A12CB12C9ECF20E030E0E0CFCF92DF9215
:10133000EF92FF920F931F93CF93DF93EC016A011B
:101340007B0121153105B9F02A30310539F477FDDB
:101350001BC02AE00E9410099C0103C00E941009D2
:101360009C01C901DF91CF911F910F91FF90EF90E8
:10137000DF90CF900895E881F9810190F081E02D10
:10138000642F19959C01EDCFE881F9810190F081DE
:10139000E02D6DE219958C0144275527BA014C19AF
:1013A0005D096E097F09CE012AE00E9410099801AB
:1013B000280F391FD6CFEF92FF920F931F937B0117
:1013C0009A010027F7FC0095102FB801A7010E9491
:1013D00096091F910F91FF90EF900895CF92DF92A1
:1013E000EF92FF920F931F936C017B019A010027EC
:1013F000F7FC0095102FB801A7010E9496098C01F7
:10140000C6010E94F008080F191FC8011F910F9113
:10141000FF90EF90DF90CF900895CF93DF93EC0192
:101420006115710599F0DB010D900020E9F7119726
:10143000A61BB70BE881F9810280F381E02DAD0195
:1014400019959C01C901DF91CF91089520E030E00A
:10145000C901DF91CF9108951F920F920FB60F929D
:1014600011242F933F938F939F93AF93BF938091BA
:10147000FE049091FF04A0910005B0910105309108
:1014800002050196A11DB11D232F2D5F2D3720F0E0
:101490002D570196A11DB11D209302058093FE04D6
:1014A0009093FF04A0930005B09301058091FA0486
:1014B0009091FB04A091FC04B091FD040196A11D44
:1014C000B11D8093FA049093FB04A093FC04B093A5
:1014D000FD04BF91AF919F918F913F912F910F90FC
:1014E0000FBE0F901F9018959FB7F8942091FA04A3
:1014F0003091FB044091FC045091FD0486B5A89BFB
:1015000006C08F3F21F02F5F3F4F4F4F5F4F9FBF70
:10151000542F432F322F2227280F311D411D511DDB
:10152000220F331F441F551F220F331F441F551F07
:10153000B901CA010895EF92FF920F931F93CF93C1
:10154000DF937B018C010E94740AE114F104010510
:101550001105A9F0EB010E94740A6C1B7D0B685EFB
:101560007340C8F30894E108F10801091109E11476
:10157000F1040105110519F0C851DC4FECCFDF91E2
:10158000CF911F910F91FF90EF900895789484B5BB
:10159000826084BD84B5816084BD85B5826085BD6F
:1015A00085B5816085BDEEE6F0E080818160808355
:1015B000E1E8F0E010828081826080838081816038
:1015C0008083E0E8F0E0808181608083E1EBF0E0FF
:1015D000808184608083E0EBF0E0808181608083A3
:1015E000E1E9F0E080818260808380818160808396
:1015F000E0E9F0E0808181608083E1EAF0E08081D1
:1016000082608083808181608083E0EAF0E0808175
:1016100081608083E1E2F1E080818260808380816B
:1016200081608083E0E2F1E0808181608083EAE78D
:10163000F0E080818460808380818260808380810B
:10164000816080838081806880831092C1000895CA
:10165000CF93DF93482F50E0CA0188589E4FFC017A
:1016600034914E5C5E4FFA0184918823B9F090E08A
:10167000880F991FFC01EC51FF4FA591B491FC011B
:10168000E250FF4FC591D491662359F06230B9F012
:101690009FB7F8948C91832B8C939FBFDF91CF9150
:1016A00008952FB7F8948C91932F909589238C935C
:1016B0008881892388832FBFDF91CF9108952FB729
:1016C000F8948C91932F909589238C938881832B08
:1016D00088832FBFE3CF893009F45EC08A3070F071
:1016E0008D3009F45FC08E30D0F0803109F46CC0C9
:1016F000813109F463C08F30C9F10895843009F451
:1017000045C08530B8F08730B9F1883048F586306B
:10171000A1F78091B0008F778093B00008958B304F
:1017200009F446C08C30B0F08091A0008F7D80938A
:10173000A0000895823031F1833030F48130E9F631
:1017400084B58F7784BD0895809180008F778093D2
:101750008000089580919000877F80939000089585
:10176000809190008F778093900008958091200160
:101770008F778093200108958091B0008F7D8093B2
:10178000B000089584B58F7D84BD08958091800058
:101790008F7D809380000895809190008F7D80934D
:1017A000900008958091A000877F8093A000089505
:1017B0008091A0008F778093A000089580912001F0
:1017C000877F809320010895809120018F7D8093F1
:1017D00020010895FF920F931F93F62E482F50E09B
:1017E000CA0182549E4FFC012491CA0188589E4F21
:1017F000FC0104914E5C5E4FFA011491112399F0A3
:101800002223D1F4E12FF0E0EE0FFF1FE250FF4F53
:10181000A591B4919FB7F894FF2049F48C9100955D
:1018200080238C939FBF1F910F91FF9008958C91FF
:10183000802B8C939FBFF7CF822F0E946B0BE2CF40
:101840008F929F92AF92BF92CF92DF92EF92FF92D0
:101850000F931F93CF93DF93A82FB0E0CD0188584B
:101860009E4FFC018490AE5CBE4FFD0184916623C7
:1018700009F03BC099246FEFE62E6FEFF62E6FEF65
:10188000062F6FE0162FE222F32204231523682F80
:1018900070E0660F771F685E7E4F20E030E040E02A
:1018A00050E0FB01A591B49104C02F5F3F4F4F4F13
:1018B0005F4F8C9188219816D1F42E153F05400773
:1018C000510799F720E030E040E050E0B901CA014B
:1018D000DF91CF911F910F91FF90EF90DF90CF900C
:1018E000BF90AF909F908F900895982CC4CFFB012C
:1018F000A591B49104C02F5F3F4F4F4F5F4F8C9124
:101900008821981631F02E153F054007510799F7A9
:10191000D9CF8C9188219816B9F5E216F306040701
:10192000150781F2AA24BB246501FB01C591D4915E
:101930000CC0D601C501820F931FA41FB51FE81666
:10194000F9060A071B0709F4BDCF0894A11CB11CB6
:10195000C11CD11C88818821981659F3C601B50194
:1019600025E130E040E050E00E94C90C9B01AC0151
:10197000205F3F4F4F4F5F4F84E056954795379517
:1019800027958A95D1F7A2CF21E030E040E050E0E2
:101990009DCF629FD001739FF001829FE00DF11DEA
:1019A000649FE00DF11D929FF00D839FF00D749FD9
:1019B000F00D659FF00D9927729FB00DE11DF91F85
:1019C000639FB00DE11DF91FBD01CF0111240895E2
:1019D000A1E21A2EAA1BBB1BFD010DC0AA1FBB1F33
:1019E000EE1FFF1FA217B307E407F50720F0A21BA5
:1019F000B30BE40BF50B661F771F881F991F1A9412
:101A000069F760957095809590959B01AC01BD013B
:101A1000CF010895EE0FFF1F0590F491E02D19946A
:101A200012E0C8E0D2E004C0FE010E940C0D229634
:0A1A3000CA30D107C9F7F894FFCFC0
:101A3A005665726D656C686F203D20000900566519
:101A4A00726465203D2000417A756C203D2000209B
:101A5A0000070500000000000036024F03000000E6
:0E1A6A00003B07C408D2060407E3062E07005F
:00000001FF
